{"abi":[{"type":"constructor","inputs":[{"name":"initialOwner","type":"address","internalType":"address"},{"name":"creationFee","type":"uint256","internalType":"uint256"}],"stateMutability":"nonpayable"},{"type":"function","name":"CREATION_FEE","inputs":[],"outputs":[{"name":"","type":"uint256","internalType":"uint256"}],"stateMutability":"view"},{"type":"function","name":"MIN_TIMELOCK","inputs":[],"outputs":[{"name":"","type":"uint256","internalType":"uint256"}],"stateMutability":"view"},{"type":"function","name":"cancelOrder","inputs":[{"name":"orderHash","type":"bytes32","internalType":"bytes32"},{"name":"order","type":"tuple","internalType":"struct Resolver.Order","components":[{"name":"maker","type":"address","internalType":"address"},{"name":"makerToken","type":"address","internalType":"address"},{"name":"makerAmount","type":"uint256","internalType":"uint256"},{"name":"takerToken","type":"address","internalType":"address"},{"name":"takerAmount","type":"uint256","internalType":"uint256"},{"name":"hashLock","type":"bytes32","internalType":"bytes32"},{"name":"timelock","type":"uint256","internalType":"uint256"},{"name":"nonce","type":"uint256","internalType":"uint256"},{"name":"salt","type":"bytes32","internalType":"bytes32"}]}],"outputs":[],"stateMutability":"nonpayable"},{"type":"function","name":"completeSwap","inputs":[{"name":"orderHash","type":"bytes32","internalType":"bytes32"},{"name":"secret","type":"bytes32","internalType":"bytes32"}],"outputs":[],"stateMutability":"nonpayable"},{"type":"function","name":"computeEscrowAddresses","inputs":[{"name":"orderHash","type":"bytes32","internalType":"bytes32"},{"name":"salt","type":"bytes32","internalType":"bytes32"}],"outputs":[{"name":"makerEscrow","type":"address","internalType":"address"},{"name":"takerEscrow","type":"address","internalType":"address"}],"stateMutability":"view"},{"type":"function","name":"createOrder","inputs":[{"name":"order","type":"tuple","internalType":"struct Resolver.Order","components":[{"name":"maker","type":"address","internalType":"address"},{"name":"makerToken","type":"address","internalType":"address"},{"name":"makerAmount","type":"uint256","internalType":"uint256"},{"name":"takerToken","type":"address","internalType":"address"},{"name":"takerAmount","type":"uint256","internalType":"uint256"},{"name":"hashLock","type":"bytes32","internalType":"bytes32"},{"name":"timelock","type":"uint256","internalType":"uint256"},{"name":"nonce","type":"uint256","internalType":"uint256"},{"name":"salt","type":"bytes32","internalType":"bytes32"}]}],"outputs":[{"name":"orderHash","type":"bytes32","internalType":"bytes32"},{"name":"makerEscrow","type":"address","internalType":"address"},{"name":"takerEscrow","type":"address","internalType":"address"}],"stateMutability":"payable"},{"type":"function","name":"fillOrder","inputs":[{"name":"orderHash","type":"bytes32","internalType":"bytes32"},{"name":"order","type":"tuple","internalType":"struct Resolver.Order","components":[{"name":"maker","type":"address","internalType":"address"},{"name":"makerToken","type":"address","internalType":"address"},{"name":"makerAmount","type":"uint256","internalType":"uint256"},{"name":"takerToken","type":"address","internalType":"address"},{"name":"takerAmount","type":"uint256","internalType":"uint256"},{"name":"hashLock","type":"bytes32","internalType":"bytes32"},{"name":"timelock","type":"uint256","internalType":"uint256"},{"name":"nonce","type":"uint256","internalType":"uint256"},{"name":"salt","type":"bytes32","internalType":"bytes32"}]}],"outputs":[],"stateMutability":"nonpayable"},{"type":"function","name":"getOrder","inputs":[{"name":"orderHash","type":"bytes32","internalType":"bytes32"}],"outputs":[{"name":"order","type":"tuple","internalType":"struct Resolver.Order","components":[{"name":"maker","type":"address","internalType":"address"},{"name":"makerToken","type":"address","internalType":"address"},{"name":"makerAmount","type":"uint256","internalType":"uint256"},{"name":"takerToken","type":"address","internalType":"address"},{"name":"takerAmount","type":"uint256","internalType":"uint256"},{"name":"hashLock","type":"bytes32","internalType":"bytes32"},{"name":"timelock","type":"uint256","internalType":"uint256"},{"name":"nonce","type":"uint256","internalType":"uint256"},{"name":"salt","type":"bytes32","internalType":"bytes32"}]}],"stateMutability":"view"},{"type":"function","name":"getOrderStatus","inputs":[{"name":"orderHash","type":"bytes32","internalType":"bytes32"}],"outputs":[{"name":"status","type":"tuple","internalType":"struct Resolver.OrderStatus","components":[{"name":"exists","type":"bool","internalType":"bool"},{"name":"filled","type":"bool","internalType":"bool"},{"name":"completed","type":"bool","internalType":"bool"},{"name":"cancelled","type":"bool","internalType":"bool"},{"name":"makerEscrow","type":"address","internalType":"address"},{"name":"takerEscrow","type":"address","internalType":"address"},{"name":"taker","type":"address","internalType":"address"},{"name":"createdAt","type":"uint256","internalType":"uint256"}]}],"stateMutability":"view"},{"type":"function","name":"orderDetails","inputs":[{"name":"","type":"bytes32","internalType":"bytes32"}],"outputs":[{"name":"maker","type":"address","internalType":"address"},{"name":"makerToken","type":"address","internalType":"address"},{"name":"makerAmount","type":"uint256","internalType":"uint256"},{"name":"takerToken","type":"address","internalType":"address"},{"name":"takerAmount","type":"uint256","internalType":"uint256"},{"name":"hashLock","type":"bytes32","internalType":"bytes32"},{"name":"timelock","type":"uint256","internalType":"uint256"},{"name":"nonce","type":"uint256","internalType":"uint256"},{"name":"salt","type":"bytes32","internalType":"bytes32"}],"stateMutability":"view"},{"type":"function","name":"orders","inputs":[{"name":"","type":"bytes32","internalType":"bytes32"}],"outputs":[{"name":"exists","type":"bool","internalType":"bool"},{"name":"filled","type":"bool","internalType":"bool"},{"name":"completed","type":"bool","internalType":"bool"},{"name":"cancelled","type":"bool","internalType":"bool"},{"name":"makerEscrow","type":"address","internalType":"address"},{"name":"takerEscrow","type":"address","internalType":"address"},{"name":"taker","type":"address","internalType":"address"},{"name":"createdAt","type":"uint256","internalType":"uint256"}],"stateMutability":"view"},{"type":"function","name":"owner","inputs":[],"outputs":[{"name":"","type":"address","internalType":"address"}],"stateMutability":"view"},{"type":"function","name":"renounceOwnership","inputs":[],"outputs":[],"stateMutability":"nonpayable"},{"type":"function","name":"transferOwnership","inputs":[{"name":"newOwner","type":"address","internalType":"address"}],"outputs":[],"stateMutability":"nonpayable"},{"type":"function","name":"userNonces","inputs":[{"name":"","type":"address","internalType":"address"}],"outputs":[{"name":"","type":"uint256","internalType":"uint256"}],"stateMutability":"view"},{"type":"function","name":"withdrawFees","inputs":[],"outputs":[],"stateMutability":"nonpayable"},{"type":"event","name":"OrderCancelled","inputs":[{"name":"orderHash","type":"bytes32","indexed":true,"internalType":"bytes32"}],"anonymous":false},{"type":"event","name":"OrderCreated","inputs":[{"name":"orderHash","type":"bytes32","indexed":true,"internalType":"bytes32"},{"name":"maker","type":"address","indexed":true,"internalType":"address"},{"name":"makerEscrow","type":"address","indexed":false,"internalType":"address"},{"name":"takerEscrow","type":"address","indexed":false,"internalType":"address"},{"name":"order","type":"tuple","indexed":false,"internalType":"struct Resolver.Order","components":[{"name":"maker","type":"address","internalType":"address"},{"name":"makerToken","type":"address","internalType":"address"},{"name":"makerAmount","type":"uint256","internalType":"uint256"},{"name":"takerToken","type":"address","internalType":"address"},{"name":"takerAmount","type":"uint256","internalType":"uint256"},{"name":"hashLock","type":"bytes32","internalType":"bytes32"},{"name":"timelock","type":"uint256","internalType":"uint256"},{"name":"nonce","type":"uint256","internalType":"uint256"},{"name":"salt","type":"bytes32","internalType":"bytes32"}]}],"anonymous":false},{"type":"event","name":"OrderFilled","inputs":[{"name":"orderHash","type":"bytes32","indexed":true,"internalType":"bytes32"},{"name":"taker","type":"address","indexed":true,"internalType":"address"}],"anonymous":false},{"type":"event","name":"OwnershipTransferred","inputs":[{"name":"previousOwner","type":"address","indexed":true,"internalType":"address"},{"name":"newOwner","type":"address","indexed":true,"internalType":"address"}],"anonymous":false},{"type":"event","name":"SwapCompleted","inputs":[{"name":"orderHash","type":"bytes32","indexed":true,"internalType":"bytes32"},{"name":"secret","type":"bytes32","indexed":false,"internalType":"bytes32"}],"anonymous":false},{"type":"error","name":"InsufficientFee","inputs":[]},{"type":"error","name":"InvalidParameters","inputs":[]},{"type":"error","name":"InvalidTimelock","inputs":[]},{"type":"error","name":"OrderAlreadyCancelled","inputs":[]},{"type":"error","name":"OrderAlreadyCompleted","inputs":[]},{"type":"error","name":"OrderAlreadyExists","inputs":[]},{"type":"error","name":"OrderAlreadyFilled","inputs":[]},{"type":"error","name":"OrderNotFilled","inputs":[]},{"type":"error","name":"OrderNotFound","inputs":[]},{"type":"error","name":"OwnableInvalidOwner","inputs":[{"name":"owner","type":"address","internalType":"address"}]},{"type":"error","name":"OwnableUnauthorizedAccount","inputs":[{"name":"account","type":"address","internalType":"address"}]},{"type":"error","name":"ReentrancyGuardReentrantCall","inputs":[]},{"type":"error","name":"UnauthorizedCaller","inputs":[]}],"bytecode":{"object":"0x60a0346100d557601f61360838819003918201601f19168301916001600160401b038311848410176100d95780849260409485528339810103126100d55780516001600160a01b0391828216918290036100d557602001519080156100bd575f80546001600160a01b03198116831782556040519416907f8be0079c531659141344cd1fd0a4f28419497f9722a3daafe3b4186f6b6457e09080a36001805560805261351a90816100ee8239608051818181610e4501526110d10152f35b604051631e4fbdf760e01b81525f6004820152602490fd5b5f80fd5b634e487b7160e01b5f52604160045260245ffdfe60806040526004361015610011575f80fd5b5f803560e01c80632372a8801461109b5780632f7801f41461103857806346423aa714610ef2578063476343ee14610e6857806349a2104d14610e0f5780635778472a14610caf578063715018a614610c1357806378dc335614610a6c5780638da5cb5b14610a1b5780639016c4ef146108bd5780639c3f1e90146107ff578063a3c50b321461070f578063dae80ab8146104f5578063db24fbb4146101e8578063f2fde38b146101075763fb0c7549146100ca575f80fd5b3461010457807ffffffffffffffffffffffffffffffffffffffffffffffffffffffffffffffffc360112610104576020604051610e108152f35b80fd5b50346101045760207ffffffffffffffffffffffffffffffffffffffffffffffffffffffffffffffffc3601126101045761013f611864565b610147611b28565b73ffffffffffffffffffffffffffffffffffffffff8091169081156101b7575f54827fffffffffffffffffffffffff00000000000000000000000000000000000000008216175f55167f8be0079c531659141344cd1fd0a4f28419497f9722a3daafe3b4186f6b6457e05f80a380f35b602483604051907f1e4fbdf70000000000000000000000000000000000000000000000000000000082526004820152fd5b5034610104576101f7366118bb565b6101ff611a33565b81835260026020526040832080549160ff8316156104cb5760ff8360081c166104a15760ff8360181c166104775760c08101358042101561044d578461024483611a6e565b03610423576101007fffffffffffffffffffffffffffffffffffffffffffffffffffffffffffff00ff879560028601337fffffffffffffffffffffffff000000000000000000000000000000000000000082541617905516179283815573ffffffffffffffffffffffffffffffffffffffff809460201c1690813b1561041f578580926024604051809581937f11fca4b70000000000000000000000000000000000000000000000000000000083523360048401525af1801561041457859287916103f7575b505060010154169161031e60608201611983565b9161032882611983565b90843b156103f3578694868993879360a060e4976040519b8c9a8b997fa511c195000000000000000000000000000000000000000000000000000000008b5260048b01523360248b0152166044890152608081013560648901520135608487015260a48601521660c48401525af180156103e8576103d0575b505033907f0555709e59fb225fcf12cc582a9e5f7fd8eea54c91f3dc500ab9d8c37c5077708380a36001805580f35b6103d9906119a4565b6103e457815f6103a1565b5080fd5b6040513d84823e3d90fd5b8680fd5b610403919293506119a4565b610410578390855f61030a565b8480fd5b6040513d88823e3d90fd5b8580fd5b60046040517fe5239090000000000000000000000000000000000000000000000000000000008152fd5b60046040517ff8d10e82000000000000000000000000000000000000000000000000000000008152fd5b60046040517f7c87a472000000000000000000000000000000000000000000000000000000008152fd5b60046040517fee3b3d4b000000000000000000000000000000000000000000000000000000008152fd5b60046040517fd36d8965000000000000000000000000000000000000000000000000000000008152fd5b503461010457610504366118bb565b61050c611a33565b8183526002602052604083209081549160ff8316156104cb5760ff8360101c166106e55760ff8360181c166104775761054482611983565b9173ffffffffffffffffffffffffffffffffffffffff9283339116036106bb5760c0810135421061044d576105798591611a6e565b03610423578163010000007fffffffffffffffffffffffffffffffffffffffffffffffffffffffff00ffffff8795161780835560201c16803b156106b7578380916004604051809481937fea8a1af00000000000000000000000000000000000000000000000000000000083525af19081156106ac578491610694575b505060ff815460081c16610632575b5050807f5152abf959f6564662358c2e52b702259b78bac5ee7842a0f01937e670efcc7d91a26001805580f35b6001015416803b156103e4578180916004604051809481937f590e1ae30000000000000000000000000000000000000000000000000000000083525af180156103e857610680575b80610605565b610689906119a4565b6103e457815f61067a565b61069d906119a4565b6106a857825f6105f6565b8280fd5b6040513d86823e3d90fd5b8380fd5b60046040517f5c427cd9000000000000000000000000000000000000000000000000000000008152fd5b60046040517f03683687000000000000000000000000000000000000000000000000000000008152fd5b50346101045760207ffffffffffffffffffffffffffffffffffffffffffffffffffffffffffffffffc36011261010457604090600435815260036020522073ffffffffffffffffffffffffffffffffffffffff6107fb8183541691806001850154169360028101549160038201541660048201546005830154906006840154926008600786015495015495604051998a998a95929361010097949a99989592919a61012088019b73ffffffffffffffffffffffffffffffffffffffff93848092168a521660208901526040880152166060860152608085015260a084015260c083015260e08201520152565b0390f35b50346101045760207ffffffffffffffffffffffffffffffffffffffffffffffffffffffffffffffffc36011261010457604061010091600435815260026020522080549073ffffffffffffffffffffffffffffffffffffffff9081600182015416600383600284015416920154926040519460ff81161515865260ff8160081c161515602087015260ff8160101c161515604087015260ff8160181c161515606087015260201c16608085015260a084015260c083015260e0820152f35b50346101045760406108ce36611887565b6109f7610cb5916109ef60209386516108e9868301826119f2565b81815285810191611baf833951902091610c81875161090a878301826119f2565b818152868101916128648339519020956109d86109e48951888101816109628787849091604592825260208201527f6d616b657200000000000000000000000000000000000000000000000000000060408201520190565b03916109947fffffffffffffffffffffffffffffffffffffffffffffffffffffffffffffffe0938481018352826119f2565b519020948b519384918b830196879091604592825260208201527f74616b657200000000000000000000000000000000000000000000000000000060408201520190565b039081018352826119f2565b519020923091611b78565b933091611b78565b835173ffffffffffffffffffffffffffffffffffffffff9384168152921690820152f35b503461010457807ffffffffffffffffffffffffffffffffffffffffffffffffffffffffffffffffc3601126101045773ffffffffffffffffffffffffffffffffffffffff6020915416604051908152f35b503461010457610a7b36611887565b610a83611a33565b81835260026020526040832080549060ff8216156104cb5760ff8260081c1615610be95760ff8260101c166106e55760ff8260181c1661047757620100007fffffffffffffffffffffffffffffffffffffffffffffffffffffffffff00ffff86931617815573ffffffffffffffffffffffffffffffffffffffff8060018301541691823b156106b7576040518481602481837f6facd1c000000000000000000000000000000000000000000000000000000000988983528b60048401525af1908115610bde578591610bca575b50505460201c1690813b156106a857829160248392604051948593849283528860048401525af180156103e857610bb6575b505060207f7430d80e0e3cfb925010ff8993f6a56392199211e297fc7825278f29980ccf5191604051908152a26001805580f35b610bbf906119a4565b6106a857825f610b82565b610bd3906119a4565b6106b757835f610b50565b6040513d87823e3d90fd5b60046040517f789bae35000000000000000000000000000000000000000000000000000000008152fd5b503461010457807ffffffffffffffffffffffffffffffffffffffffffffffffffffffffffffffffc36011261010457610c4a611b28565b5f73ffffffffffffffffffffffffffffffffffffffff81547fffffffffffffffffffffffff000000000000000000000000000000000000000081168355167f8be0079c531659141344cd1fd0a4f28419497f9722a3daafe3b4186f6b6457e08280a380f35b5034610104576020807ffffffffffffffffffffffffffffffffffffffffffffffffffffffffffffffffc3601126103e457604051600435610cef826119d5565b83825283838301528360408301528360608301528360808301528360a08301528360c08301528360e083015283610100809301528084526002835260ff604085205416156104cb5783604091610120955260038452206040518091610d53826119d5565b73ffffffffffffffffffffffffffffffffffffffff80825416958684528160018401541691818501928352600284015460408601908152816003860154169060608701918252600486015493608088019485528360058801549660a08a019788528b600860068b01549a60c08d019b8c5260e060078201549d019c8d5201549b019a8b526040519c8d525116908b01525160408a0152511660608801525160808701525160a08601525160c08501525160e08401525190820152f35b503461010457807ffffffffffffffffffffffffffffffffffffffffffffffffffffffffffffffffc3601126101045760206040517f00000000000000000000000000000000000000000000000000000000000000008152f35b503461010457807ffffffffffffffffffffffffffffffffffffffffffffffffffffffffffffffffc36011261010457610e9f611b28565b80478015908115610eae575050f35b82809291819273ffffffffffffffffffffffffffffffffffffffff835416908390610ee9575bf115610edd5780f35b604051903d90823e3d90fd5b506108fc610ed4565b5034610104576020807ffffffffffffffffffffffffffffffffffffffffffffffffffffffffffffffffc3601126103e4576040826101009360e08351610f37816119b8565b828152828682015282858201528260608201528260808201528260a08201528260c08201520152600435815260028352209060405190610f76826119b8565b8183549160ff831615159485835281830160ff8560081c1615158152604084019460ff8160101c16151586526060850160ff8260181c161515815273ffffffffffffffffffffffffffffffffffffffff96879586948560808a0195831c16855260e060038760018a0154169860a08c01998a5260c0896002830154169c019b8c5201549b019a8b526040519b8c52511515908b015251151560408a0152511515606089015251166080870152511660a0850152511660c08301525160e0820152f35b50346101045760207ffffffffffffffffffffffffffffffffffffffffffffffffffffffffffffffffc36011261010457604060209173ffffffffffffffffffffffffffffffffffffffff61108a611864565b168152600483522054604051908152f35b506101207ffffffffffffffffffffffffffffffffffffffffffffffffffffffffffffffffc3601126117a8576110cf611a33565b7f0000000000000000000000000000000000000000000000000000000000000000341061183a576110fe61191a565b73ffffffffffffffffffffffffffffffffffffffff339116036106bb57610e10420180421161180d5760c4351061044d57604435158015611803575b6104235761114661193d565b73ffffffffffffffffffffffffffffffffffffffff80611164611960565b169116146104235773ffffffffffffffffffffffffffffffffffffffff60043516600435036117a85773ffffffffffffffffffffffffffffffffffffffff60243516602435036117a85773ffffffffffffffffffffffffffffffffffffffff60643516606435036117a8576040805173ffffffffffffffffffffffffffffffffffffffff600435811660208301908152602435821693830193909352604435606083015260643516608082015260843560a082015260a43560c082015260c43560e082015260e435610100820152610104356101208201526112728161014081015b037fffffffffffffffffffffffffffffffffffffffffffffffffffffffffffffffe081018352826119f2565b519020805f52600260205260ff60405f2054166117d957604080516020810183815261010435928201929092527f6d616b657200000000000000000000000000000000000000000000000000000060608201526112d28160658101611246565b519020604080516020810184815261010435928201929092527f74616b6572000000000000000000000000000000000000000000000000000000606082015261131e8160658101611246565b51902090604051610cb580820182811067ffffffffffffffff8211176117ac578291611baf833903905ff590811561179d57604051610c8180820182811067ffffffffffffffff8211176117ac578291612864833903905ff592831561179d5761138661191a565b61138e61193d565b73ffffffffffffffffffffffffffffffffffffffff84163b156117a85773ffffffffffffffffffffffffffffffffffffffff9081604051937fcd50cb2c000000000000000000000000000000000000000000000000000000008552876004860152166024840152166044820152604435606482015260a435608482015260c43560a48201525f8160c4818373ffffffffffffffffffffffffffffffffffffffff88165af1801561179d5761178c575b508362ff000060038584604051611453816119b8565b600181526020810182815260408201838152606083019084825261ff00608085019373ffffffffffffffffffffffffffffffffffffffff8d16855273ffffffffffffffffffffffffffffffffffffffff60a087019b168b527fffffffffffffffff00000000000000000000000000000000000000000000000060ff77ffffffffffffffffffffffffffffffffffffffff0000000063ff000000604060c08b019b808d5260e08c019d8e42905281526002602052209d8e9a5115159a54955115159751151560101b169751151560181b16975160201b1697169116179160081b1617171717845573ffffffffffffffffffffffffffffffffffffffff60018501955116947fffffffffffffffffffffffff0000000000000000000000000000000000000000958682541617905573ffffffffffffffffffffffffffffffffffffffff6002850191511685825416179055519101556003602052604082209073ffffffffffffffffffffffffffffffffffffffff6115cd61191a565b16818354161782556001820173ffffffffffffffffffffffffffffffffffffffff6115f661193d565b16828254161790556044356002830155600382019073ffffffffffffffffffffffffffffffffffffffff611628611960565b1690825416179055608435600482015560a435600582015560c435600682015560e4356007820155600861010435910155338152600460205260408120908154907fffffffffffffffffffffffffffffffffffffffffffffffffffffffffffffffff821461175f5750600101905560609273ffffffffffffffffffffffffffffffffffffffff918290816116ba61191a565b16857f5ee9ded0d6f857cfd61225775afd61a778143215daeca1c443e06aec4af8989761016060405186861681528688166020820152866116f9611864565b16604082015286602435168b8201526044356080820152866064351660a082015260843560c082015260a43560e082015260c43561010082015260e43561012082015261010435610140820152a360018055604051948552166020840152166040820152f35b807f4e487b7100000000000000000000000000000000000000000000000000000000602492526011600452fd5b61179691506119a4565b5f8061143d565b6040513d5f823e3d90fd5b5f80fd5b7f4e487b71000000000000000000000000000000000000000000000000000000005f52604160045260245ffd5b60046040517f966753c5000000000000000000000000000000000000000000000000000000008152fd5b506084351561113a565b7f4e487b71000000000000000000000000000000000000000000000000000000005f52601160045260245ffd5b60046040517f025dbdd4000000000000000000000000000000000000000000000000000000008152fd5b6004359073ffffffffffffffffffffffffffffffffffffffff821682036117a857565b7ffffffffffffffffffffffffffffffffffffffffffffffffffffffffffffffffc60409101126117a8576004359060243590565b906101407ffffffffffffffffffffffffffffffffffffffffffffffffffffffffffffffffc8301126117a8576101207fffffffffffffffffffffffffffffffffffffffffffffffffffffffffffffffdc6004359301126117a857602490565b60043573ffffffffffffffffffffffffffffffffffffffff811681036117a85790565b60243573ffffffffffffffffffffffffffffffffffffffff811681036117a85790565b60643573ffffffffffffffffffffffffffffffffffffffff811681036117a85790565b3573ffffffffffffffffffffffffffffffffffffffff811681036117a85790565b67ffffffffffffffff81116117ac57604052565b610100810190811067ffffffffffffffff8211176117ac57604052565b610120810190811067ffffffffffffffff8211176117ac57604052565b90601f7fffffffffffffffffffffffffffffffffffffffffffffffffffffffffffffffe0910116810190811067ffffffffffffffff8211176117ac57604052565b600260015414611a44576002600155565b60046040517f3ee5aeb5000000000000000000000000000000000000000000000000000000008152fd5b611a7781611983565b90611b22611a8760208301611983565b92611246611a9760608501611983565b9360405194859360208501976101008401359360e08101359360c08201359360a08301359360406080850135940135918d95929361010097949a99989592919a61012088019b73ffffffffffffffffffffffffffffffffffffffff93848092168a521660208901526040880152166060860152608085015260a084015260c083015260e08201520152565b51902090565b73ffffffffffffffffffffffffffffffffffffffff5f54163303611b4857565b60246040517f118cdaa7000000000000000000000000000000000000000000000000000000008152336004820152fd5b60559173ffffffffffffffffffffffffffffffffffffffff93600b92604051926040840152602083015281520160ff815320169056fe60a0806040523461003c5760015f5533608052610c74908161004182396080518181816103e401528181610885015281816109ae0152610a8b0152f35b5f80fdfe608060409080825260049182361015610016575f80fd5b60e0915f35831c90816304f3bcec14610a435750806311fca4b71461095a578063229e81fb146108ad5780636facd1c01461062c578063ba253b4d146105f0578063cd50cb2c1461036e578063ea8a1af0146101bb5763f6bbc25d1461007a575f80fd5b346101b7575f7ffffffffffffffffffffffffffffffffffffffffffffffffffffffffffffffffc3601126101b757610120928151916100b883610aaf565b5f83525f60208401525f818401525f60608401525f60808401525f60a08401525f60c08401525f848401525f610100809401528051936100f785610aaf565b73ffffffffffffffffffffffffffffffffffffffff9283600154169586815284600254166020820190815260035492858301938452546060830190815260055490608084019182526006549687958960a087019560ff891615158752818d60c08a019960ff8c60081c1615158b5260ff8d82019c60101c1615158c52019b60181c168b5283519d8e52511660208d015251908b01525160608a015251608089015251151560a088015251151560c087015251151590850152511690820152f35b5f80fd5b5082346101b7575f7ffffffffffffffffffffffffffffffffffffffffffffffffffffffffffffffffc3601126101b75773ffffffffffffffffffffffffffffffffffffffff8060015416330361034657610213610af9565b806001541691821561031f576006549360ff8560081c166102f95760ff8560101c166102d35760055442106102ad575050620100007fffffffffffffffffffffffffffffffffffffffffffffffffffffffffff00ffff610280941617600655600254169060035491610b32565b6007547f5152abf959f6564662358c2e52b702259b78bac5ee7842a0f01937e670efcc7d5f80a260015f55005b517f796c85f3000000000000000000000000000000000000000000000000000000008152fd5b517f7c87a472000000000000000000000000000000000000000000000000000000008152fd5b517f03683687000000000000000000000000000000000000000000000000000000008152fd5b83517f453ffb60000000000000000000000000000000000000000000000000000000008152fd5b5090517f5c427cd9000000000000000000000000000000000000000000000000000000008152fd5b508290346101b75760c07ffffffffffffffffffffffffffffffffffffffffffffffffffffffffffffffffc3601126101b7578135926024359073ffffffffffffffffffffffffffffffffffffffff938483168093036101b757604435918583168093036101b757606435956084359060a43592817f00000000000000000000000000000000000000000000000000000000000000001633036105c8576001549182166105a057905f61010087938c600755828b519161042c83610aaf565b8b83528660208401528d8d8401528760608401528860808401528160a08401528160c08401528201520152867fffffffffffffffffffffffff00000000000000000000000000000000000000008092161760015560025416176002558660035582556005557fffffffffffffffffff0000000000000000000000000000000000000000000000600654166006558351927f23b872dd00000000000000000000000000000000000000000000000000000000602085015260248401523060448401528460648401526064835260a083019083821067ffffffffffffffff83111761057457507f7ec6f5437727983c2c8e856756f28463fe5eb23d39ec07353c9c6529228f8a29949284926105429260209652610ba7565b60017fffffffffffffffffffffffffffffffffffffffffffffffffffffffffffffff00600654161760065551908152a2005b6041907f4e487b71000000000000000000000000000000000000000000000000000000005f525260245ffd5b8488517f03683687000000000000000000000000000000000000000000000000000000008152fd5b8488517f5c427cd9000000000000000000000000000000000000000000000000000000008152fd5b50346101b7575f7ffffffffffffffffffffffffffffffffffffffffffffffffffffffffffffffffc3601126101b7576020906007549051908152f35b5082346101b75760207ffffffffffffffffffffffffffffffffffffffffffffffffffffffffffffffffc3601126101b7578035610667610af9565b60065473ffffffffffffffffffffffffffffffffffffffff92838260181c1633141580610881575b61085a578360015416156108335760ff8260081c1661080c5760ff8260101c166107e557845160208101848152602082528682019180831067ffffffffffffffff8411176107b957828852519020825403610794575060055442101561076d57507fce4c2fd8eceffa201b1ad710862a2b4364adbf66b5eb1aad9dabd210c9c34e9a916107566101007fffffffffffffffffffffffffffffffffffffffffffffffffffffffffffff00ff6020941617806006558560025416866003549260181c1690610b32565b6007549360065460181c169451908152a360015f55005b84517fc56873ba000000000000000000000000000000000000000000000000000000008152fd5b7fabab6bd7000000000000000000000000000000000000000000000000000000008152fd5b6041847f4e487b71000000000000000000000000000000000000000000000000000000005f525260245ffd5b84517f7c87a472000000000000000000000000000000000000000000000000000000008152fd5b84517f03683687000000000000000000000000000000000000000000000000000000008152fd5b84517f453ffb60000000000000000000000000000000000000000000000000000000008152fd5b84517f5c427cd9000000000000000000000000000000000000000000000000000000008152fd5b50837f00000000000000000000000000000000000000000000000000000000000000001633141561068f565b5090346101b7575f7ffffffffffffffffffffffffffffffffffffffffffffffffffffffffffffffffc3601126101b7576101209273ffffffffffffffffffffffffffffffffffffffff918260015416938360025416926003549054906005549260065495815198895260208901528701526060860152608085015260ff8216151560a085015260ff8260081c16151560c085015260ff8260101c1615159084015260181c16610100820152f35b5082346101b75760207ffffffffffffffffffffffffffffffffffffffffffffffffffffffffffffffffc3601126101b75780359173ffffffffffffffffffffffffffffffffffffffff80841684036101b7577f0000000000000000000000000000000000000000000000000000000000000000163303610a1d57600680547fffffffffffffffffff0000000000000000000000000000000000000000ffffff16601885901b76ffffffffffffffffffffffffffffffffffffffff00000016179055005b517f5c427cd9000000000000000000000000000000000000000000000000000000008152fd5b346101b7575f7ffffffffffffffffffffffffffffffffffffffffffffffffffffffffffffffffc3601126101b75760209073ffffffffffffffffffffffffffffffffffffffff7f0000000000000000000000000000000000000000000000000000000000000000168152f35b610120810190811067ffffffffffffffff821117610acc57604052565b7f4e487b71000000000000000000000000000000000000000000000000000000005f52604160045260245ffd5b60025f5414610b085760025f55565b60046040517f3ee5aeb5000000000000000000000000000000000000000000000000000000008152fd5b9173ffffffffffffffffffffffffffffffffffffffff604051927fa9059cbb000000000000000000000000000000000000000000000000000000006020850152166024830152604482015260448152608081019181831067ffffffffffffffff841117610acc57610ba592604052610ba7565b565b905f602091828151910182855af115610c33575f513d610c2a575073ffffffffffffffffffffffffffffffffffffffff81163b155b610be35750565b60249073ffffffffffffffffffffffffffffffffffffffff604051917f5274afe7000000000000000000000000000000000000000000000000000000008352166004820152fd5b60011415610bdc565b6040513d5f823e3d90fdfea2646970667358221220510749946b04a07f1a15fd13e55a55bcf99f3e391eaa274c16e442639df4e0fc64736f6c6343000817003360a080604052346100355760015f5533608052610c47908161003a823960805181818161027a015281816107540152610a5e0152f35b5f80fdfe608060409080825260049182361015610016575f80fd5b60e0915f35831c90816304f3bcec14610a16575080630a73faf3146109dc578063229e81fb1461092f578063590e1ae31461077c5780636facd1c0146104fb578063a511c195146101f7578063ba253b4d146101bb5763f6bbc25d1461007a575f80fd5b346101b7575f7ffffffffffffffffffffffffffffffffffffffffffffffffffffffffffffffffc3601126101b757610120928151916100b883610a82565b5f83525f60208401525f818401525f60608401525f60808401525f60a08401525f60c08401525f848401525f610100809401528051936100f785610a82565b73ffffffffffffffffffffffffffffffffffffffff9283600154169586815284600254166020820190815260035492858301938452546060830190815260055490608084019182526006549687958960a087019560ff891615158752818d60c08a019960ff8c60081c1615158b5260ff8d82019c60101c1615158c52019b60181c168b5283519d8e52511660208d015251908b01525160608a015251608089015251151560a088015251151560c087015251151590850152511690820152f35b5f80fd5b50346101b7575f7ffffffffffffffffffffffffffffffffffffffffffffffffffffffffffffffffc3601126101b7576020906007549051908152f35b508290346101b757827ffffffffffffffffffffffffffffffffffffffffffffffffffffffffffffffffc3601126101b7578135926024359073ffffffffffffffffffffffffffffffffffffffff938483168093036101b757604435918583168093036101b7576064359560843560a4359160c43593818516908186036101b757827f00000000000000000000000000000000000000000000000000000000000000001633036104d3576001549283166104ab578b6007557ffffffffffffffffffffffffffffffffffffffffffffffffffffffffffffff8f8850194851161047f5790610100895f8a95948e8e8051946102ef86610a82565b85528860208601528401528760608401528860808401528160a08401528160c08401528201520152877fffffffffffffffffffffffff00000000000000000000000000000000000000008092161760015560025416176002558760035583556005557fffffffffffffffffff000000000000000000000000000000000000000000000076ffffffffffffffffffffffffffffffffffffffff0000006006549260181b169116176006558351927f23b872dd00000000000000000000000000000000000000000000000000000000602085015260248401523060448401528460648401526064835260a083019083821067ffffffffffffffff83111761045357507f224ec8d6443407a8529637fa2b4e5e9ad882ede9d1eb6578bc301cf268e9e86f949284926104219260209652610b7a565b60017fffffffffffffffffffffffffffffffffffffffffffffffffffffffffffffff00600654161760065551908152a2005b6041907f4e487b71000000000000000000000000000000000000000000000000000000005f525260245ffd5b6011877f4e487b71000000000000000000000000000000000000000000000000000000005f525260245ffd5b868a517f03683687000000000000000000000000000000000000000000000000000000008152fd5b868a517f5c427cd9000000000000000000000000000000000000000000000000000000008152fd5b5082346101b75760207ffffffffffffffffffffffffffffffffffffffffffffffffffffffffffffffffc3601126101b7578035610536610acc565b60065473ffffffffffffffffffffffffffffffffffffffff92838260181c1633141580610750575b610729578360015416156107025760ff8260081c166106db5760ff8260101c166106b457845160208101848152602082528682019180831067ffffffffffffffff84111761068857828852519020825403610663575060055442101561063c57507fce4c2fd8eceffa201b1ad710862a2b4364adbf66b5eb1aad9dabd210c9c34e9a916106256101007fffffffffffffffffffffffffffffffffffffffffffffffffffffffffffff00ff6020941617806006558560025416866003549260181c1690610b05565b6007549360065460181c169451908152a360015f55005b84517fc56873ba000000000000000000000000000000000000000000000000000000008152fd5b7fabab6bd7000000000000000000000000000000000000000000000000000000008152fd5b6041847f4e487b71000000000000000000000000000000000000000000000000000000005f525260245ffd5b84517f7c87a472000000000000000000000000000000000000000000000000000000008152fd5b84517f03683687000000000000000000000000000000000000000000000000000000008152fd5b84517f453ffb60000000000000000000000000000000000000000000000000000000008152fd5b84517f5c427cd9000000000000000000000000000000000000000000000000000000008152fd5b50837f00000000000000000000000000000000000000000000000000000000000000001633141561055e565b5082346101b7575f7ffffffffffffffffffffffffffffffffffffffffffffffffffffffffffffffffc3601126101b75773ffffffffffffffffffffffffffffffffffffffff80600154163303610907576107d4610acc565b80600154169182156108e0576006549360ff8560081c166108ba5760ff8560101c1661089457600554421061086e575050620100007fffffffffffffffffffffffffffffffffffffffffffffffffffffffffff00ffff610841941617600655600254169060035491610b05565b6007547f54cf119498426b17166b2137abca4bd1847ba18e091ac51d965c0ba843e04ff75f80a260015f55005b517f796c85f3000000000000000000000000000000000000000000000000000000008152fd5b517f7c87a472000000000000000000000000000000000000000000000000000000008152fd5b517f03683687000000000000000000000000000000000000000000000000000000008152fd5b83517f453ffb60000000000000000000000000000000000000000000000000000000008152fd5b5090517f5c427cd9000000000000000000000000000000000000000000000000000000008152fd5b5090346101b7575f7ffffffffffffffffffffffffffffffffffffffffffffffffffffffffffffffffc3601126101b7576101209273ffffffffffffffffffffffffffffffffffffffff918260015416938360025416926003549054906005549260065495815198895260208901528701526060860152608085015260ff8216151560a085015260ff8260081c16151560c085015260ff8260101c1615159084015260181c16610100820152f35b50346101b7575f7ffffffffffffffffffffffffffffffffffffffffffffffffffffffffffffffffc3601126101b757602090516107088152f35b346101b7575f7ffffffffffffffffffffffffffffffffffffffffffffffffffffffffffffffffc3601126101b75760209073ffffffffffffffffffffffffffffffffffffffff7f0000000000000000000000000000000000000000000000000000000000000000168152f35b610120810190811067ffffffffffffffff821117610a9f57604052565b7f4e487b71000000000000000000000000000000000000000000000000000000005f52604160045260245ffd5b60025f5414610adb5760025f55565b60046040517f3ee5aeb5000000000000000000000000000000000000000000000000000000008152fd5b9173ffffffffffffffffffffffffffffffffffffffff604051927fa9059cbb000000000000000000000000000000000000000000000000000000006020850152166024830152604482015260448152608081019181831067ffffffffffffffff841117610a9f57610b7892604052610b7a565b565b905f602091828151910182855af115610c06575f513d610bfd575073ffffffffffffffffffffffffffffffffffffffff81163b155b610bb65750565b60249073ffffffffffffffffffffffffffffffffffffffff604051917f5274afe7000000000000000000000000000000000000000000000000000000008352166004820152fd5b60011415610baf565b6040513d5f823e3d90fdfea264697066735822122036d21ceda5db28051a36a47d881d496e7172f1e03720e2ea874239dc598e8eae64736f6c63430008170033a26469706673582212206dd1d2f1364950c0c3411bfa9eae4dfb2e5297a41e1b866a5f21df879e9262a064736f6c63430008170033","linkReferences":{}},"methodIdentifiers":{"CREATION_FEE()":"49a2104d","MIN_TIMELOCK()":"fb0c7549","cancelOrder(bytes32,(address,address,uint256,address,uint256,bytes32,uint256,uint256,bytes32))":"dae80ab8","completeSwap(bytes32,bytes32)":"78dc3356","computeEscrowAddresses(bytes32,bytes32)":"9016c4ef","createOrder((address,address,uint256,address,uint256,bytes32,uint256,uint256,bytes32))":"2372a880","fillOrder(bytes32,(address,address,uint256,address,uint256,bytes32,uint256,uint256,bytes32))":"db24fbb4","getOrder(bytes32)":"5778472a","getOrderStatus(bytes32)":"46423aa7","orderDetails(bytes32)":"a3c50b32","orders(bytes32)":"9c3f1e90","owner()":"8da5cb5b","renounceOwnership()":"715018a6","transferOwnership(address)":"f2fde38b","userNonces(address)":"2f7801f4","withdrawFees()":"476343ee"},"storageLayout":{"storage":[{"astId":8,"contract":"contracts/src/Resolver.sol:Resolver","label":"_owner","offset":0,"slot":"0","type":"t_address"},{"astId":941,"contract":"contracts/src/Resolver.sol:Resolver","label":"_status","offset":0,"slot":"1","type":"t_uint256"},{"astId":1790,"contract":"contracts/src/Resolver.sol:Resolver","label":"orders","offset":0,"slot":"2","type":"t_mapping(t_bytes32,t_struct(OrderStatus)1785_storage)"},{"astId":1795,"contract":"contracts/src/Resolver.sol:Resolver","label":"orderDetails","offset":0,"slot":"3","type":"t_mapping(t_bytes32,t_struct(Order)1768_storage)"},{"astId":1799,"contract":"contracts/src/Resolver.sol:Resolver","label":"userNonces","offset":0,"slot":"4","type":"t_mapping(t_address,t_uint256)"}],"types":{"t_address":{"encoding":"inplace","label":"address","numberOfBytes":"20"},"t_bool":{"encoding":"inplace","label":"bool","numberOfBytes":"1"},"t_bytes32":{"encoding":"inplace","label":"bytes32","numberOfBytes":"32"},"t_mapping(t_address,t_uint256)":{"encoding":"mapping","key":"t_address","label":"mapping(address => uint256)","numberOfBytes":"32","value":"t_uint256"},"t_mapping(t_bytes32,t_struct(Order)1768_storage)":{"encoding":"mapping","key":"t_bytes32","label":"mapping(bytes32 => struct Resolver.Order)","numberOfBytes":"32","value":"t_struct(Order)1768_storage"},"t_mapping(t_bytes32,t_struct(OrderStatus)1785_storage)":{"encoding":"mapping","key":"t_bytes32","label":"mapping(bytes32 => struct Resolver.OrderStatus)","numberOfBytes":"32","value":"t_struct(OrderStatus)1785_storage"},"t_struct(Order)1768_storage":{"encoding":"inplace","label":"struct Resolver.Order","numberOfBytes":"288","members":[{"astId":1751,"contract":"contracts/src/Resolver.sol:Resolver","label":"maker","offset":0,"slot":"0","type":"t_address"},{"astId":1753,"contract":"contracts/src/Resolver.sol:Resolver","label":"makerToken","offset":0,"slot":"1","type":"t_address"},{"astId":1755,"contract":"contracts/src/Resolver.sol:Resolver","label":"makerAmount","offset":0,"slot":"2","type":"t_uint256"},{"astId":1757,"contract":"contracts/src/Resolver.sol:Resolver","label":"takerToken","offset":0,"slot":"3","type":"t_address"},{"astId":1759,"contract":"contracts/src/Resolver.sol:Resolver","label":"takerAmount","offset":0,"slot":"4","type":"t_uint256"},{"astId":1761,"contract":"contracts/src/Resolver.sol:Resolver","label":"hashLock","offset":0,"slot":"5","type":"t_bytes32"},{"astId":1763,"contract":"contracts/src/Resolver.sol:Resolver","label":"timelock","offset":0,"slot":"6","type":"t_uint256"},{"astId":1765,"contract":"contracts/src/Resolver.sol:Resolver","label":"nonce","offset":0,"slot":"7","type":"t_uint256"},{"astId":1767,"contract":"contracts/src/Resolver.sol:Resolver","label":"salt","offset":0,"slot":"8","type":"t_bytes32"}]},"t_struct(OrderStatus)1785_storage":{"encoding":"inplace","label":"struct Resolver.OrderStatus","numberOfBytes":"128","members":[{"astId":1770,"contract":"contracts/src/Resolver.sol:Resolver","label":"exists","offset":0,"slot":"0","type":"t_bool"},{"astId":1772,"contract":"contracts/src/Resolver.sol:Resolver","label":"filled","offset":1,"slot":"0","type":"t_bool"},{"astId":1774,"contract":"contracts/src/Resolver.sol:Resolver","label":"completed","offset":2,"slot":"0","type":"t_bool"},{"astId":1776,"contract":"contracts/src/Resolver.sol:Resolver","label":"cancelled","offset":3,"slot":"0","type":"t_bool"},{"astId":1778,"contract":"contracts/src/Resolver.sol:Resolver","label":"makerEscrow","offset":4,"slot":"0","type":"t_address"},{"astId":1780,"contract":"contracts/src/Resolver.sol:Resolver","label":"takerEscrow","offset":0,"slot":"1","type":"t_address"},{"astId":1782,"contract":"contracts/src/Resolver.sol:Resolver","label":"taker","offset":0,"slot":"2","type":"t_address"},{"astId":1784,"contract":"contracts/src/Resolver.sol:Resolver","label":"createdAt","offset":0,"slot":"3","type":"t_uint256"}]},"t_uint256":{"encoding":"inplace","label":"uint256","numberOfBytes":"32"}}},"id":13}