{
	"data": {
		"bytecode": {
			"linkReferences": {},
			"object": "60a060405234801562000010575f80fd5b5060405162005a3038038062005a30833981810160405281019062000036919062000231565b815f73ffffffffffffffffffffffffffffffffffffffff168173ffffffffffffffffffffffffffffffffffffffff1603620000aa575f6040517f1e4fbdf7000000000000000000000000000000000000000000000000000000008152600401620000a1919062000287565b60405180910390fd5b620000bb81620000d360201b60201c565b506001808190555080608081815250505050620002a2565b5f805f9054906101000a900473ffffffffffffffffffffffffffffffffffffffff169050815f806101000a81548173ffffffffffffffffffffffffffffffffffffffff021916908373ffffffffffffffffffffffffffffffffffffffff1602179055508173ffffffffffffffffffffffffffffffffffffffff168173ffffffffffffffffffffffffffffffffffffffff167f8be0079c531659141344cd1fd0a4f28419497f9722a3daafe3b4186f6b6457e060405160405180910390a35050565b5f80fd5b5f73ffffffffffffffffffffffffffffffffffffffff82169050919050565b5f620001c38262000198565b9050919050565b620001d581620001b7565b8114620001e0575f80fd5b50565b5f81519050620001f381620001ca565b92915050565b5f819050919050565b6200020d81620001f9565b811462000218575f80fd5b50565b5f815190506200022b8162000202565b92915050565b5f80604083850312156200024a576200024962000194565b5b5f6200025985828601620001e3565b92505060206200026c858286016200021b565b9150509250929050565b6200028181620001b7565b82525050565b5f6020820190506200029c5f83018462000276565b92915050565b60805161576e620002c25f395f81816103f70152610be8015261576e5ff3fe6080604052600436106100f2575f3560e01c80638da5cb5b11610089578063dae80ab811610058578063dae80ab814610348578063db24fbb414610370578063f2fde38b14610398578063fb0c7549146103c0576100f2565b80638da5cb5b1461025a5780639016c4ef146102845780639c3f1e90146102c1578063a3c50b3214610304576100f2565b806349a2104d116100c557806349a2104d146101b65780635778472a146101e0578063715018a61461021c57806378dc335614610232576100f2565b80632372a880146100f65780632f7801f41461012857806346423aa714610164578063476343ee146101a0575b5f80fd5b610110600480360381019061010b9190611edc565b6103ea565b60405161011f93929190611f5f565b60405180910390f35b348015610133575f80fd5b5061014e60048036038101906101499190611fbe565b6109d2565b60405161015b9190612001565b60405180910390f35b34801561016f575f80fd5b5061018a60048036038101906101859190612044565b6109e7565b6040516101979190612147565b60405180910390f35b3480156101ab575f80fd5b506101b4610b83565b005b3480156101c1575f80fd5b506101ca610be6565b6040516101d79190612001565b60405180910390f35b3480156101eb575f80fd5b5061020660048036038101906102019190612044565b610c0a565b6040516102139190612225565b60405180910390f35b348015610227575f80fd5b50610230610dc6565b005b34801561023d575f80fd5b506102586004803603810190610253919061223f565b610dd9565b005b348015610265575f80fd5b5061026e611085565b60405161027b919061227d565b60405180910390f35b34801561028f575f80fd5b506102aa60048036038101906102a5919061223f565b6110ac565b6040516102b8929190612296565b60405180910390f35b3480156102cc575f80fd5b506102e760048036038101906102e29190612044565b611185565b6040516102fb9897969594939291906122cc565b60405180910390f35b34801561030f575f80fd5b5061032a60048036038101906103259190612044565b611256565b60405161033f99989796959493929190612348565b60405180910390f35b348015610353575f80fd5b5061036e600480360381019061036991906123d3565b6112fd565b005b34801561037b575f80fd5b50610396600480360381019061039191906123d3565b611652565b005b3480156103a3575f80fd5b506103be60048036038101906103b99190611fbe565b6119c3565b005b3480156103cb575f80fd5b506103d4611a47565b6040516103e19190612001565b60405180910390f35b5f805f6103f5611a4d565b7f000000000000000000000000000000000000000000000000000000000000000034101561044f576040517f025dbdd400000000000000000000000000000000000000000000000000000000815260040160405180910390fd5b3373ffffffffffffffffffffffffffffffffffffffff16845f0160208101906104789190611fbe565b73ffffffffffffffffffffffffffffffffffffffff16146104c5576040517f5c427cd900000000000000000000000000000000000000000000000000000000815260040160405180910390fd5b610e10426104d3919061243f565b8460c001351015610510576040517ff8d10e8200000000000000000000000000000000000000000000000000000000815260040160405180910390fd5b5f8460400135148061052557505f8460800135145b1561055c576040517fe523909000000000000000000000000000000000000000000000000000000000815260040160405180910390fd5b83606001602081019061056f9190611fbe565b73ffffffffffffffffffffffffffffffffffffffff168460200160208101906105989190611fbe565b73ffffffffffffffffffffffffffffffffffffffff16036105e5576040517fe523909000000000000000000000000000000000000000000000000000000000815260040160405180910390fd5b6105ee84611a93565b925060025f8481526020019081526020015f205f015f9054906101000a900460ff1615610647576040517f966753c500000000000000000000000000000000000000000000000000000000815260040160405180910390fd5b61065683856101000135611b20565b80925081935050508173ffffffffffffffffffffffffffffffffffffffff1663cd50cb2c84865f01602081019061068d9190611fbe565b8760200160208101906106a09190611fbe565b88604001358960a001358a60c001356040518763ffffffff1660e01b81526004016106d096959493929190612472565b5f604051808303815f87803b1580156106e7575f80fd5b505af11580156106f9573d5f803e3d5ffd5b505050506040518061010001604052806001151581526020015f151581526020015f151581526020015f151581526020018373ffffffffffffffffffffffffffffffffffffffff1681526020018273ffffffffffffffffffffffffffffffffffffffff1681526020015f73ffffffffffffffffffffffffffffffffffffffff1681526020014281525060025f8581526020019081526020015f205f820151815f015f6101000a81548160ff0219169083151502179055506020820151815f0160016101000a81548160ff0219169083151502179055506040820151815f0160026101000a81548160ff0219169083151502179055506060820151815f0160036101000a81548160ff0219169083151502179055506080820151815f0160046101000a81548173ffffffffffffffffffffffffffffffffffffffff021916908373ffffffffffffffffffffffffffffffffffffffff16021790555060a0820151816001015f6101000a81548173ffffffffffffffffffffffffffffffffffffffff021916908373ffffffffffffffffffffffffffffffffffffffff16021790555060c0820151816002015f6101000a81548173ffffffffffffffffffffffffffffffffffffffff021916908373ffffffffffffffffffffffffffffffffffffffff16021790555060e082015181600301559050508360035f8581526020019081526020015f20818161090a91906127e8565b90505060045f3373ffffffffffffffffffffffffffffffffffffffff1673ffffffffffffffffffffffffffffffffffffffff1681526020019081526020015f205f81548092919061095a906127f6565b9190505550835f0160208101906109719190611fbe565b73ffffffffffffffffffffffffffffffffffffffff16837f5ee9ded0d6f857cfd61225775afd61a778143215daeca1c443e06aec4af898978484886040516109bb93929190612990565b60405180910390a36109cb611bdd565b9193909250565b6004602052805f5260405f205f915090505481565b6109ef611d89565b60025f8381526020019081526020015f20604051806101000160405290815f82015f9054906101000a900460ff161515151581526020015f820160019054906101000a900460ff161515151581526020015f820160029054906101000a900460ff161515151581526020015f820160039054906101000a900460ff161515151581526020015f820160049054906101000a900473ffffffffffffffffffffffffffffffffffffffff1673ffffffffffffffffffffffffffffffffffffffff1673ffffffffffffffffffffffffffffffffffffffff168152602001600182015f9054906101000a900473ffffffffffffffffffffffffffffffffffffffff1673ffffffffffffffffffffffffffffffffffffffff1673ffffffffffffffffffffffffffffffffffffffff168152602001600282015f9054906101000a900473ffffffffffffffffffffffffffffffffffffffff1673ffffffffffffffffffffffffffffffffffffffff1673ffffffffffffffffffffffffffffffffffffffff1681526020016003820154815250509050919050565b610b8b611be6565b5f4790505f811115610be357610b9f611085565b73ffffffffffffffffffffffffffffffffffffffff166108fc8290811502906040515f60405180830381858888f19350505050158015610be1573d5f803e3d5ffd5b505b50565b7f000000000000000000000000000000000000000000000000000000000000000081565b610c12611e10565b60025f8381526020019081526020015f205f015f9054906101000a900460ff16610c68576040517fd36d896500000000000000000000000000000000000000000000000000000000815260040160405180910390fd5b60035f8381526020019081526020015f20604051806101200160405290815f82015f9054906101000a900473ffffffffffffffffffffffffffffffffffffffff1673ffffffffffffffffffffffffffffffffffffffff1673ffffffffffffffffffffffffffffffffffffffff168152602001600182015f9054906101000a900473ffffffffffffffffffffffffffffffffffffffff1673ffffffffffffffffffffffffffffffffffffffff1673ffffffffffffffffffffffffffffffffffffffff16815260200160028201548152602001600382015f9054906101000a900473ffffffffffffffffffffffffffffffffffffffff1673ffffffffffffffffffffffffffffffffffffffff1673ffffffffffffffffffffffffffffffffffffffff168152602001600482015481526020016005820154815260200160068201548152602001600782015481526020016008820154815250509050919050565b610dce611be6565b610dd75f611c6d565b565b610de1611a4d565b5f60025f8481526020019081526020015f209050805f015f9054906101000a900460ff16610e3b576040517fd36d896500000000000000000000000000000000000000000000000000000000815260040160405180910390fd5b805f0160019054906101000a900460ff16610e82576040517f789bae3500000000000000000000000000000000000000000000000000000000815260040160405180910390fd5b805f0160029054906101000a900460ff1615610eca576040517f0368368700000000000000000000000000000000000000000000000000000000815260040160405180910390fd5b805f0160039054906101000a900460ff1615610f12576040517f7c87a47200000000000000000000000000000000000000000000000000000000815260040160405180910390fd5b6001815f0160026101000a81548160ff021916908315150217905550806001015f9054906101000a900473ffffffffffffffffffffffffffffffffffffffff1673ffffffffffffffffffffffffffffffffffffffff16636facd1c0836040518263ffffffff1660e01b8152600401610f8a91906129c6565b5f604051808303815f87803b158015610fa1575f80fd5b505af1158015610fb3573d5f803e3d5ffd5b50505050805f0160049054906101000a900473ffffffffffffffffffffffffffffffffffffffff1673ffffffffffffffffffffffffffffffffffffffff16636facd1c0836040518263ffffffff1660e01b815260040161101391906129c6565b5f604051808303815f87803b15801561102a575f80fd5b505af115801561103c573d5f803e3d5ffd5b50505050827f7430d80e0e3cfb925010ff8993f6a56392199211e297fc7825278f29980ccf518360405161107091906129c6565b60405180910390a250611081611bdd565b5050565b5f805f9054906101000a900473ffffffffffffffffffffffffffffffffffffffff16905090565b5f805f604051806020016110bf90611e9b565b6020820181038252601f19601f820116604052508051906020012090505f604051806020016110ed90611ea8565b6020820181038252601f19601f820116604052508051906020012090505f868660405160200161111e929190612a53565b6040516020818303038152906040528051906020012090505f878760405160200161114a929190612ad3565b60405160208183030381529060405280519060200120905061116c8285611d2e565b95506111788184611d2e565b9450505050509250929050565b6002602052805f5260405f205f91509050805f015f9054906101000a900460ff1690805f0160019054906101000a900460ff1690805f0160029054906101000a900460ff1690805f0160039054906101000a900460ff1690805f0160049054906101000a900473ffffffffffffffffffffffffffffffffffffffff1690806001015f9054906101000a900473ffffffffffffffffffffffffffffffffffffffff1690806002015f9054906101000a900473ffffffffffffffffffffffffffffffffffffffff16908060030154905088565b6003602052805f5260405f205f91509050805f015f9054906101000a900473ffffffffffffffffffffffffffffffffffffffff1690806001015f9054906101000a900473ffffffffffffffffffffffffffffffffffffffff1690806002015490806003015f9054906101000a900473ffffffffffffffffffffffffffffffffffffffff16908060040154908060050154908060060154908060070154908060080154905089565b611305611a4d565b5f60025f8481526020019081526020015f209050805f015f9054906101000a900460ff1661135f576040517fd36d896500000000000000000000000000000000000000000000000000000000815260040160405180910390fd5b805f0160029054906101000a900460ff16156113a7576040517f0368368700000000000000000000000000000000000000000000000000000000815260040160405180910390fd5b805f0160039054906101000a900460ff16156113ef576040517f7c87a47200000000000000000000000000000000000000000000000000000000815260040160405180910390fd5b3373ffffffffffffffffffffffffffffffffffffffff16825f0160208101906114189190611fbe565b73ffffffffffffffffffffffffffffffffffffffff1614611465576040517f5c427cd900000000000000000000000000000000000000000000000000000000815260040160405180910390fd5b8160c001354210156114a3576040517ff8d10e8200000000000000000000000000000000000000000000000000000000815260040160405180910390fd5b5f6114ad83611a93565b90508381146114e8576040517fe523909000000000000000000000000000000000000000000000000000000000815260040160405180910390fd5b6001825f0160036101000a81548160ff021916908315150217905550815f0160049054906101000a900473ffffffffffffffffffffffffffffffffffffffff1673ffffffffffffffffffffffffffffffffffffffff1663ea8a1af06040518163ffffffff1660e01b81526004015f604051808303815f87803b15801561156c575f80fd5b505af115801561157e573d5f803e3d5ffd5b50505050815f0160019054906101000a900460ff161561161757816001015f9054906101000a900473ffffffffffffffffffffffffffffffffffffffff1673ffffffffffffffffffffffffffffffffffffffff1663590e1ae36040518163ffffffff1660e01b81526004015f604051808303815f87803b158015611600575f80fd5b505af1158015611612573d5f803e3d5ffd5b505050505b837f5152abf959f6564662358c2e52b702259b78bac5ee7842a0f01937e670efcc7d60405160405180910390a2505061164e611bdd565b5050565b61165a611a4d565b5f60025f8481526020019081526020015f209050805f015f9054906101000a900460ff166116b4576040517fd36d896500000000000000000000000000000000000000000000000000000000815260040160405180910390fd5b805f0160019054906101000a900460ff16156116fc576040517fee3b3d4b00000000000000000000000000000000000000000000000000000000815260040160405180910390fd5b805f0160039054906101000a900460ff1615611744576040517f7c87a47200000000000000000000000000000000000000000000000000000000815260040160405180910390fd5b8160c001354210611781576040517ff8d10e8200000000000000000000000000000000000000000000000000000000815260040160405180910390fd5b5f61178b83611a93565b90508381146117c6576040517fe523909000000000000000000000000000000000000000000000000000000000815260040160405180910390fd5b33826002015f6101000a81548173ffffffffffffffffffffffffffffffffffffffff021916908373ffffffffffffffffffffffffffffffffffffffff1602179055506001825f0160016101000a81548160ff021916908315150217905550815f0160049054906101000a900473ffffffffffffffffffffffffffffffffffffffff1673ffffffffffffffffffffffffffffffffffffffff166311fca4b7336040518263ffffffff1660e01b8152600401611880919061227d565b5f604051808303815f87803b158015611897575f80fd5b505af11580156118a9573d5f803e3d5ffd5b50505050816001015f9054906101000a900473ffffffffffffffffffffffffffffffffffffffff1673ffffffffffffffffffffffffffffffffffffffff1663a511c19585338660600160208101906119019190611fbe565b87608001358860a001358960c001358a5f0160208101906119229190611fbe565b6040518863ffffffff1660e01b81526004016119449796959493929190612b09565b5f604051808303815f87803b15801561195b575f80fd5b505af115801561196d573d5f803e3d5ffd5b505050503373ffffffffffffffffffffffffffffffffffffffff16847f0555709e59fb225fcf12cc582a9e5f7fd8eea54c91f3dc500ab9d8c37c50777060405160405180910390a350506119bf611bdd565b5050565b6119cb611be6565b5f73ffffffffffffffffffffffffffffffffffffffff168173ffffffffffffffffffffffffffffffffffffffff1603611a3b575f6040517f1e4fbdf7000000000000000000000000000000000000000000000000000000008152600401611a32919061227d565b60405180910390fd5b611a4481611c6d565b50565b610e1081565b600260015403611a89576040517f3ee5aeb500000000000000000000000000000000000000000000000000000000815260040160405180910390fd5b6002600181905550565b5f815f016020810190611aa69190611fbe565b826020016020810190611ab99190611fbe565b8360400135846060016020810190611ad19190611fbe565b85608001358660a001358760c001358860e00135896101000135604051602001611b0399989796959493929190612348565b604051602081830303815290604052805190602001209050919050565b5f805f8484604051602001611b36929190612a53565b6040516020818303038152906040528051906020012090505f8585604051602001611b62929190612ad3565b60405160208183030381529060405280519060200120905081604051611b8790611e9b565b8190604051809103905ff5905080158015611ba4573d5f803e3d5ffd5b50935080604051611bb490611ea8565b8190604051809103905ff5905080158015611bd1573d5f803e3d5ffd5b50925050509250929050565b60018081905550565b611bee611d42565b73ffffffffffffffffffffffffffffffffffffffff16611c0c611085565b73ffffffffffffffffffffffffffffffffffffffff1614611c6b57611c2f611d42565b6040517f118cdaa7000000000000000000000000000000000000000000000000000000008152600401611c62919061227d565b60405180910390fd5b565b5f805f9054906101000a900473ffffffffffffffffffffffffffffffffffffffff169050815f806101000a81548173ffffffffffffffffffffffffffffffffffffffff021916908373ffffffffffffffffffffffffffffffffffffffff1602179055508173ffffffffffffffffffffffffffffffffffffffff168173ffffffffffffffffffffffffffffffffffffffff167f8be0079c531659141344cd1fd0a4f28419497f9722a3daafe3b4186f6b6457e060405160405180910390a35050565b5f611d3a838330611d49565b905092915050565b5f33905090565b5f604051836040820152846020820152828152600b810160ff815373ffffffffffffffffffffffffffffffffffffffff6055822016925050509392505050565b6040518061010001604052805f151581526020015f151581526020015f151581526020015f151581526020015f73ffffffffffffffffffffffffffffffffffffffff1681526020015f73ffffffffffffffffffffffffffffffffffffffff1681526020015f73ffffffffffffffffffffffffffffffffffffffff1681526020015f81525090565b6040518061012001604052805f73ffffffffffffffffffffffffffffffffffffffff1681526020015f73ffffffffffffffffffffffffffffffffffffffff1681526020015f81526020015f73ffffffffffffffffffffffffffffffffffffffff1681526020015f81526020015f80191681526020015f81526020015f81526020015f80191681525090565b61161b80612b7783390190565b6115a78061419283390190565b5f80fd5b5f80fd5b5f6101208284031215611ed357611ed2611eb9565b5b81905092915050565b5f6101208284031215611ef257611ef1611eb5565b5b5f611eff84828501611ebd565b91505092915050565b5f819050919050565b611f1a81611f08565b82525050565b5f73ffffffffffffffffffffffffffffffffffffffff82169050919050565b5f611f4982611f20565b9050919050565b611f5981611f3f565b82525050565b5f606082019050611f725f830186611f11565b611f7f6020830185611f50565b611f8c6040830184611f50565b949350505050565b611f9d81611f3f565b8114611fa7575f80fd5b50565b5f81359050611fb881611f94565b92915050565b5f60208284031215611fd357611fd2611eb5565b5b5f611fe084828501611faa565b91505092915050565b5f819050919050565b611ffb81611fe9565b82525050565b5f6020820190506120145f830184611ff2565b92915050565b61202381611f08565b811461202d575f80fd5b50565b5f8135905061203e8161201a565b92915050565b5f6020828403121561205957612058611eb5565b5b5f61206684828501612030565b91505092915050565b5f8115159050919050565b6120838161206f565b82525050565b61209281611f3f565b82525050565b6120a181611fe9565b82525050565b61010082015f8201516120bc5f85018261207a565b5060208201516120cf602085018261207a565b5060408201516120e2604085018261207a565b5060608201516120f5606085018261207a565b5060808201516121086080850182612089565b5060a082015161211b60a0850182612089565b5060c082015161212e60c0850182612089565b5060e082015161214160e0850182612098565b50505050565b5f6101008201905061215b5f8301846120a7565b92915050565b61216a81611f08565b82525050565b61012082015f8201516121855f850182612089565b5060208201516121986020850182612089565b5060408201516121ab6040850182612098565b5060608201516121be6060850182612089565b5060808201516121d16080850182612098565b5060a08201516121e460a0850182612161565b5060c08201516121f760c0850182612098565b5060e082015161220a60e0850182612098565b5061010082015161221f610100850182612161565b50505050565b5f610120820190506122395f830184612170565b92915050565b5f806040838503121561225557612254611eb5565b5b5f61226285828601612030565b925050602061227385828601612030565b9150509250929050565b5f6020820190506122905f830184611f50565b92915050565b5f6040820190506122a95f830185611f50565b6122b66020830184611f50565b9392505050565b6122c68161206f565b82525050565b5f610100820190506122e05f83018b6122bd565b6122ed602083018a6122bd565b6122fa60408301896122bd565b61230760608301886122bd565b6123146080830187611f50565b61232160a0830186611f50565b61232e60c0830185611f50565b61233b60e0830184611ff2565b9998505050505050505050565b5f6101208201905061235c5f83018c611f50565b612369602083018b611f50565b612376604083018a611ff2565b6123836060830189611f50565b6123906080830188611ff2565b61239d60a0830187611f11565b6123aa60c0830186611ff2565b6123b760e0830185611ff2565b6123c5610100830184611f11565b9a9950505050505050505050565b5f8061014083850312156123ea576123e9611eb5565b5b5f6123f785828601612030565b925050602061240885828601611ebd565b9150509250929050565b7f4e487b71000000000000000000000000000000000000000000000000000000005f52601160045260245ffd5b5f61244982611fe9565b915061245483611fe9565b925082820190508082111561246c5761246b612412565b5b92915050565b5f60c0820190506124855f830189611f11565b6124926020830188611f50565b61249f6040830187611f50565b6124ac6060830186611ff2565b6124b96080830185611f11565b6124c660a0830184611ff2565b979650505050505050565b5f81356124dd81611f94565b80915050919050565b5f815f1b9050919050565b5f73ffffffffffffffffffffffffffffffffffffffff612510846124e6565b9350801983169250808416831791505092915050565b5f819050919050565b5f61254961254461253f84611f20565b612526565b611f20565b9050919050565b5f61255a8261252f565b9050919050565b5f61256b82612550565b9050919050565b5f819050919050565b61258482612561565b61259761259082612572565b83546124f1565b8255505050565b6125a781611fe9565b81146125b1575f80fd5b50565b5f81356125c08161259e565b80915050919050565b5f7fffffffffffffffffffffffffffffffffffffffffffffffffffffffffffffffff6125f4846124e6565b9350801983169250808416831791505092915050565b5f61262461261f61261a84611fe9565b612526565b611fe9565b9050919050565b5f819050919050565b61263d8261260a565b6126506126498261262b565b83546125c9565b8255505050565b5f81356126638161201a565b80915050919050565b5f61267682611f08565b9050919050565b5f815f1c9050919050565b5f6126928261267d565b9050919050565b6126a28261266c565b6126b56126ae82612688565b83546125c9565b8255505050565b5f81015f8301806126cc816124d1565b90506126d8818461257b565b5050506001810160208301806126ed816124d1565b90506126f9818461257b565b50505060028101604083018061270e816125b4565b905061271a8184612634565b50505060038101606083018061272f816124d1565b905061273b818461257b565b505050600481016080830180612750816125b4565b905061275c8184612634565b5050506005810160a083018061277181612657565b905061277d8184612699565b5050506006810160c0830180612792816125b4565b905061279e8184612634565b5050506007810160e08301806127b3816125b4565b90506127bf8184612634565b505050600881016101008301806127d581612657565b90506127e18184612699565b5050505050565b6127f282826126bc565b5050565b5f61280082611fe9565b91507fffffffffffffffffffffffffffffffffffffffffffffffffffffffffffffffff820361283257612831612412565b5b600182019050919050565b5f61284b6020840184611faa565b905092915050565b5f813590506128618161259e565b92915050565b5f6128756020840184612853565b905092915050565b5f61288b6020840184612030565b905092915050565b61012082016128a45f83018361283d565b6128b05f850182612089565b506128be602083018361283d565b6128cb6020850182612089565b506128d96040830183612867565b6128e66040850182612098565b506128f4606083018361283d565b6129016060850182612089565b5061290f6080830183612867565b61291c6080850182612098565b5061292a60a083018361287d565b61293760a0850182612161565b5061294560c0830183612867565b61295260c0850182612098565b5061296060e0830183612867565b61296d60e0850182612098565b5061297c61010083018361287d565b61298a610100850182612161565b50505050565b5f610160820190506129a45f830186611f50565b6129b16020830185611f50565b6129be6040830184612893565b949350505050565b5f6020820190506129d95f830184611f11565b92915050565b5f819050919050565b6129f96129f482611f08565b6129df565b82525050565b5f81905092915050565b7f6d616b65720000000000000000000000000000000000000000000000000000005f82015250565b5f612a3d6005836129ff565b9150612a4882612a09565b600582019050919050565b5f612a5e82856129e8565b602082019150612a6e82846129e8565b602082019150612a7d82612a31565b91508190509392505050565b7f74616b65720000000000000000000000000000000000000000000000000000005f82015250565b5f612abd6005836129ff565b9150612ac882612a89565b600582019050919050565b5f612ade82856129e8565b602082019150612aee82846129e8565b602082019150612afd82612ab1565b91508190509392505050565b5f60e082019050612b1c5f83018a611f11565b612b296020830189611f50565b612b366040830188611f50565b612b436060830187611ff2565b612b506080830186611f11565b612b5d60a0830185611ff2565b612b6a60c0830184611f50565b9897505050505050505056fe60a060405234801561000f575f80fd5b5060015f819055503373ffffffffffffffffffffffffffffffffffffffff1660808173ffffffffffffffffffffffffffffffffffffffff16815250506080516115a36100785f395f818161016a0152818161018e0152818161037d01526106df01526115a35ff3fe608060405234801561000f575f80fd5b5060043610610086575f3560e01c8063ba253b4d11610059578063ba253b4d14610106578063cd50cb2c14610124578063ea8a1af014610140578063f6bbc25d1461014a57610086565b806304f3bcec1461008a57806311fca4b7146100a8578063229e81fb146100c45780636facd1c0146100ea575b5f80fd5b610092610168565b60405161009f919061114b565b60405180910390f35b6100c260048036038101906100bd9190611192565b61018c565b005b6100cc610258565b6040516100e199989796959493929190611207565b60405180910390f35b61010460048036038101906100ff91906112bc565b610317565b005b61010e6106d7565b60405161011b91906112e7565b60405180910390f35b61013e6004803603810190610139919061132a565b6106dd565b005b610148610a56565b005b610152610d0d565b60405161015f91906114a4565b60405180910390f35b7f000000000000000000000000000000000000000000000000000000000000000081565b7f000000000000000000000000000000000000000000000000000000000000000073ffffffffffffffffffffffffffffffffffffffff163373ffffffffffffffffffffffffffffffffffffffff1614610211576040517f5c427cd900000000000000000000000000000000000000000000000000000000815260040160405180910390fd5b80600160050160036101000a81548173ffffffffffffffffffffffffffffffffffffffff021916908373ffffffffffffffffffffffffffffffffffffffff16021790555050565b6001805f015f9054906101000a900473ffffffffffffffffffffffffffffffffffffffff1690806001015f9054906101000a900473ffffffffffffffffffffffffffffffffffffffff1690806002015490806003015490806004015490806005015f9054906101000a900460ff16908060050160019054906101000a900460ff16908060050160029054906101000a900460ff16908060050160039054906101000a900473ffffffffffffffffffffffffffffffffffffffff16905089565b61031f610e95565b600160050160039054906101000a900473ffffffffffffffffffffffffffffffffffffffff1673ffffffffffffffffffffffffffffffffffffffff163373ffffffffffffffffffffffffffffffffffffffff16141580156103cc57507f000000000000000000000000000000000000000000000000000000000000000073ffffffffffffffffffffffffffffffffffffffff163373ffffffffffffffffffffffffffffffffffffffff1614155b15610403576040517f5c427cd900000000000000000000000000000000000000000000000000000000815260040160405180910390fd5b5f73ffffffffffffffffffffffffffffffffffffffff1660015f015f9054906101000a900473ffffffffffffffffffffffffffffffffffffffff1673ffffffffffffffffffffffffffffffffffffffff160361048b576040517f453ffb6000000000000000000000000000000000000000000000000000000000815260040160405180910390fd5b600160050160019054906101000a900460ff16156104d5576040517f0368368700000000000000000000000000000000000000000000000000000000815260040160405180910390fd5b600160050160029054906101000a900460ff161561051f576040517f7c87a47200000000000000000000000000000000000000000000000000000000815260040160405180910390fd5b6001600301548160405160200161053691906114de565b6040516020818303038152906040528051906020012014610583576040517fabab6bd700000000000000000000000000000000000000000000000000000000815260040160405180910390fd5b60016004015442106105c1576040517fc56873ba00000000000000000000000000000000000000000000000000000000815260040160405180910390fd5b60018060050160016101000a81548160ff021916908315150217905550610656600160050160039054906101000a900473ffffffffffffffffffffffffffffffffffffffff16600160020154600180015f9054906101000a900473ffffffffffffffffffffffffffffffffffffffff1673ffffffffffffffffffffffffffffffffffffffff16610ed99092919063ffffffff16565b600160050160039054906101000a900473ffffffffffffffffffffffffffffffffffffffff1673ffffffffffffffffffffffffffffffffffffffff166007547fce4c2fd8eceffa201b1ad710862a2b4364adbf66b5eb1aad9dabd210c9c34e9a836040516106c491906112e7565b60405180910390a36106d4610f58565b50565b60075481565b7f000000000000000000000000000000000000000000000000000000000000000073ffffffffffffffffffffffffffffffffffffffff163373ffffffffffffffffffffffffffffffffffffffff1614610762576040517f5c427cd900000000000000000000000000000000000000000000000000000000815260040160405180910390fd5b5f73ffffffffffffffffffffffffffffffffffffffff1660015f015f9054906101000a900473ffffffffffffffffffffffffffffffffffffffff1673ffffffffffffffffffffffffffffffffffffffff16146107ea576040517f0368368700000000000000000000000000000000000000000000000000000000815260040160405180910390fd5b856007819055506040518061012001604052808673ffffffffffffffffffffffffffffffffffffffff1681526020018573ffffffffffffffffffffffffffffffffffffffff1681526020018481526020018381526020018281526020015f151581526020015f151581526020015f151581526020015f73ffffffffffffffffffffffffffffffffffffffff1681525060015f820151815f015f6101000a81548173ffffffffffffffffffffffffffffffffffffffff021916908373ffffffffffffffffffffffffffffffffffffffff1602179055506020820151816001015f6101000a81548173ffffffffffffffffffffffffffffffffffffffff021916908373ffffffffffffffffffffffffffffffffffffffff16021790555060408201518160020155606082015181600301556080820151816004015560a0820151816005015f6101000a81548160ff02191690831515021790555060c08201518160050160016101000a81548160ff02191690831515021790555060e08201518160050160026101000a81548160ff0219169083151502179055506101008201518160050160036101000a81548173ffffffffffffffffffffffffffffffffffffffff021916908373ffffffffffffffffffffffffffffffffffffffff1602179055509050506109fa8530858773ffffffffffffffffffffffffffffffffffffffff16610f61909392919063ffffffff16565b6001806005015f6101000a81548160ff021916908315150217905550857f7ec6f5437727983c2c8e856756f28463fe5eb23d39ec07353c9c6529228f8a2984604051610a4691906114f8565b60405180910390a2505050505050565b60015f015f9054906101000a900473ffffffffffffffffffffffffffffffffffffffff1673ffffffffffffffffffffffffffffffffffffffff163373ffffffffffffffffffffffffffffffffffffffff1614610ade576040517f5c427cd900000000000000000000000000000000000000000000000000000000815260040160405180910390fd5b610ae6610e95565b5f73ffffffffffffffffffffffffffffffffffffffff1660015f015f9054906101000a900473ffffffffffffffffffffffffffffffffffffffff1673ffffffffffffffffffffffffffffffffffffffff1603610b6e576040517f453ffb6000000000000000000000000000000000000000000000000000000000815260040160405180910390fd5b600160050160019054906101000a900460ff1615610bb8576040517f0368368700000000000000000000000000000000000000000000000000000000815260040160405180910390fd5b600160050160029054906101000a900460ff1615610c02576040517f7c87a47200000000000000000000000000000000000000000000000000000000815260040160405180910390fd5b600160040154421015610c41576040517f796c85f300000000000000000000000000000000000000000000000000000000815260040160405180910390fd5b60018060050160026101000a81548160ff021916908315150217905550610cd460015f015f9054906101000a900473ffffffffffffffffffffffffffffffffffffffff16600160020154600180015f9054906101000a900473ffffffffffffffffffffffffffffffffffffffff1673ffffffffffffffffffffffffffffffffffffffff16610ed99092919063ffffffff16565b6007547f5152abf959f6564662358c2e52b702259b78bac5ee7842a0f01937e670efcc7d60405160405180910390a2610d0b610f58565b565b610d1561107e565b6001604051806101200160405290815f82015f9054906101000a900473ffffffffffffffffffffffffffffffffffffffff1673ffffffffffffffffffffffffffffffffffffffff1673ffffffffffffffffffffffffffffffffffffffff168152602001600182015f9054906101000a900473ffffffffffffffffffffffffffffffffffffffff1673ffffffffffffffffffffffffffffffffffffffff1673ffffffffffffffffffffffffffffffffffffffff168152602001600282015481526020016003820154815260200160048201548152602001600582015f9054906101000a900460ff161515151581526020016005820160019054906101000a900460ff161515151581526020016005820160029054906101000a900460ff161515151581526020016005820160039054906101000a900473ffffffffffffffffffffffffffffffffffffffff1673ffffffffffffffffffffffffffffffffffffffff1673ffffffffffffffffffffffffffffffffffffffff1681525050905090565b60025f5403610ed0576040517f3ee5aeb500000000000000000000000000000000000000000000000000000000815260040160405180910390fd5b60025f81905550565b610f53838473ffffffffffffffffffffffffffffffffffffffff1663a9059cbb8585604051602401610f0c929190611511565b604051602081830303815290604052915060e01b6020820180517bffffffffffffffffffffffffffffffffffffffffffffffffffffffff8381831617835250505050610fe3565b505050565b60015f81905550565b610fdd848573ffffffffffffffffffffffffffffffffffffffff166323b872dd868686604051602401610f9693929190611538565b604051602081830303815290604052915060e01b6020820180517bffffffffffffffffffffffffffffffffffffffffffffffffffffffff8381831617835250505050610fe3565b50505050565b5f8060205f8451602086015f885af180611002576040513d5f823e3d81fd5b3d92505f519150505f821461101b576001811415611036565b5f8473ffffffffffffffffffffffffffffffffffffffff163b145b1561107857836040517f5274afe700000000000000000000000000000000000000000000000000000000815260040161106f919061114b565b60405180910390fd5b50505050565b6040518061012001604052805f73ffffffffffffffffffffffffffffffffffffffff1681526020015f73ffffffffffffffffffffffffffffffffffffffff1681526020015f81526020015f80191681526020015f81526020015f151581526020015f151581526020015f151581526020015f73ffffffffffffffffffffffffffffffffffffffff1681525090565b5f73ffffffffffffffffffffffffffffffffffffffff82169050919050565b5f6111358261110c565b9050919050565b6111458161112b565b82525050565b5f60208201905061115e5f83018461113c565b92915050565b5f80fd5b6111718161112b565b811461117b575f80fd5b50565b5f8135905061118c81611168565b92915050565b5f602082840312156111a7576111a6611164565b5b5f6111b48482850161117e565b91505092915050565b5f819050919050565b6111cf816111bd565b82525050565b5f819050919050565b6111e7816111d5565b82525050565b5f8115159050919050565b611201816111ed565b82525050565b5f6101208201905061121b5f83018c61113c565b611228602083018b61113c565b611235604083018a6111c6565b61124260608301896111de565b61124f60808301886111c6565b61125c60a08301876111f8565b61126960c08301866111f8565b61127660e08301856111f8565b61128461010083018461113c565b9a9950505050505050505050565b61129b816111d5565b81146112a5575f80fd5b50565b5f813590506112b681611292565b92915050565b5f602082840312156112d1576112d0611164565b5b5f6112de848285016112a8565b91505092915050565b5f6020820190506112fa5f8301846111de565b92915050565b611309816111bd565b8114611313575f80fd5b50565b5f8135905061132481611300565b92915050565b5f805f805f8060c0878903121561134457611343611164565b5b5f61135189828a016112a8565b965050602061136289828a0161117e565b955050604061137389828a0161117e565b945050606061138489828a01611316565b935050608061139589828a016112a8565b92505060a06113a689828a01611316565b9150509295509295509295565b6113bc8161112b565b82525050565b6113cb816111bd565b82525050565b6113da816111d5565b82525050565b6113e9816111ed565b82525050565b61012082015f8201516114045f8501826113b3565b50602082015161141760208501826113b3565b50604082015161142a60408501826113c2565b50606082015161143d60608501826113d1565b50608082015161145060808501826113c2565b5060a082015161146360a08501826113e0565b5060c082015161147660c08501826113e0565b5060e082015161148960e08501826113e0565b5061010082015161149e6101008501826113b3565b50505050565b5f610120820190506114b85f8301846113ef565b92915050565b5f819050919050565b6114d86114d3826111d5565b6114be565b82525050565b5f6114e982846114c7565b60208201915081905092915050565b5f60208201905061150b5f8301846111c6565b92915050565b5f6040820190506115245f83018561113c565b61153160208301846111c6565b9392505050565b5f60608201905061154b5f83018661113c565b611558602083018561113c565b61156560408301846111c6565b94935050505056fea264697066735822122029c6c384a7f568ea090dbf94a73f594b56617d6bc7ae64f22298a4d03c6b7d6264736f6c6343000817003360a060405234801561000f575f80fd5b5060015f819055503373ffffffffffffffffffffffffffffffffffffffff1660808173ffffffffffffffffffffffffffffffffffffffff16815250506080516115366100715f395f818161016c0152818161057001526108cc01526115365ff3fe608060405234801561000f575f80fd5b5060043610610086575f3560e01c80636facd1c0116100595780636facd1c0146100f6578063a511c19514610112578063ba253b4d1461012e578063f6bbc25d1461014c57610086565b806304f3bcec1461008a5780630a73faf3146100a8578063229e81fb146100c6578063590e1ae3146100ec575b5f80fd5b61009261016a565b60405161009f9190611095565b60405180910390f35b6100b061018e565b6040516100bd91906110c6565b60405180910390f35b6100ce610194565b6040516100e399989796959493929190611111565b60405180910390f35b6100f4610253565b005b610110600480360381019061010b91906111ca565b61050a565b005b61012c60048036038101906101279190611249565b6108ca565b005b610136610c51565b60405161014391906112e6565b60405180910390f35b610154610c57565b60405161016191906113f0565b60405180910390f35b7f000000000000000000000000000000000000000000000000000000000000000081565b61070881565b6001805f015f9054906101000a900473ffffffffffffffffffffffffffffffffffffffff1690806001015f9054906101000a900473ffffffffffffffffffffffffffffffffffffffff1690806002015490806003015490806004015490806005015f9054906101000a900460ff16908060050160019054906101000a900460ff16908060050160029054906101000a900460ff16908060050160039054906101000a900473ffffffffffffffffffffffffffffffffffffffff16905089565b60015f015f9054906101000a900473ffffffffffffffffffffffffffffffffffffffff1673ffffffffffffffffffffffffffffffffffffffff163373ffffffffffffffffffffffffffffffffffffffff16146102db576040517f5c427cd900000000000000000000000000000000000000000000000000000000815260040160405180910390fd5b6102e3610ddf565b5f73ffffffffffffffffffffffffffffffffffffffff1660015f015f9054906101000a900473ffffffffffffffffffffffffffffffffffffffff1673ffffffffffffffffffffffffffffffffffffffff160361036b576040517f453ffb6000000000000000000000000000000000000000000000000000000000815260040160405180910390fd5b600160050160019054906101000a900460ff16156103b5576040517f0368368700000000000000000000000000000000000000000000000000000000815260040160405180910390fd5b600160050160029054906101000a900460ff16156103ff576040517f7c87a47200000000000000000000000000000000000000000000000000000000815260040160405180910390fd5b60016004015442101561043e576040517f796c85f300000000000000000000000000000000000000000000000000000000815260040160405180910390fd5b60018060050160026101000a81548160ff0219169083151502179055506104d160015f015f9054906101000a900473ffffffffffffffffffffffffffffffffffffffff16600160020154600180015f9054906101000a900473ffffffffffffffffffffffffffffffffffffffff1673ffffffffffffffffffffffffffffffffffffffff16610e239092919063ffffffff16565b6007547f54cf119498426b17166b2137abca4bd1847ba18e091ac51d965c0ba843e04ff760405160405180910390a2610508610ea2565b565b610512610ddf565b600160050160039054906101000a900473ffffffffffffffffffffffffffffffffffffffff1673ffffffffffffffffffffffffffffffffffffffff163373ffffffffffffffffffffffffffffffffffffffff16141580156105bf57507f000000000000000000000000000000000000000000000000000000000000000073ffffffffffffffffffffffffffffffffffffffff163373ffffffffffffffffffffffffffffffffffffffff1614155b156105f6576040517f5c427cd900000000000000000000000000000000000000000000000000000000815260040160405180910390fd5b5f73ffffffffffffffffffffffffffffffffffffffff1660015f015f9054906101000a900473ffffffffffffffffffffffffffffffffffffffff1673ffffffffffffffffffffffffffffffffffffffff160361067e576040517f453ffb6000000000000000000000000000000000000000000000000000000000815260040160405180910390fd5b600160050160019054906101000a900460ff16156106c8576040517f0368368700000000000000000000000000000000000000000000000000000000815260040160405180910390fd5b600160050160029054906101000a900460ff1615610712576040517f7c87a47200000000000000000000000000000000000000000000000000000000815260040160405180910390fd5b60016003015481604051602001610729919061142a565b6040516020818303038152906040528051906020012014610776576040517fabab6bd700000000000000000000000000000000000000000000000000000000815260040160405180910390fd5b60016004015442106107b4576040517fc56873ba00000000000000000000000000000000000000000000000000000000815260040160405180910390fd5b60018060050160016101000a81548160ff021916908315150217905550610849600160050160039054906101000a900473ffffffffffffffffffffffffffffffffffffffff16600160020154600180015f9054906101000a900473ffffffffffffffffffffffffffffffffffffffff1673ffffffffffffffffffffffffffffffffffffffff16610e239092919063ffffffff16565b600160050160039054906101000a900473ffffffffffffffffffffffffffffffffffffffff1673ffffffffffffffffffffffffffffffffffffffff166007547fce4c2fd8eceffa201b1ad710862a2b4364adbf66b5eb1aad9dabd210c9c34e9a836040516108b791906112e6565b60405180910390a36108c7610ea2565b50565b7f000000000000000000000000000000000000000000000000000000000000000073ffffffffffffffffffffffffffffffffffffffff163373ffffffffffffffffffffffffffffffffffffffff161461094f576040517f5c427cd900000000000000000000000000000000000000000000000000000000815260040160405180910390fd5b5f73ffffffffffffffffffffffffffffffffffffffff1660015f015f9054906101000a900473ffffffffffffffffffffffffffffffffffffffff1673ffffffffffffffffffffffffffffffffffffffff16146109d7576040517f0368368700000000000000000000000000000000000000000000000000000000815260040160405180910390fd5b866007819055506040518061012001604052808773ffffffffffffffffffffffffffffffffffffffff1681526020018673ffffffffffffffffffffffffffffffffffffffff16815260200185815260200184815260200161070884610a3c9190611471565b81526020015f151581526020015f151581526020015f151581526020018273ffffffffffffffffffffffffffffffffffffffff1681525060015f820151815f015f6101000a81548173ffffffffffffffffffffffffffffffffffffffff021916908373ffffffffffffffffffffffffffffffffffffffff1602179055506020820151816001015f6101000a81548173ffffffffffffffffffffffffffffffffffffffff021916908373ffffffffffffffffffffffffffffffffffffffff16021790555060408201518160020155606082015181600301556080820151816004015560a0820151816005015f6101000a81548160ff02191690831515021790555060c08201518160050160016101000a81548160ff02191690831515021790555060e08201518160050160026101000a81548160ff0219169083151502179055506101008201518160050160036101000a81548173ffffffffffffffffffffffffffffffffffffffff021916908373ffffffffffffffffffffffffffffffffffffffff160217905550905050610bf48630868873ffffffffffffffffffffffffffffffffffffffff16610eab909392919063ffffffff16565b6001806005015f6101000a81548160ff021916908315150217905550867f224ec8d6443407a8529637fa2b4e5e9ad882ede9d1eb6578bc301cf268e9e86f85604051610c4091906110c6565b60405180910390a250505050505050565b60075481565b610c5f610fc8565b6001604051806101200160405290815f82015f9054906101000a900473ffffffffffffffffffffffffffffffffffffffff1673ffffffffffffffffffffffffffffffffffffffff1673ffffffffffffffffffffffffffffffffffffffff168152602001600182015f9054906101000a900473ffffffffffffffffffffffffffffffffffffffff1673ffffffffffffffffffffffffffffffffffffffff1673ffffffffffffffffffffffffffffffffffffffff168152602001600282015481526020016003820154815260200160048201548152602001600582015f9054906101000a900460ff161515151581526020016005820160019054906101000a900460ff161515151581526020016005820160029054906101000a900460ff161515151581526020016005820160039054906101000a900473ffffffffffffffffffffffffffffffffffffffff1673ffffffffffffffffffffffffffffffffffffffff1673ffffffffffffffffffffffffffffffffffffffff1681525050905090565b60025f5403610e1a576040517f3ee5aeb500000000000000000000000000000000000000000000000000000000815260040160405180910390fd5b60025f81905550565b610e9d838473ffffffffffffffffffffffffffffffffffffffff1663a9059cbb8585604051602401610e569291906114a4565b604051602081830303815290604052915060e01b6020820180517bffffffffffffffffffffffffffffffffffffffffffffffffffffffff8381831617835250505050610f2d565b505050565b60015f81905550565b610f27848573ffffffffffffffffffffffffffffffffffffffff166323b872dd868686604051602401610ee0939291906114cb565b604051602081830303815290604052915060e01b6020820180517bffffffffffffffffffffffffffffffffffffffffffffffffffffffff8381831617835250505050610f2d565b50505050565b5f8060205f8451602086015f885af180610f4c576040513d5f823e3d81fd5b3d92505f519150505f8214610f65576001811415610f80565b5f8473ffffffffffffffffffffffffffffffffffffffff163b145b15610fc257836040517f5274afe7000000000000000000000000000000000000000000000000000000008152600401610fb99190611095565b60405180910390fd5b50505050565b6040518061012001604052805f73ffffffffffffffffffffffffffffffffffffffff1681526020015f73ffffffffffffffffffffffffffffffffffffffff1681526020015f81526020015f80191681526020015f81526020015f151581526020015f151581526020015f151581526020015f73ffffffffffffffffffffffffffffffffffffffff1681525090565b5f73ffffffffffffffffffffffffffffffffffffffff82169050919050565b5f61107f82611056565b9050919050565b61108f81611075565b82525050565b5f6020820190506110a85f830184611086565b92915050565b5f819050919050565b6110c0816110ae565b82525050565b5f6020820190506110d95f8301846110b7565b92915050565b5f819050919050565b6110f1816110df565b82525050565b5f8115159050919050565b61110b816110f7565b82525050565b5f610120820190506111255f83018c611086565b611132602083018b611086565b61113f604083018a6110b7565b61114c60608301896110e8565b61115960808301886110b7565b61116660a0830187611102565b61117360c0830186611102565b61118060e0830185611102565b61118e610100830184611086565b9a9950505050505050505050565b5f80fd5b6111a9816110df565b81146111b3575f80fd5b50565b5f813590506111c4816111a0565b92915050565b5f602082840312156111df576111de61119c565b5b5f6111ec848285016111b6565b91505092915050565b6111fe81611075565b8114611208575f80fd5b50565b5f81359050611219816111f5565b92915050565b611228816110ae565b8114611232575f80fd5b50565b5f813590506112438161121f565b92915050565b5f805f805f805f60e0888a0312156112645761126361119c565b5b5f6112718a828b016111b6565b97505060206112828a828b0161120b565b96505060406112938a828b0161120b565b95505060606112a48a828b01611235565b94505060806112b58a828b016111b6565b93505060a06112c68a828b01611235565b92505060c06112d78a828b0161120b565b91505092959891949750929550565b5f6020820190506112f95f8301846110e8565b92915050565b61130881611075565b82525050565b611317816110ae565b82525050565b611326816110df565b82525050565b611335816110f7565b82525050565b61012082015f8201516113505f8501826112ff565b50602082015161136360208501826112ff565b506040820151611376604085018261130e565b506060820151611389606085018261131d565b50608082015161139c608085018261130e565b5060a08201516113af60a085018261132c565b5060c08201516113c260c085018261132c565b5060e08201516113d560e085018261132c565b506101008201516113ea6101008501826112ff565b50505050565b5f610120820190506114045f83018461133b565b92915050565b5f819050919050565b61142461141f826110df565b61140a565b82525050565b5f6114358284611413565b60208201915081905092915050565b7f4e487b71000000000000000000000000000000000000000000000000000000005f52601160045260245ffd5b5f61147b826110ae565b9150611486836110ae565b925082820390508181111561149e5761149d611444565b5b92915050565b5f6040820190506114b75f830185611086565b6114c460208301846110b7565b9392505050565b5f6060820190506114de5f830186611086565b6114eb6020830185611086565b6114f860408301846110b7565b94935050505056fea2646970667358221220588338c39a650cfe360c7e7bed437b6f2fb59b8f89847ab4a9f94a19820c091064736f6c63430008170033a2646970667358221220ed5fc71dc7bb200f189f009114587bcbb0410b3fdada44b8891ebb8b325adf0464736f6c63430008170033",
			"opcodes": "PUSH1 0xA0 PUSH1 0x40 MSTORE CALLVALUE DUP1 ISZERO PUSH3 0x10 JUMPI PUSH0 DUP1 REVERT JUMPDEST POP PUSH1 0x40 MLOAD PUSH3 0x5A30 CODESIZE SUB DUP1 PUSH3 0x5A30 DUP4 CODECOPY DUP2 DUP2 ADD PUSH1 0x40 MSTORE DUP2 ADD SWAP1 PUSH3 0x36 SWAP2 SWAP1 PUSH3 0x231 JUMP JUMPDEST DUP2 PUSH0 PUSH20 0xFFFFFFFFFFFFFFFFFFFFFFFFFFFFFFFFFFFFFFFF AND DUP2 PUSH20 0xFFFFFFFFFFFFFFFFFFFFFFFFFFFFFFFFFFFFFFFF AND SUB PUSH3 0xAA JUMPI PUSH0 PUSH1 0x40 MLOAD PUSH32 0x1E4FBDF700000000000000000000000000000000000000000000000000000000 DUP2 MSTORE PUSH1 0x4 ADD PUSH3 0xA1 SWAP2 SWAP1 PUSH3 0x287 JUMP JUMPDEST PUSH1 0x40 MLOAD DUP1 SWAP2 SUB SWAP1 REVERT JUMPDEST PUSH3 0xBB DUP2 PUSH3 0xD3 PUSH1 0x20 SHL PUSH1 0x20 SHR JUMP JUMPDEST POP PUSH1 0x1 DUP1 DUP2 SWAP1 SSTORE POP DUP1 PUSH1 0x80 DUP2 DUP2 MSTORE POP POP POP POP PUSH3 0x2A2 JUMP JUMPDEST PUSH0 DUP1 PUSH0 SWAP1 SLOAD SWAP1 PUSH2 0x100 EXP SWAP1 DIV PUSH20 0xFFFFFFFFFFFFFFFFFFFFFFFFFFFFFFFFFFFFFFFF AND SWAP1 POP DUP2 PUSH0 DUP1 PUSH2 0x100 EXP DUP2 SLOAD DUP2 PUSH20 0xFFFFFFFFFFFFFFFFFFFFFFFFFFFFFFFFFFFFFFFF MUL NOT AND SWAP1 DUP4 PUSH20 0xFFFFFFFFFFFFFFFFFFFFFFFFFFFFFFFFFFFFFFFF AND MUL OR SWAP1 SSTORE POP DUP2 PUSH20 0xFFFFFFFFFFFFFFFFFFFFFFFFFFFFFFFFFFFFFFFF AND DUP2 PUSH20 0xFFFFFFFFFFFFFFFFFFFFFFFFFFFFFFFFFFFFFFFF AND PUSH32 0x8BE0079C531659141344CD1FD0A4F28419497F9722A3DAAFE3B4186F6B6457E0 PUSH1 0x40 MLOAD PUSH1 0x40 MLOAD DUP1 SWAP2 SUB SWAP1 LOG3 POP POP JUMP JUMPDEST PUSH0 DUP1 REVERT JUMPDEST PUSH0 PUSH20 0xFFFFFFFFFFFFFFFFFFFFFFFFFFFFFFFFFFFFFFFF DUP3 AND SWAP1 POP SWAP2 SWAP1 POP JUMP JUMPDEST PUSH0 PUSH3 0x1C3 DUP3 PUSH3 0x198 JUMP JUMPDEST SWAP1 POP SWAP2 SWAP1 POP JUMP JUMPDEST PUSH3 0x1D5 DUP2 PUSH3 0x1B7 JUMP JUMPDEST DUP2 EQ PUSH3 0x1E0 JUMPI PUSH0 DUP1 REVERT JUMPDEST POP JUMP JUMPDEST PUSH0 DUP2 MLOAD SWAP1 POP PUSH3 0x1F3 DUP2 PUSH3 0x1CA JUMP JUMPDEST SWAP3 SWAP2 POP POP JUMP JUMPDEST PUSH0 DUP2 SWAP1 POP SWAP2 SWAP1 POP JUMP JUMPDEST PUSH3 0x20D DUP2 PUSH3 0x1F9 JUMP JUMPDEST DUP2 EQ PUSH3 0x218 JUMPI PUSH0 DUP1 REVERT JUMPDEST POP JUMP JUMPDEST PUSH0 DUP2 MLOAD SWAP1 POP PUSH3 0x22B DUP2 PUSH3 0x202 JUMP JUMPDEST SWAP3 SWAP2 POP POP JUMP JUMPDEST PUSH0 DUP1 PUSH1 0x40 DUP4 DUP6 SUB SLT ISZERO PUSH3 0x24A JUMPI PUSH3 0x249 PUSH3 0x194 JUMP JUMPDEST JUMPDEST PUSH0 PUSH3 0x259 DUP6 DUP3 DUP7 ADD PUSH3 0x1E3 JUMP JUMPDEST SWAP3 POP POP PUSH1 0x20 PUSH3 0x26C DUP6 DUP3 DUP7 ADD PUSH3 0x21B JUMP JUMPDEST SWAP2 POP POP SWAP3 POP SWAP3 SWAP1 POP JUMP JUMPDEST PUSH3 0x281 DUP2 PUSH3 0x1B7 JUMP JUMPDEST DUP3 MSTORE POP POP JUMP JUMPDEST PUSH0 PUSH1 0x20 DUP3 ADD SWAP1 POP PUSH3 0x29C PUSH0 DUP4 ADD DUP5 PUSH3 0x276 JUMP JUMPDEST SWAP3 SWAP2 POP POP JUMP JUMPDEST PUSH1 0x80 MLOAD PUSH2 0x576E PUSH3 0x2C2 PUSH0 CODECOPY PUSH0 DUP2 DUP2 PUSH2 0x3F7 ADD MSTORE PUSH2 0xBE8 ADD MSTORE PUSH2 0x576E PUSH0 RETURN INVALID PUSH1 0x80 PUSH1 0x40 MSTORE PUSH1 0x4 CALLDATASIZE LT PUSH2 0xF2 JUMPI PUSH0 CALLDATALOAD PUSH1 0xE0 SHR DUP1 PUSH4 0x8DA5CB5B GT PUSH2 0x89 JUMPI DUP1 PUSH4 0xDAE80AB8 GT PUSH2 0x58 JUMPI DUP1 PUSH4 0xDAE80AB8 EQ PUSH2 0x348 JUMPI DUP1 PUSH4 0xDB24FBB4 EQ PUSH2 0x370 JUMPI DUP1 PUSH4 0xF2FDE38B EQ PUSH2 0x398 JUMPI DUP1 PUSH4 0xFB0C7549 EQ PUSH2 0x3C0 JUMPI PUSH2 0xF2 JUMP JUMPDEST DUP1 PUSH4 0x8DA5CB5B EQ PUSH2 0x25A JUMPI DUP1 PUSH4 0x9016C4EF EQ PUSH2 0x284 JUMPI DUP1 PUSH4 0x9C3F1E90 EQ PUSH2 0x2C1 JUMPI DUP1 PUSH4 0xA3C50B32 EQ PUSH2 0x304 JUMPI PUSH2 0xF2 JUMP JUMPDEST DUP1 PUSH4 0x49A2104D GT PUSH2 0xC5 JUMPI DUP1 PUSH4 0x49A2104D EQ PUSH2 0x1B6 JUMPI DUP1 PUSH4 0x5778472A EQ PUSH2 0x1E0 JUMPI DUP1 PUSH4 0x715018A6 EQ PUSH2 0x21C JUMPI DUP1 PUSH4 0x78DC3356 EQ PUSH2 0x232 JUMPI PUSH2 0xF2 JUMP JUMPDEST DUP1 PUSH4 0x2372A880 EQ PUSH2 0xF6 JUMPI DUP1 PUSH4 0x2F7801F4 EQ PUSH2 0x128 JUMPI DUP1 PUSH4 0x46423AA7 EQ PUSH2 0x164 JUMPI DUP1 PUSH4 0x476343EE EQ PUSH2 0x1A0 JUMPI JUMPDEST PUSH0 DUP1 REVERT JUMPDEST PUSH2 0x110 PUSH1 0x4 DUP1 CALLDATASIZE SUB DUP2 ADD SWAP1 PUSH2 0x10B SWAP2 SWAP1 PUSH2 0x1EDC JUMP JUMPDEST PUSH2 0x3EA JUMP JUMPDEST PUSH1 0x40 MLOAD PUSH2 0x11F SWAP4 SWAP3 SWAP2 SWAP1 PUSH2 0x1F5F JUMP JUMPDEST PUSH1 0x40 MLOAD DUP1 SWAP2 SUB SWAP1 RETURN JUMPDEST CALLVALUE DUP1 ISZERO PUSH2 0x133 JUMPI PUSH0 DUP1 REVERT JUMPDEST POP PUSH2 0x14E PUSH1 0x4 DUP1 CALLDATASIZE SUB DUP2 ADD SWAP1 PUSH2 0x149 SWAP2 SWAP1 PUSH2 0x1FBE JUMP JUMPDEST PUSH2 0x9D2 JUMP JUMPDEST PUSH1 0x40 MLOAD PUSH2 0x15B SWAP2 SWAP1 PUSH2 0x2001 JUMP JUMPDEST PUSH1 0x40 MLOAD DUP1 SWAP2 SUB SWAP1 RETURN JUMPDEST CALLVALUE DUP1 ISZERO PUSH2 0x16F JUMPI PUSH0 DUP1 REVERT JUMPDEST POP PUSH2 0x18A PUSH1 0x4 DUP1 CALLDATASIZE SUB DUP2 ADD SWAP1 PUSH2 0x185 SWAP2 SWAP1 PUSH2 0x2044 JUMP JUMPDEST PUSH2 0x9E7 JUMP JUMPDEST PUSH1 0x40 MLOAD PUSH2 0x197 SWAP2 SWAP1 PUSH2 0x2147 JUMP JUMPDEST PUSH1 0x40 MLOAD DUP1 SWAP2 SUB SWAP1 RETURN JUMPDEST CALLVALUE DUP1 ISZERO PUSH2 0x1AB JUMPI PUSH0 DUP1 REVERT JUMPDEST POP PUSH2 0x1B4 PUSH2 0xB83 JUMP JUMPDEST STOP JUMPDEST CALLVALUE DUP1 ISZERO PUSH2 0x1C1 JUMPI PUSH0 DUP1 REVERT JUMPDEST POP PUSH2 0x1CA PUSH2 0xBE6 JUMP JUMPDEST PUSH1 0x40 MLOAD PUSH2 0x1D7 SWAP2 SWAP1 PUSH2 0x2001 JUMP JUMPDEST PUSH1 0x40 MLOAD DUP1 SWAP2 SUB SWAP1 RETURN JUMPDEST CALLVALUE DUP1 ISZERO PUSH2 0x1EB JUMPI PUSH0 DUP1 REVERT JUMPDEST POP PUSH2 0x206 PUSH1 0x4 DUP1 CALLDATASIZE SUB DUP2 ADD SWAP1 PUSH2 0x201 SWAP2 SWAP1 PUSH2 0x2044 JUMP JUMPDEST PUSH2 0xC0A JUMP JUMPDEST PUSH1 0x40 MLOAD PUSH2 0x213 SWAP2 SWAP1 PUSH2 0x2225 JUMP JUMPDEST PUSH1 0x40 MLOAD DUP1 SWAP2 SUB SWAP1 RETURN JUMPDEST CALLVALUE DUP1 ISZERO PUSH2 0x227 JUMPI PUSH0 DUP1 REVERT JUMPDEST POP PUSH2 0x230 PUSH2 0xDC6 JUMP JUMPDEST STOP JUMPDEST CALLVALUE DUP1 ISZERO PUSH2 0x23D JUMPI PUSH0 DUP1 REVERT JUMPDEST POP PUSH2 0x258 PUSH1 0x4 DUP1 CALLDATASIZE SUB DUP2 ADD SWAP1 PUSH2 0x253 SWAP2 SWAP1 PUSH2 0x223F JUMP JUMPDEST PUSH2 0xDD9 JUMP JUMPDEST STOP JUMPDEST CALLVALUE DUP1 ISZERO PUSH2 0x265 JUMPI PUSH0 DUP1 REVERT JUMPDEST POP PUSH2 0x26E PUSH2 0x1085 JUMP JUMPDEST PUSH1 0x40 MLOAD PUSH2 0x27B SWAP2 SWAP1 PUSH2 0x227D JUMP JUMPDEST PUSH1 0x40 MLOAD DUP1 SWAP2 SUB SWAP1 RETURN JUMPDEST CALLVALUE DUP1 ISZERO PUSH2 0x28F JUMPI PUSH0 DUP1 REVERT JUMPDEST POP PUSH2 0x2AA PUSH1 0x4 DUP1 CALLDATASIZE SUB DUP2 ADD SWAP1 PUSH2 0x2A5 SWAP2 SWAP1 PUSH2 0x223F JUMP JUMPDEST PUSH2 0x10AC JUMP JUMPDEST PUSH1 0x40 MLOAD PUSH2 0x2B8 SWAP3 SWAP2 SWAP1 PUSH2 0x2296 JUMP JUMPDEST PUSH1 0x40 MLOAD DUP1 SWAP2 SUB SWAP1 RETURN JUMPDEST CALLVALUE DUP1 ISZERO PUSH2 0x2CC JUMPI PUSH0 DUP1 REVERT JUMPDEST POP PUSH2 0x2E7 PUSH1 0x4 DUP1 CALLDATASIZE SUB DUP2 ADD SWAP1 PUSH2 0x2E2 SWAP2 SWAP1 PUSH2 0x2044 JUMP JUMPDEST PUSH2 0x1185 JUMP JUMPDEST PUSH1 0x40 MLOAD PUSH2 0x2FB SWAP9 SWAP8 SWAP7 SWAP6 SWAP5 SWAP4 SWAP3 SWAP2 SWAP1 PUSH2 0x22CC JUMP JUMPDEST PUSH1 0x40 MLOAD DUP1 SWAP2 SUB SWAP1 RETURN JUMPDEST CALLVALUE DUP1 ISZERO PUSH2 0x30F JUMPI PUSH0 DUP1 REVERT JUMPDEST POP PUSH2 0x32A PUSH1 0x4 DUP1 CALLDATASIZE SUB DUP2 ADD SWAP1 PUSH2 0x325 SWAP2 SWAP1 PUSH2 0x2044 JUMP JUMPDEST PUSH2 0x1256 JUMP JUMPDEST PUSH1 0x40 MLOAD PUSH2 0x33F SWAP10 SWAP9 SWAP8 SWAP7 SWAP6 SWAP5 SWAP4 SWAP3 SWAP2 SWAP1 PUSH2 0x2348 JUMP JUMPDEST PUSH1 0x40 MLOAD DUP1 SWAP2 SUB SWAP1 RETURN JUMPDEST CALLVALUE DUP1 ISZERO PUSH2 0x353 JUMPI PUSH0 DUP1 REVERT JUMPDEST POP PUSH2 0x36E PUSH1 0x4 DUP1 CALLDATASIZE SUB DUP2 ADD SWAP1 PUSH2 0x369 SWAP2 SWAP1 PUSH2 0x23D3 JUMP JUMPDEST PUSH2 0x12FD JUMP JUMPDEST STOP JUMPDEST CALLVALUE DUP1 ISZERO PUSH2 0x37B JUMPI PUSH0 DUP1 REVERT JUMPDEST POP PUSH2 0x396 PUSH1 0x4 DUP1 CALLDATASIZE SUB DUP2 ADD SWAP1 PUSH2 0x391 SWAP2 SWAP1 PUSH2 0x23D3 JUMP JUMPDEST PUSH2 0x1652 JUMP JUMPDEST STOP JUMPDEST CALLVALUE DUP1 ISZERO PUSH2 0x3A3 JUMPI PUSH0 DUP1 REVERT JUMPDEST POP PUSH2 0x3BE PUSH1 0x4 DUP1 CALLDATASIZE SUB DUP2 ADD SWAP1 PUSH2 0x3B9 SWAP2 SWAP1 PUSH2 0x1FBE JUMP JUMPDEST PUSH2 0x19C3 JUMP JUMPDEST STOP JUMPDEST CALLVALUE DUP1 ISZERO PUSH2 0x3CB JUMPI PUSH0 DUP1 REVERT JUMPDEST POP PUSH2 0x3D4 PUSH2 0x1A47 JUMP JUMPDEST PUSH1 0x40 MLOAD PUSH2 0x3E1 SWAP2 SWAP1 PUSH2 0x2001 JUMP JUMPDEST PUSH1 0x40 MLOAD DUP1 SWAP2 SUB SWAP1 RETURN JUMPDEST PUSH0 DUP1 PUSH0 PUSH2 0x3F5 PUSH2 0x1A4D JUMP JUMPDEST PUSH32 0x0 CALLVALUE LT ISZERO PUSH2 0x44F JUMPI PUSH1 0x40 MLOAD PUSH32 0x25DBDD400000000000000000000000000000000000000000000000000000000 DUP2 MSTORE PUSH1 0x4 ADD PUSH1 0x40 MLOAD DUP1 SWAP2 SUB SWAP1 REVERT JUMPDEST CALLER PUSH20 0xFFFFFFFFFFFFFFFFFFFFFFFFFFFFFFFFFFFFFFFF AND DUP5 PUSH0 ADD PUSH1 0x20 DUP2 ADD SWAP1 PUSH2 0x478 SWAP2 SWAP1 PUSH2 0x1FBE JUMP JUMPDEST PUSH20 0xFFFFFFFFFFFFFFFFFFFFFFFFFFFFFFFFFFFFFFFF AND EQ PUSH2 0x4C5 JUMPI PUSH1 0x40 MLOAD PUSH32 0x5C427CD900000000000000000000000000000000000000000000000000000000 DUP2 MSTORE PUSH1 0x4 ADD PUSH1 0x40 MLOAD DUP1 SWAP2 SUB SWAP1 REVERT JUMPDEST PUSH2 0xE10 TIMESTAMP PUSH2 0x4D3 SWAP2 SWAP1 PUSH2 0x243F JUMP JUMPDEST DUP5 PUSH1 0xC0 ADD CALLDATALOAD LT ISZERO PUSH2 0x510 JUMPI PUSH1 0x40 MLOAD PUSH32 0xF8D10E8200000000000000000000000000000000000000000000000000000000 DUP2 MSTORE PUSH1 0x4 ADD PUSH1 0x40 MLOAD DUP1 SWAP2 SUB SWAP1 REVERT JUMPDEST PUSH0 DUP5 PUSH1 0x40 ADD CALLDATALOAD EQ DUP1 PUSH2 0x525 JUMPI POP PUSH0 DUP5 PUSH1 0x80 ADD CALLDATALOAD EQ JUMPDEST ISZERO PUSH2 0x55C JUMPI PUSH1 0x40 MLOAD PUSH32 0xE523909000000000000000000000000000000000000000000000000000000000 DUP2 MSTORE PUSH1 0x4 ADD PUSH1 0x40 MLOAD DUP1 SWAP2 SUB SWAP1 REVERT JUMPDEST DUP4 PUSH1 0x60 ADD PUSH1 0x20 DUP2 ADD SWAP1 PUSH2 0x56F SWAP2 SWAP1 PUSH2 0x1FBE JUMP JUMPDEST PUSH20 0xFFFFFFFFFFFFFFFFFFFFFFFFFFFFFFFFFFFFFFFF AND DUP5 PUSH1 0x20 ADD PUSH1 0x20 DUP2 ADD SWAP1 PUSH2 0x598 SWAP2 SWAP1 PUSH2 0x1FBE JUMP JUMPDEST PUSH20 0xFFFFFFFFFFFFFFFFFFFFFFFFFFFFFFFFFFFFFFFF AND SUB PUSH2 0x5E5 JUMPI PUSH1 0x40 MLOAD PUSH32 0xE523909000000000000000000000000000000000000000000000000000000000 DUP2 MSTORE PUSH1 0x4 ADD PUSH1 0x40 MLOAD DUP1 SWAP2 SUB SWAP1 REVERT JUMPDEST PUSH2 0x5EE DUP5 PUSH2 0x1A93 JUMP JUMPDEST SWAP3 POP PUSH1 0x2 PUSH0 DUP5 DUP2 MSTORE PUSH1 0x20 ADD SWAP1 DUP2 MSTORE PUSH1 0x20 ADD PUSH0 KECCAK256 PUSH0 ADD PUSH0 SWAP1 SLOAD SWAP1 PUSH2 0x100 EXP SWAP1 DIV PUSH1 0xFF AND ISZERO PUSH2 0x647 JUMPI PUSH1 0x40 MLOAD PUSH32 0x966753C500000000000000000000000000000000000000000000000000000000 DUP2 MSTORE PUSH1 0x4 ADD PUSH1 0x40 MLOAD DUP1 SWAP2 SUB SWAP1 REVERT JUMPDEST PUSH2 0x656 DUP4 DUP6 PUSH2 0x100 ADD CALLDATALOAD PUSH2 0x1B20 JUMP JUMPDEST DUP1 SWAP3 POP DUP2 SWAP4 POP POP POP DUP2 PUSH20 0xFFFFFFFFFFFFFFFFFFFFFFFFFFFFFFFFFFFFFFFF AND PUSH4 0xCD50CB2C DUP5 DUP7 PUSH0 ADD PUSH1 0x20 DUP2 ADD SWAP1 PUSH2 0x68D SWAP2 SWAP1 PUSH2 0x1FBE JUMP JUMPDEST DUP8 PUSH1 0x20 ADD PUSH1 0x20 DUP2 ADD SWAP1 PUSH2 0x6A0 SWAP2 SWAP1 PUSH2 0x1FBE JUMP JUMPDEST DUP9 PUSH1 0x40 ADD CALLDATALOAD DUP10 PUSH1 0xA0 ADD CALLDATALOAD DUP11 PUSH1 0xC0 ADD CALLDATALOAD PUSH1 0x40 MLOAD DUP8 PUSH4 0xFFFFFFFF AND PUSH1 0xE0 SHL DUP2 MSTORE PUSH1 0x4 ADD PUSH2 0x6D0 SWAP7 SWAP6 SWAP5 SWAP4 SWAP3 SWAP2 SWAP1 PUSH2 0x2472 JUMP JUMPDEST PUSH0 PUSH1 0x40 MLOAD DUP1 DUP4 SUB DUP2 PUSH0 DUP8 DUP1 EXTCODESIZE ISZERO DUP1 ISZERO PUSH2 0x6E7 JUMPI PUSH0 DUP1 REVERT JUMPDEST POP GAS CALL ISZERO DUP1 ISZERO PUSH2 0x6F9 JUMPI RETURNDATASIZE PUSH0 DUP1 RETURNDATACOPY RETURNDATASIZE PUSH0 REVERT JUMPDEST POP POP POP POP PUSH1 0x40 MLOAD DUP1 PUSH2 0x100 ADD PUSH1 0x40 MSTORE DUP1 PUSH1 0x1 ISZERO ISZERO DUP2 MSTORE PUSH1 0x20 ADD PUSH0 ISZERO ISZERO DUP2 MSTORE PUSH1 0x20 ADD PUSH0 ISZERO ISZERO DUP2 MSTORE PUSH1 0x20 ADD PUSH0 ISZERO ISZERO DUP2 MSTORE PUSH1 0x20 ADD DUP4 PUSH20 0xFFFFFFFFFFFFFFFFFFFFFFFFFFFFFFFFFFFFFFFF AND DUP2 MSTORE PUSH1 0x20 ADD DUP3 PUSH20 0xFFFFFFFFFFFFFFFFFFFFFFFFFFFFFFFFFFFFFFFF AND DUP2 MSTORE PUSH1 0x20 ADD PUSH0 PUSH20 0xFFFFFFFFFFFFFFFFFFFFFFFFFFFFFFFFFFFFFFFF AND DUP2 MSTORE PUSH1 0x20 ADD TIMESTAMP DUP2 MSTORE POP PUSH1 0x2 PUSH0 DUP6 DUP2 MSTORE PUSH1 0x20 ADD SWAP1 DUP2 MSTORE PUSH1 0x20 ADD PUSH0 KECCAK256 PUSH0 DUP3 ADD MLOAD DUP2 PUSH0 ADD PUSH0 PUSH2 0x100 EXP DUP2 SLOAD DUP2 PUSH1 0xFF MUL NOT AND SWAP1 DUP4 ISZERO ISZERO MUL OR SWAP1 SSTORE POP PUSH1 0x20 DUP3 ADD MLOAD DUP2 PUSH0 ADD PUSH1 0x1 PUSH2 0x100 EXP DUP2 SLOAD DUP2 PUSH1 0xFF MUL NOT AND SWAP1 DUP4 ISZERO ISZERO MUL OR SWAP1 SSTORE POP PUSH1 0x40 DUP3 ADD MLOAD DUP2 PUSH0 ADD PUSH1 0x2 PUSH2 0x100 EXP DUP2 SLOAD DUP2 PUSH1 0xFF MUL NOT AND SWAP1 DUP4 ISZERO ISZERO MUL OR SWAP1 SSTORE POP PUSH1 0x60 DUP3 ADD MLOAD DUP2 PUSH0 ADD PUSH1 0x3 PUSH2 0x100 EXP DUP2 SLOAD DUP2 PUSH1 0xFF MUL NOT AND SWAP1 DUP4 ISZERO ISZERO MUL OR SWAP1 SSTORE POP PUSH1 0x80 DUP3 ADD MLOAD DUP2 PUSH0 ADD PUSH1 0x4 PUSH2 0x100 EXP DUP2 SLOAD DUP2 PUSH20 0xFFFFFFFFFFFFFFFFFFFFFFFFFFFFFFFFFFFFFFFF MUL NOT AND SWAP1 DUP4 PUSH20 0xFFFFFFFFFFFFFFFFFFFFFFFFFFFFFFFFFFFFFFFF AND MUL OR SWAP1 SSTORE POP PUSH1 0xA0 DUP3 ADD MLOAD DUP2 PUSH1 0x1 ADD PUSH0 PUSH2 0x100 EXP DUP2 SLOAD DUP2 PUSH20 0xFFFFFFFFFFFFFFFFFFFFFFFFFFFFFFFFFFFFFFFF MUL NOT AND SWAP1 DUP4 PUSH20 0xFFFFFFFFFFFFFFFFFFFFFFFFFFFFFFFFFFFFFFFF AND MUL OR SWAP1 SSTORE POP PUSH1 0xC0 DUP3 ADD MLOAD DUP2 PUSH1 0x2 ADD PUSH0 PUSH2 0x100 EXP DUP2 SLOAD DUP2 PUSH20 0xFFFFFFFFFFFFFFFFFFFFFFFFFFFFFFFFFFFFFFFF MUL NOT AND SWAP1 DUP4 PUSH20 0xFFFFFFFFFFFFFFFFFFFFFFFFFFFFFFFFFFFFFFFF AND MUL OR SWAP1 SSTORE POP PUSH1 0xE0 DUP3 ADD MLOAD DUP2 PUSH1 0x3 ADD SSTORE SWAP1 POP POP DUP4 PUSH1 0x3 PUSH0 DUP6 DUP2 MSTORE PUSH1 0x20 ADD SWAP1 DUP2 MSTORE PUSH1 0x20 ADD PUSH0 KECCAK256 DUP2 DUP2 PUSH2 0x90A SWAP2 SWAP1 PUSH2 0x27E8 JUMP JUMPDEST SWAP1 POP POP PUSH1 0x4 PUSH0 CALLER PUSH20 0xFFFFFFFFFFFFFFFFFFFFFFFFFFFFFFFFFFFFFFFF AND PUSH20 0xFFFFFFFFFFFFFFFFFFFFFFFFFFFFFFFFFFFFFFFF AND DUP2 MSTORE PUSH1 0x20 ADD SWAP1 DUP2 MSTORE PUSH1 0x20 ADD PUSH0 KECCAK256 PUSH0 DUP2 SLOAD DUP1 SWAP3 SWAP2 SWAP1 PUSH2 0x95A SWAP1 PUSH2 0x27F6 JUMP JUMPDEST SWAP2 SWAP1 POP SSTORE POP DUP4 PUSH0 ADD PUSH1 0x20 DUP2 ADD SWAP1 PUSH2 0x971 SWAP2 SWAP1 PUSH2 0x1FBE JUMP JUMPDEST PUSH20 0xFFFFFFFFFFFFFFFFFFFFFFFFFFFFFFFFFFFFFFFF AND DUP4 PUSH32 0x5EE9DED0D6F857CFD61225775AFD61A778143215DAECA1C443E06AEC4AF89897 DUP5 DUP5 DUP9 PUSH1 0x40 MLOAD PUSH2 0x9BB SWAP4 SWAP3 SWAP2 SWAP1 PUSH2 0x2990 JUMP JUMPDEST PUSH1 0x40 MLOAD DUP1 SWAP2 SUB SWAP1 LOG3 PUSH2 0x9CB PUSH2 0x1BDD JUMP JUMPDEST SWAP2 SWAP4 SWAP1 SWAP3 POP JUMP JUMPDEST PUSH1 0x4 PUSH1 0x20 MSTORE DUP1 PUSH0 MSTORE PUSH1 0x40 PUSH0 KECCAK256 PUSH0 SWAP2 POP SWAP1 POP SLOAD DUP2 JUMP JUMPDEST PUSH2 0x9EF PUSH2 0x1D89 JUMP JUMPDEST PUSH1 0x2 PUSH0 DUP4 DUP2 MSTORE PUSH1 0x20 ADD SWAP1 DUP2 MSTORE PUSH1 0x20 ADD PUSH0 KECCAK256 PUSH1 0x40 MLOAD DUP1 PUSH2 0x100 ADD PUSH1 0x40 MSTORE SWAP1 DUP2 PUSH0 DUP3 ADD PUSH0 SWAP1 SLOAD SWAP1 PUSH2 0x100 EXP SWAP1 DIV PUSH1 0xFF AND ISZERO ISZERO ISZERO ISZERO DUP2 MSTORE PUSH1 0x20 ADD PUSH0 DUP3 ADD PUSH1 0x1 SWAP1 SLOAD SWAP1 PUSH2 0x100 EXP SWAP1 DIV PUSH1 0xFF AND ISZERO ISZERO ISZERO ISZERO DUP2 MSTORE PUSH1 0x20 ADD PUSH0 DUP3 ADD PUSH1 0x2 SWAP1 SLOAD SWAP1 PUSH2 0x100 EXP SWAP1 DIV PUSH1 0xFF AND ISZERO ISZERO ISZERO ISZERO DUP2 MSTORE PUSH1 0x20 ADD PUSH0 DUP3 ADD PUSH1 0x3 SWAP1 SLOAD SWAP1 PUSH2 0x100 EXP SWAP1 DIV PUSH1 0xFF AND ISZERO ISZERO ISZERO ISZERO DUP2 MSTORE PUSH1 0x20 ADD PUSH0 DUP3 ADD PUSH1 0x4 SWAP1 SLOAD SWAP1 PUSH2 0x100 EXP SWAP1 DIV PUSH20 0xFFFFFFFFFFFFFFFFFFFFFFFFFFFFFFFFFFFFFFFF AND PUSH20 0xFFFFFFFFFFFFFFFFFFFFFFFFFFFFFFFFFFFFFFFF AND PUSH20 0xFFFFFFFFFFFFFFFFFFFFFFFFFFFFFFFFFFFFFFFF AND DUP2 MSTORE PUSH1 0x20 ADD PUSH1 0x1 DUP3 ADD PUSH0 SWAP1 SLOAD SWAP1 PUSH2 0x100 EXP SWAP1 DIV PUSH20 0xFFFFFFFFFFFFFFFFFFFFFFFFFFFFFFFFFFFFFFFF AND PUSH20 0xFFFFFFFFFFFFFFFFFFFFFFFFFFFFFFFFFFFFFFFF AND PUSH20 0xFFFFFFFFFFFFFFFFFFFFFFFFFFFFFFFFFFFFFFFF AND DUP2 MSTORE PUSH1 0x20 ADD PUSH1 0x2 DUP3 ADD PUSH0 SWAP1 SLOAD SWAP1 PUSH2 0x100 EXP SWAP1 DIV PUSH20 0xFFFFFFFFFFFFFFFFFFFFFFFFFFFFFFFFFFFFFFFF AND PUSH20 0xFFFFFFFFFFFFFFFFFFFFFFFFFFFFFFFFFFFFFFFF AND PUSH20 0xFFFFFFFFFFFFFFFFFFFFFFFFFFFFFFFFFFFFFFFF AND DUP2 MSTORE PUSH1 0x20 ADD PUSH1 0x3 DUP3 ADD SLOAD DUP2 MSTORE POP POP SWAP1 POP SWAP2 SWAP1 POP JUMP JUMPDEST PUSH2 0xB8B PUSH2 0x1BE6 JUMP JUMPDEST PUSH0 SELFBALANCE SWAP1 POP PUSH0 DUP2 GT ISZERO PUSH2 0xBE3 JUMPI PUSH2 0xB9F PUSH2 0x1085 JUMP JUMPDEST PUSH20 0xFFFFFFFFFFFFFFFFFFFFFFFFFFFFFFFFFFFFFFFF AND PUSH2 0x8FC DUP3 SWAP1 DUP2 ISZERO MUL SWAP1 PUSH1 0x40 MLOAD PUSH0 PUSH1 0x40 MLOAD DUP1 DUP4 SUB DUP2 DUP6 DUP9 DUP9 CALL SWAP4 POP POP POP POP ISZERO DUP1 ISZERO PUSH2 0xBE1 JUMPI RETURNDATASIZE PUSH0 DUP1 RETURNDATACOPY RETURNDATASIZE PUSH0 REVERT JUMPDEST POP JUMPDEST POP JUMP JUMPDEST PUSH32 0x0 DUP2 JUMP JUMPDEST PUSH2 0xC12 PUSH2 0x1E10 JUMP JUMPDEST PUSH1 0x2 PUSH0 DUP4 DUP2 MSTORE PUSH1 0x20 ADD SWAP1 DUP2 MSTORE PUSH1 0x20 ADD PUSH0 KECCAK256 PUSH0 ADD PUSH0 SWAP1 SLOAD SWAP1 PUSH2 0x100 EXP SWAP1 DIV PUSH1 0xFF AND PUSH2 0xC68 JUMPI PUSH1 0x40 MLOAD PUSH32 0xD36D896500000000000000000000000000000000000000000000000000000000 DUP2 MSTORE PUSH1 0x4 ADD PUSH1 0x40 MLOAD DUP1 SWAP2 SUB SWAP1 REVERT JUMPDEST PUSH1 0x3 PUSH0 DUP4 DUP2 MSTORE PUSH1 0x20 ADD SWAP1 DUP2 MSTORE PUSH1 0x20 ADD PUSH0 KECCAK256 PUSH1 0x40 MLOAD DUP1 PUSH2 0x120 ADD PUSH1 0x40 MSTORE SWAP1 DUP2 PUSH0 DUP3 ADD PUSH0 SWAP1 SLOAD SWAP1 PUSH2 0x100 EXP SWAP1 DIV PUSH20 0xFFFFFFFFFFFFFFFFFFFFFFFFFFFFFFFFFFFFFFFF AND PUSH20 0xFFFFFFFFFFFFFFFFFFFFFFFFFFFFFFFFFFFFFFFF AND PUSH20 0xFFFFFFFFFFFFFFFFFFFFFFFFFFFFFFFFFFFFFFFF AND DUP2 MSTORE PUSH1 0x20 ADD PUSH1 0x1 DUP3 ADD PUSH0 SWAP1 SLOAD SWAP1 PUSH2 0x100 EXP SWAP1 DIV PUSH20 0xFFFFFFFFFFFFFFFFFFFFFFFFFFFFFFFFFFFFFFFF AND PUSH20 0xFFFFFFFFFFFFFFFFFFFFFFFFFFFFFFFFFFFFFFFF AND PUSH20 0xFFFFFFFFFFFFFFFFFFFFFFFFFFFFFFFFFFFFFFFF AND DUP2 MSTORE PUSH1 0x20 ADD PUSH1 0x2 DUP3 ADD SLOAD DUP2 MSTORE PUSH1 0x20 ADD PUSH1 0x3 DUP3 ADD PUSH0 SWAP1 SLOAD SWAP1 PUSH2 0x100 EXP SWAP1 DIV PUSH20 0xFFFFFFFFFFFFFFFFFFFFFFFFFFFFFFFFFFFFFFFF AND PUSH20 0xFFFFFFFFFFFFFFFFFFFFFFFFFFFFFFFFFFFFFFFF AND PUSH20 0xFFFFFFFFFFFFFFFFFFFFFFFFFFFFFFFFFFFFFFFF AND DUP2 MSTORE PUSH1 0x20 ADD PUSH1 0x4 DUP3 ADD SLOAD DUP2 MSTORE PUSH1 0x20 ADD PUSH1 0x5 DUP3 ADD SLOAD DUP2 MSTORE PUSH1 0x20 ADD PUSH1 0x6 DUP3 ADD SLOAD DUP2 MSTORE PUSH1 0x20 ADD PUSH1 0x7 DUP3 ADD SLOAD DUP2 MSTORE PUSH1 0x20 ADD PUSH1 0x8 DUP3 ADD SLOAD DUP2 MSTORE POP POP SWAP1 POP SWAP2 SWAP1 POP JUMP JUMPDEST PUSH2 0xDCE PUSH2 0x1BE6 JUMP JUMPDEST PUSH2 0xDD7 PUSH0 PUSH2 0x1C6D JUMP JUMPDEST JUMP JUMPDEST PUSH2 0xDE1 PUSH2 0x1A4D JUMP JUMPDEST PUSH0 PUSH1 0x2 PUSH0 DUP5 DUP2 MSTORE PUSH1 0x20 ADD SWAP1 DUP2 MSTORE PUSH1 0x20 ADD PUSH0 KECCAK256 SWAP1 POP DUP1 PUSH0 ADD PUSH0 SWAP1 SLOAD SWAP1 PUSH2 0x100 EXP SWAP1 DIV PUSH1 0xFF AND PUSH2 0xE3B JUMPI PUSH1 0x40 MLOAD PUSH32 0xD36D896500000000000000000000000000000000000000000000000000000000 DUP2 MSTORE PUSH1 0x4 ADD PUSH1 0x40 MLOAD DUP1 SWAP2 SUB SWAP1 REVERT JUMPDEST DUP1 PUSH0 ADD PUSH1 0x1 SWAP1 SLOAD SWAP1 PUSH2 0x100 EXP SWAP1 DIV PUSH1 0xFF AND PUSH2 0xE82 JUMPI PUSH1 0x40 MLOAD PUSH32 0x789BAE3500000000000000000000000000000000000000000000000000000000 DUP2 MSTORE PUSH1 0x4 ADD PUSH1 0x40 MLOAD DUP1 SWAP2 SUB SWAP1 REVERT JUMPDEST DUP1 PUSH0 ADD PUSH1 0x2 SWAP1 SLOAD SWAP1 PUSH2 0x100 EXP SWAP1 DIV PUSH1 0xFF AND ISZERO PUSH2 0xECA JUMPI PUSH1 0x40 MLOAD PUSH32 0x368368700000000000000000000000000000000000000000000000000000000 DUP2 MSTORE PUSH1 0x4 ADD PUSH1 0x40 MLOAD DUP1 SWAP2 SUB SWAP1 REVERT JUMPDEST DUP1 PUSH0 ADD PUSH1 0x3 SWAP1 SLOAD SWAP1 PUSH2 0x100 EXP SWAP1 DIV PUSH1 0xFF AND ISZERO PUSH2 0xF12 JUMPI PUSH1 0x40 MLOAD PUSH32 0x7C87A47200000000000000000000000000000000000000000000000000000000 DUP2 MSTORE PUSH1 0x4 ADD PUSH1 0x40 MLOAD DUP1 SWAP2 SUB SWAP1 REVERT JUMPDEST PUSH1 0x1 DUP2 PUSH0 ADD PUSH1 0x2 PUSH2 0x100 EXP DUP2 SLOAD DUP2 PUSH1 0xFF MUL NOT AND SWAP1 DUP4 ISZERO ISZERO MUL OR SWAP1 SSTORE POP DUP1 PUSH1 0x1 ADD PUSH0 SWAP1 SLOAD SWAP1 PUSH2 0x100 EXP SWAP1 DIV PUSH20 0xFFFFFFFFFFFFFFFFFFFFFFFFFFFFFFFFFFFFFFFF AND PUSH20 0xFFFFFFFFFFFFFFFFFFFFFFFFFFFFFFFFFFFFFFFF AND PUSH4 0x6FACD1C0 DUP4 PUSH1 0x40 MLOAD DUP3 PUSH4 0xFFFFFFFF AND PUSH1 0xE0 SHL DUP2 MSTORE PUSH1 0x4 ADD PUSH2 0xF8A SWAP2 SWAP1 PUSH2 0x29C6 JUMP JUMPDEST PUSH0 PUSH1 0x40 MLOAD DUP1 DUP4 SUB DUP2 PUSH0 DUP8 DUP1 EXTCODESIZE ISZERO DUP1 ISZERO PUSH2 0xFA1 JUMPI PUSH0 DUP1 REVERT JUMPDEST POP GAS CALL ISZERO DUP1 ISZERO PUSH2 0xFB3 JUMPI RETURNDATASIZE PUSH0 DUP1 RETURNDATACOPY RETURNDATASIZE PUSH0 REVERT JUMPDEST POP POP POP POP DUP1 PUSH0 ADD PUSH1 0x4 SWAP1 SLOAD SWAP1 PUSH2 0x100 EXP SWAP1 DIV PUSH20 0xFFFFFFFFFFFFFFFFFFFFFFFFFFFFFFFFFFFFFFFF AND PUSH20 0xFFFFFFFFFFFFFFFFFFFFFFFFFFFFFFFFFFFFFFFF AND PUSH4 0x6FACD1C0 DUP4 PUSH1 0x40 MLOAD DUP3 PUSH4 0xFFFFFFFF AND PUSH1 0xE0 SHL DUP2 MSTORE PUSH1 0x4 ADD PUSH2 0x1013 SWAP2 SWAP1 PUSH2 0x29C6 JUMP JUMPDEST PUSH0 PUSH1 0x40 MLOAD DUP1 DUP4 SUB DUP2 PUSH0 DUP8 DUP1 EXTCODESIZE ISZERO DUP1 ISZERO PUSH2 0x102A JUMPI PUSH0 DUP1 REVERT JUMPDEST POP GAS CALL ISZERO DUP1 ISZERO PUSH2 0x103C JUMPI RETURNDATASIZE PUSH0 DUP1 RETURNDATACOPY RETURNDATASIZE PUSH0 REVERT JUMPDEST POP POP POP POP DUP3 PUSH32 0x7430D80E0E3CFB925010FF8993F6A56392199211E297FC7825278F29980CCF51 DUP4 PUSH1 0x40 MLOAD PUSH2 0x1070 SWAP2 SWAP1 PUSH2 0x29C6 JUMP JUMPDEST PUSH1 0x40 MLOAD DUP1 SWAP2 SUB SWAP1 LOG2 POP PUSH2 0x1081 PUSH2 0x1BDD JUMP JUMPDEST POP POP JUMP JUMPDEST PUSH0 DUP1 PUSH0 SWAP1 SLOAD SWAP1 PUSH2 0x100 EXP SWAP1 DIV PUSH20 0xFFFFFFFFFFFFFFFFFFFFFFFFFFFFFFFFFFFFFFFF AND SWAP1 POP SWAP1 JUMP JUMPDEST PUSH0 DUP1 PUSH0 PUSH1 0x40 MLOAD DUP1 PUSH1 0x20 ADD PUSH2 0x10BF SWAP1 PUSH2 0x1E9B JUMP JUMPDEST PUSH1 0x20 DUP3 ADD DUP2 SUB DUP3 MSTORE PUSH1 0x1F NOT PUSH1 0x1F DUP3 ADD AND PUSH1 0x40 MSTORE POP DUP1 MLOAD SWAP1 PUSH1 0x20 ADD KECCAK256 SWAP1 POP PUSH0 PUSH1 0x40 MLOAD DUP1 PUSH1 0x20 ADD PUSH2 0x10ED SWAP1 PUSH2 0x1EA8 JUMP JUMPDEST PUSH1 0x20 DUP3 ADD DUP2 SUB DUP3 MSTORE PUSH1 0x1F NOT PUSH1 0x1F DUP3 ADD AND PUSH1 0x40 MSTORE POP DUP1 MLOAD SWAP1 PUSH1 0x20 ADD KECCAK256 SWAP1 POP PUSH0 DUP7 DUP7 PUSH1 0x40 MLOAD PUSH1 0x20 ADD PUSH2 0x111E SWAP3 SWAP2 SWAP1 PUSH2 0x2A53 JUMP JUMPDEST PUSH1 0x40 MLOAD PUSH1 0x20 DUP2 DUP4 SUB SUB DUP2 MSTORE SWAP1 PUSH1 0x40 MSTORE DUP1 MLOAD SWAP1 PUSH1 0x20 ADD KECCAK256 SWAP1 POP PUSH0 DUP8 DUP8 PUSH1 0x40 MLOAD PUSH1 0x20 ADD PUSH2 0x114A SWAP3 SWAP2 SWAP1 PUSH2 0x2AD3 JUMP JUMPDEST PUSH1 0x40 MLOAD PUSH1 0x20 DUP2 DUP4 SUB SUB DUP2 MSTORE SWAP1 PUSH1 0x40 MSTORE DUP1 MLOAD SWAP1 PUSH1 0x20 ADD KECCAK256 SWAP1 POP PUSH2 0x116C DUP3 DUP6 PUSH2 0x1D2E JUMP JUMPDEST SWAP6 POP PUSH2 0x1178 DUP2 DUP5 PUSH2 0x1D2E JUMP JUMPDEST SWAP5 POP POP POP POP POP SWAP3 POP SWAP3 SWAP1 POP JUMP JUMPDEST PUSH1 0x2 PUSH1 0x20 MSTORE DUP1 PUSH0 MSTORE PUSH1 0x40 PUSH0 KECCAK256 PUSH0 SWAP2 POP SWAP1 POP DUP1 PUSH0 ADD PUSH0 SWAP1 SLOAD SWAP1 PUSH2 0x100 EXP SWAP1 DIV PUSH1 0xFF AND SWAP1 DUP1 PUSH0 ADD PUSH1 0x1 SWAP1 SLOAD SWAP1 PUSH2 0x100 EXP SWAP1 DIV PUSH1 0xFF AND SWAP1 DUP1 PUSH0 ADD PUSH1 0x2 SWAP1 SLOAD SWAP1 PUSH2 0x100 EXP SWAP1 DIV PUSH1 0xFF AND SWAP1 DUP1 PUSH0 ADD PUSH1 0x3 SWAP1 SLOAD SWAP1 PUSH2 0x100 EXP SWAP1 DIV PUSH1 0xFF AND SWAP1 DUP1 PUSH0 ADD PUSH1 0x4 SWAP1 SLOAD SWAP1 PUSH2 0x100 EXP SWAP1 DIV PUSH20 0xFFFFFFFFFFFFFFFFFFFFFFFFFFFFFFFFFFFFFFFF AND SWAP1 DUP1 PUSH1 0x1 ADD PUSH0 SWAP1 SLOAD SWAP1 PUSH2 0x100 EXP SWAP1 DIV PUSH20 0xFFFFFFFFFFFFFFFFFFFFFFFFFFFFFFFFFFFFFFFF AND SWAP1 DUP1 PUSH1 0x2 ADD PUSH0 SWAP1 SLOAD SWAP1 PUSH2 0x100 EXP SWAP1 DIV PUSH20 0xFFFFFFFFFFFFFFFFFFFFFFFFFFFFFFFFFFFFFFFF AND SWAP1 DUP1 PUSH1 0x3 ADD SLOAD SWAP1 POP DUP9 JUMP JUMPDEST PUSH1 0x3 PUSH1 0x20 MSTORE DUP1 PUSH0 MSTORE PUSH1 0x40 PUSH0 KECCAK256 PUSH0 SWAP2 POP SWAP1 POP DUP1 PUSH0 ADD PUSH0 SWAP1 SLOAD SWAP1 PUSH2 0x100 EXP SWAP1 DIV PUSH20 0xFFFFFFFFFFFFFFFFFFFFFFFFFFFFFFFFFFFFFFFF AND SWAP1 DUP1 PUSH1 0x1 ADD PUSH0 SWAP1 SLOAD SWAP1 PUSH2 0x100 EXP SWAP1 DIV PUSH20 0xFFFFFFFFFFFFFFFFFFFFFFFFFFFFFFFFFFFFFFFF AND SWAP1 DUP1 PUSH1 0x2 ADD SLOAD SWAP1 DUP1 PUSH1 0x3 ADD PUSH0 SWAP1 SLOAD SWAP1 PUSH2 0x100 EXP SWAP1 DIV PUSH20 0xFFFFFFFFFFFFFFFFFFFFFFFFFFFFFFFFFFFFFFFF AND SWAP1 DUP1 PUSH1 0x4 ADD SLOAD SWAP1 DUP1 PUSH1 0x5 ADD SLOAD SWAP1 DUP1 PUSH1 0x6 ADD SLOAD SWAP1 DUP1 PUSH1 0x7 ADD SLOAD SWAP1 DUP1 PUSH1 0x8 ADD SLOAD SWAP1 POP DUP10 JUMP JUMPDEST PUSH2 0x1305 PUSH2 0x1A4D JUMP JUMPDEST PUSH0 PUSH1 0x2 PUSH0 DUP5 DUP2 MSTORE PUSH1 0x20 ADD SWAP1 DUP2 MSTORE PUSH1 0x20 ADD PUSH0 KECCAK256 SWAP1 POP DUP1 PUSH0 ADD PUSH0 SWAP1 SLOAD SWAP1 PUSH2 0x100 EXP SWAP1 DIV PUSH1 0xFF AND PUSH2 0x135F JUMPI PUSH1 0x40 MLOAD PUSH32 0xD36D896500000000000000000000000000000000000000000000000000000000 DUP2 MSTORE PUSH1 0x4 ADD PUSH1 0x40 MLOAD DUP1 SWAP2 SUB SWAP1 REVERT JUMPDEST DUP1 PUSH0 ADD PUSH1 0x2 SWAP1 SLOAD SWAP1 PUSH2 0x100 EXP SWAP1 DIV PUSH1 0xFF AND ISZERO PUSH2 0x13A7 JUMPI PUSH1 0x40 MLOAD PUSH32 0x368368700000000000000000000000000000000000000000000000000000000 DUP2 MSTORE PUSH1 0x4 ADD PUSH1 0x40 MLOAD DUP1 SWAP2 SUB SWAP1 REVERT JUMPDEST DUP1 PUSH0 ADD PUSH1 0x3 SWAP1 SLOAD SWAP1 PUSH2 0x100 EXP SWAP1 DIV PUSH1 0xFF AND ISZERO PUSH2 0x13EF JUMPI PUSH1 0x40 MLOAD PUSH32 0x7C87A47200000000000000000000000000000000000000000000000000000000 DUP2 MSTORE PUSH1 0x4 ADD PUSH1 0x40 MLOAD DUP1 SWAP2 SUB SWAP1 REVERT JUMPDEST CALLER PUSH20 0xFFFFFFFFFFFFFFFFFFFFFFFFFFFFFFFFFFFFFFFF AND DUP3 PUSH0 ADD PUSH1 0x20 DUP2 ADD SWAP1 PUSH2 0x1418 SWAP2 SWAP1 PUSH2 0x1FBE JUMP JUMPDEST PUSH20 0xFFFFFFFFFFFFFFFFFFFFFFFFFFFFFFFFFFFFFFFF AND EQ PUSH2 0x1465 JUMPI PUSH1 0x40 MLOAD PUSH32 0x5C427CD900000000000000000000000000000000000000000000000000000000 DUP2 MSTORE PUSH1 0x4 ADD PUSH1 0x40 MLOAD DUP1 SWAP2 SUB SWAP1 REVERT JUMPDEST DUP2 PUSH1 0xC0 ADD CALLDATALOAD TIMESTAMP LT ISZERO PUSH2 0x14A3 JUMPI PUSH1 0x40 MLOAD PUSH32 0xF8D10E8200000000000000000000000000000000000000000000000000000000 DUP2 MSTORE PUSH1 0x4 ADD PUSH1 0x40 MLOAD DUP1 SWAP2 SUB SWAP1 REVERT JUMPDEST PUSH0 PUSH2 0x14AD DUP4 PUSH2 0x1A93 JUMP JUMPDEST SWAP1 POP DUP4 DUP2 EQ PUSH2 0x14E8 JUMPI PUSH1 0x40 MLOAD PUSH32 0xE523909000000000000000000000000000000000000000000000000000000000 DUP2 MSTORE PUSH1 0x4 ADD PUSH1 0x40 MLOAD DUP1 SWAP2 SUB SWAP1 REVERT JUMPDEST PUSH1 0x1 DUP3 PUSH0 ADD PUSH1 0x3 PUSH2 0x100 EXP DUP2 SLOAD DUP2 PUSH1 0xFF MUL NOT AND SWAP1 DUP4 ISZERO ISZERO MUL OR SWAP1 SSTORE POP DUP2 PUSH0 ADD PUSH1 0x4 SWAP1 SLOAD SWAP1 PUSH2 0x100 EXP SWAP1 DIV PUSH20 0xFFFFFFFFFFFFFFFFFFFFFFFFFFFFFFFFFFFFFFFF AND PUSH20 0xFFFFFFFFFFFFFFFFFFFFFFFFFFFFFFFFFFFFFFFF AND PUSH4 0xEA8A1AF0 PUSH1 0x40 MLOAD DUP2 PUSH4 0xFFFFFFFF AND PUSH1 0xE0 SHL DUP2 MSTORE PUSH1 0x4 ADD PUSH0 PUSH1 0x40 MLOAD DUP1 DUP4 SUB DUP2 PUSH0 DUP8 DUP1 EXTCODESIZE ISZERO DUP1 ISZERO PUSH2 0x156C JUMPI PUSH0 DUP1 REVERT JUMPDEST POP GAS CALL ISZERO DUP1 ISZERO PUSH2 0x157E JUMPI RETURNDATASIZE PUSH0 DUP1 RETURNDATACOPY RETURNDATASIZE PUSH0 REVERT JUMPDEST POP POP POP POP DUP2 PUSH0 ADD PUSH1 0x1 SWAP1 SLOAD SWAP1 PUSH2 0x100 EXP SWAP1 DIV PUSH1 0xFF AND ISZERO PUSH2 0x1617 JUMPI DUP2 PUSH1 0x1 ADD PUSH0 SWAP1 SLOAD SWAP1 PUSH2 0x100 EXP SWAP1 DIV PUSH20 0xFFFFFFFFFFFFFFFFFFFFFFFFFFFFFFFFFFFFFFFF AND PUSH20 0xFFFFFFFFFFFFFFFFFFFFFFFFFFFFFFFFFFFFFFFF AND PUSH4 0x590E1AE3 PUSH1 0x40 MLOAD DUP2 PUSH4 0xFFFFFFFF AND PUSH1 0xE0 SHL DUP2 MSTORE PUSH1 0x4 ADD PUSH0 PUSH1 0x40 MLOAD DUP1 DUP4 SUB DUP2 PUSH0 DUP8 DUP1 EXTCODESIZE ISZERO DUP1 ISZERO PUSH2 0x1600 JUMPI PUSH0 DUP1 REVERT JUMPDEST POP GAS CALL ISZERO DUP1 ISZERO PUSH2 0x1612 JUMPI RETURNDATASIZE PUSH0 DUP1 RETURNDATACOPY RETURNDATASIZE PUSH0 REVERT JUMPDEST POP POP POP POP JUMPDEST DUP4 PUSH32 0x5152ABF959F6564662358C2E52B702259B78BAC5EE7842A0F01937E670EFCC7D PUSH1 0x40 MLOAD PUSH1 0x40 MLOAD DUP1 SWAP2 SUB SWAP1 LOG2 POP POP PUSH2 0x164E PUSH2 0x1BDD JUMP JUMPDEST POP POP JUMP JUMPDEST PUSH2 0x165A PUSH2 0x1A4D JUMP JUMPDEST PUSH0 PUSH1 0x2 PUSH0 DUP5 DUP2 MSTORE PUSH1 0x20 ADD SWAP1 DUP2 MSTORE PUSH1 0x20 ADD PUSH0 KECCAK256 SWAP1 POP DUP1 PUSH0 ADD PUSH0 SWAP1 SLOAD SWAP1 PUSH2 0x100 EXP SWAP1 DIV PUSH1 0xFF AND PUSH2 0x16B4 JUMPI PUSH1 0x40 MLOAD PUSH32 0xD36D896500000000000000000000000000000000000000000000000000000000 DUP2 MSTORE PUSH1 0x4 ADD PUSH1 0x40 MLOAD DUP1 SWAP2 SUB SWAP1 REVERT JUMPDEST DUP1 PUSH0 ADD PUSH1 0x1 SWAP1 SLOAD SWAP1 PUSH2 0x100 EXP SWAP1 DIV PUSH1 0xFF AND ISZERO PUSH2 0x16FC JUMPI PUSH1 0x40 MLOAD PUSH32 0xEE3B3D4B00000000000000000000000000000000000000000000000000000000 DUP2 MSTORE PUSH1 0x4 ADD PUSH1 0x40 MLOAD DUP1 SWAP2 SUB SWAP1 REVERT JUMPDEST DUP1 PUSH0 ADD PUSH1 0x3 SWAP1 SLOAD SWAP1 PUSH2 0x100 EXP SWAP1 DIV PUSH1 0xFF AND ISZERO PUSH2 0x1744 JUMPI PUSH1 0x40 MLOAD PUSH32 0x7C87A47200000000000000000000000000000000000000000000000000000000 DUP2 MSTORE PUSH1 0x4 ADD PUSH1 0x40 MLOAD DUP1 SWAP2 SUB SWAP1 REVERT JUMPDEST DUP2 PUSH1 0xC0 ADD CALLDATALOAD TIMESTAMP LT PUSH2 0x1781 JUMPI PUSH1 0x40 MLOAD PUSH32 0xF8D10E8200000000000000000000000000000000000000000000000000000000 DUP2 MSTORE PUSH1 0x4 ADD PUSH1 0x40 MLOAD DUP1 SWAP2 SUB SWAP1 REVERT JUMPDEST PUSH0 PUSH2 0x178B DUP4 PUSH2 0x1A93 JUMP JUMPDEST SWAP1 POP DUP4 DUP2 EQ PUSH2 0x17C6 JUMPI PUSH1 0x40 MLOAD PUSH32 0xE523909000000000000000000000000000000000000000000000000000000000 DUP2 MSTORE PUSH1 0x4 ADD PUSH1 0x40 MLOAD DUP1 SWAP2 SUB SWAP1 REVERT JUMPDEST CALLER DUP3 PUSH1 0x2 ADD PUSH0 PUSH2 0x100 EXP DUP2 SLOAD DUP2 PUSH20 0xFFFFFFFFFFFFFFFFFFFFFFFFFFFFFFFFFFFFFFFF MUL NOT AND SWAP1 DUP4 PUSH20 0xFFFFFFFFFFFFFFFFFFFFFFFFFFFFFFFFFFFFFFFF AND MUL OR SWAP1 SSTORE POP PUSH1 0x1 DUP3 PUSH0 ADD PUSH1 0x1 PUSH2 0x100 EXP DUP2 SLOAD DUP2 PUSH1 0xFF MUL NOT AND SWAP1 DUP4 ISZERO ISZERO MUL OR SWAP1 SSTORE POP DUP2 PUSH0 ADD PUSH1 0x4 SWAP1 SLOAD SWAP1 PUSH2 0x100 EXP SWAP1 DIV PUSH20 0xFFFFFFFFFFFFFFFFFFFFFFFFFFFFFFFFFFFFFFFF AND PUSH20 0xFFFFFFFFFFFFFFFFFFFFFFFFFFFFFFFFFFFFFFFF AND PUSH4 0x11FCA4B7 CALLER PUSH1 0x40 MLOAD DUP3 PUSH4 0xFFFFFFFF AND PUSH1 0xE0 SHL DUP2 MSTORE PUSH1 0x4 ADD PUSH2 0x1880 SWAP2 SWAP1 PUSH2 0x227D JUMP JUMPDEST PUSH0 PUSH1 0x40 MLOAD DUP1 DUP4 SUB DUP2 PUSH0 DUP8 DUP1 EXTCODESIZE ISZERO DUP1 ISZERO PUSH2 0x1897 JUMPI PUSH0 DUP1 REVERT JUMPDEST POP GAS CALL ISZERO DUP1 ISZERO PUSH2 0x18A9 JUMPI RETURNDATASIZE PUSH0 DUP1 RETURNDATACOPY RETURNDATASIZE PUSH0 REVERT JUMPDEST POP POP POP POP DUP2 PUSH1 0x1 ADD PUSH0 SWAP1 SLOAD SWAP1 PUSH2 0x100 EXP SWAP1 DIV PUSH20 0xFFFFFFFFFFFFFFFFFFFFFFFFFFFFFFFFFFFFFFFF AND PUSH20 0xFFFFFFFFFFFFFFFFFFFFFFFFFFFFFFFFFFFFFFFF AND PUSH4 0xA511C195 DUP6 CALLER DUP7 PUSH1 0x60 ADD PUSH1 0x20 DUP2 ADD SWAP1 PUSH2 0x1901 SWAP2 SWAP1 PUSH2 0x1FBE JUMP JUMPDEST DUP8 PUSH1 0x80 ADD CALLDATALOAD DUP9 PUSH1 0xA0 ADD CALLDATALOAD DUP10 PUSH1 0xC0 ADD CALLDATALOAD DUP11 PUSH0 ADD PUSH1 0x20 DUP2 ADD SWAP1 PUSH2 0x1922 SWAP2 SWAP1 PUSH2 0x1FBE JUMP JUMPDEST PUSH1 0x40 MLOAD DUP9 PUSH4 0xFFFFFFFF AND PUSH1 0xE0 SHL DUP2 MSTORE PUSH1 0x4 ADD PUSH2 0x1944 SWAP8 SWAP7 SWAP6 SWAP5 SWAP4 SWAP3 SWAP2 SWAP1 PUSH2 0x2B09 JUMP JUMPDEST PUSH0 PUSH1 0x40 MLOAD DUP1 DUP4 SUB DUP2 PUSH0 DUP8 DUP1 EXTCODESIZE ISZERO DUP1 ISZERO PUSH2 0x195B JUMPI PUSH0 DUP1 REVERT JUMPDEST POP GAS CALL ISZERO DUP1 ISZERO PUSH2 0x196D JUMPI RETURNDATASIZE PUSH0 DUP1 RETURNDATACOPY RETURNDATASIZE PUSH0 REVERT JUMPDEST POP POP POP POP CALLER PUSH20 0xFFFFFFFFFFFFFFFFFFFFFFFFFFFFFFFFFFFFFFFF AND DUP5 PUSH32 0x555709E59FB225FCF12CC582A9E5F7FD8EEA54C91F3DC500AB9D8C37C507770 PUSH1 0x40 MLOAD PUSH1 0x40 MLOAD DUP1 SWAP2 SUB SWAP1 LOG3 POP POP PUSH2 0x19BF PUSH2 0x1BDD JUMP JUMPDEST POP POP JUMP JUMPDEST PUSH2 0x19CB PUSH2 0x1BE6 JUMP JUMPDEST PUSH0 PUSH20 0xFFFFFFFFFFFFFFFFFFFFFFFFFFFFFFFFFFFFFFFF AND DUP2 PUSH20 0xFFFFFFFFFFFFFFFFFFFFFFFFFFFFFFFFFFFFFFFF AND SUB PUSH2 0x1A3B JUMPI PUSH0 PUSH1 0x40 MLOAD PUSH32 0x1E4FBDF700000000000000000000000000000000000000000000000000000000 DUP2 MSTORE PUSH1 0x4 ADD PUSH2 0x1A32 SWAP2 SWAP1 PUSH2 0x227D JUMP JUMPDEST PUSH1 0x40 MLOAD DUP1 SWAP2 SUB SWAP1 REVERT JUMPDEST PUSH2 0x1A44 DUP2 PUSH2 0x1C6D JUMP JUMPDEST POP JUMP JUMPDEST PUSH2 0xE10 DUP2 JUMP JUMPDEST PUSH1 0x2 PUSH1 0x1 SLOAD SUB PUSH2 0x1A89 JUMPI PUSH1 0x40 MLOAD PUSH32 0x3EE5AEB500000000000000000000000000000000000000000000000000000000 DUP2 MSTORE PUSH1 0x4 ADD PUSH1 0x40 MLOAD DUP1 SWAP2 SUB SWAP1 REVERT JUMPDEST PUSH1 0x2 PUSH1 0x1 DUP2 SWAP1 SSTORE POP JUMP JUMPDEST PUSH0 DUP2 PUSH0 ADD PUSH1 0x20 DUP2 ADD SWAP1 PUSH2 0x1AA6 SWAP2 SWAP1 PUSH2 0x1FBE JUMP JUMPDEST DUP3 PUSH1 0x20 ADD PUSH1 0x20 DUP2 ADD SWAP1 PUSH2 0x1AB9 SWAP2 SWAP1 PUSH2 0x1FBE JUMP JUMPDEST DUP4 PUSH1 0x40 ADD CALLDATALOAD DUP5 PUSH1 0x60 ADD PUSH1 0x20 DUP2 ADD SWAP1 PUSH2 0x1AD1 SWAP2 SWAP1 PUSH2 0x1FBE JUMP JUMPDEST DUP6 PUSH1 0x80 ADD CALLDATALOAD DUP7 PUSH1 0xA0 ADD CALLDATALOAD DUP8 PUSH1 0xC0 ADD CALLDATALOAD DUP9 PUSH1 0xE0 ADD CALLDATALOAD DUP10 PUSH2 0x100 ADD CALLDATALOAD PUSH1 0x40 MLOAD PUSH1 0x20 ADD PUSH2 0x1B03 SWAP10 SWAP9 SWAP8 SWAP7 SWAP6 SWAP5 SWAP4 SWAP3 SWAP2 SWAP1 PUSH2 0x2348 JUMP JUMPDEST PUSH1 0x40 MLOAD PUSH1 0x20 DUP2 DUP4 SUB SUB DUP2 MSTORE SWAP1 PUSH1 0x40 MSTORE DUP1 MLOAD SWAP1 PUSH1 0x20 ADD KECCAK256 SWAP1 POP SWAP2 SWAP1 POP JUMP JUMPDEST PUSH0 DUP1 PUSH0 DUP5 DUP5 PUSH1 0x40 MLOAD PUSH1 0x20 ADD PUSH2 0x1B36 SWAP3 SWAP2 SWAP1 PUSH2 0x2A53 JUMP JUMPDEST PUSH1 0x40 MLOAD PUSH1 0x20 DUP2 DUP4 SUB SUB DUP2 MSTORE SWAP1 PUSH1 0x40 MSTORE DUP1 MLOAD SWAP1 PUSH1 0x20 ADD KECCAK256 SWAP1 POP PUSH0 DUP6 DUP6 PUSH1 0x40 MLOAD PUSH1 0x20 ADD PUSH2 0x1B62 SWAP3 SWAP2 SWAP1 PUSH2 0x2AD3 JUMP JUMPDEST PUSH1 0x40 MLOAD PUSH1 0x20 DUP2 DUP4 SUB SUB DUP2 MSTORE SWAP1 PUSH1 0x40 MSTORE DUP1 MLOAD SWAP1 PUSH1 0x20 ADD KECCAK256 SWAP1 POP DUP2 PUSH1 0x40 MLOAD PUSH2 0x1B87 SWAP1 PUSH2 0x1E9B JUMP JUMPDEST DUP2 SWAP1 PUSH1 0x40 MLOAD DUP1 SWAP2 SUB SWAP1 PUSH0 CREATE2 SWAP1 POP DUP1 ISZERO DUP1 ISZERO PUSH2 0x1BA4 JUMPI RETURNDATASIZE PUSH0 DUP1 RETURNDATACOPY RETURNDATASIZE PUSH0 REVERT JUMPDEST POP SWAP4 POP DUP1 PUSH1 0x40 MLOAD PUSH2 0x1BB4 SWAP1 PUSH2 0x1EA8 JUMP JUMPDEST DUP2 SWAP1 PUSH1 0x40 MLOAD DUP1 SWAP2 SUB SWAP1 PUSH0 CREATE2 SWAP1 POP DUP1 ISZERO DUP1 ISZERO PUSH2 0x1BD1 JUMPI RETURNDATASIZE PUSH0 DUP1 RETURNDATACOPY RETURNDATASIZE PUSH0 REVERT JUMPDEST POP SWAP3 POP POP POP SWAP3 POP SWAP3 SWAP1 POP JUMP JUMPDEST PUSH1 0x1 DUP1 DUP2 SWAP1 SSTORE POP JUMP JUMPDEST PUSH2 0x1BEE PUSH2 0x1D42 JUMP JUMPDEST PUSH20 0xFFFFFFFFFFFFFFFFFFFFFFFFFFFFFFFFFFFFFFFF AND PUSH2 0x1C0C PUSH2 0x1085 JUMP JUMPDEST PUSH20 0xFFFFFFFFFFFFFFFFFFFFFFFFFFFFFFFFFFFFFFFF AND EQ PUSH2 0x1C6B JUMPI PUSH2 0x1C2F PUSH2 0x1D42 JUMP JUMPDEST PUSH1 0x40 MLOAD PUSH32 0x118CDAA700000000000000000000000000000000000000000000000000000000 DUP2 MSTORE PUSH1 0x4 ADD PUSH2 0x1C62 SWAP2 SWAP1 PUSH2 0x227D JUMP JUMPDEST PUSH1 0x40 MLOAD DUP1 SWAP2 SUB SWAP1 REVERT JUMPDEST JUMP JUMPDEST PUSH0 DUP1 PUSH0 SWAP1 SLOAD SWAP1 PUSH2 0x100 EXP SWAP1 DIV PUSH20 0xFFFFFFFFFFFFFFFFFFFFFFFFFFFFFFFFFFFFFFFF AND SWAP1 POP DUP2 PUSH0 DUP1 PUSH2 0x100 EXP DUP2 SLOAD DUP2 PUSH20 0xFFFFFFFFFFFFFFFFFFFFFFFFFFFFFFFFFFFFFFFF MUL NOT AND SWAP1 DUP4 PUSH20 0xFFFFFFFFFFFFFFFFFFFFFFFFFFFFFFFFFFFFFFFF AND MUL OR SWAP1 SSTORE POP DUP2 PUSH20 0xFFFFFFFFFFFFFFFFFFFFFFFFFFFFFFFFFFFFFFFF AND DUP2 PUSH20 0xFFFFFFFFFFFFFFFFFFFFFFFFFFFFFFFFFFFFFFFF AND PUSH32 0x8BE0079C531659141344CD1FD0A4F28419497F9722A3DAAFE3B4186F6B6457E0 PUSH1 0x40 MLOAD PUSH1 0x40 MLOAD DUP1 SWAP2 SUB SWAP1 LOG3 POP POP JUMP JUMPDEST PUSH0 PUSH2 0x1D3A DUP4 DUP4 ADDRESS PUSH2 0x1D49 JUMP JUMPDEST SWAP1 POP SWAP3 SWAP2 POP POP JUMP JUMPDEST PUSH0 CALLER SWAP1 POP SWAP1 JUMP JUMPDEST PUSH0 PUSH1 0x40 MLOAD DUP4 PUSH1 0x40 DUP3 ADD MSTORE DUP5 PUSH1 0x20 DUP3 ADD MSTORE DUP3 DUP2 MSTORE PUSH1 0xB DUP2 ADD PUSH1 0xFF DUP2 MSTORE8 PUSH20 0xFFFFFFFFFFFFFFFFFFFFFFFFFFFFFFFFFFFFFFFF PUSH1 0x55 DUP3 KECCAK256 AND SWAP3 POP POP POP SWAP4 SWAP3 POP POP POP JUMP JUMPDEST PUSH1 0x40 MLOAD DUP1 PUSH2 0x100 ADD PUSH1 0x40 MSTORE DUP1 PUSH0 ISZERO ISZERO DUP2 MSTORE PUSH1 0x20 ADD PUSH0 ISZERO ISZERO DUP2 MSTORE PUSH1 0x20 ADD PUSH0 ISZERO ISZERO DUP2 MSTORE PUSH1 0x20 ADD PUSH0 ISZERO ISZERO DUP2 MSTORE PUSH1 0x20 ADD PUSH0 PUSH20 0xFFFFFFFFFFFFFFFFFFFFFFFFFFFFFFFFFFFFFFFF AND DUP2 MSTORE PUSH1 0x20 ADD PUSH0 PUSH20 0xFFFFFFFFFFFFFFFFFFFFFFFFFFFFFFFFFFFFFFFF AND DUP2 MSTORE PUSH1 0x20 ADD PUSH0 PUSH20 0xFFFFFFFFFFFFFFFFFFFFFFFFFFFFFFFFFFFFFFFF AND DUP2 MSTORE PUSH1 0x20 ADD PUSH0 DUP2 MSTORE POP SWAP1 JUMP JUMPDEST PUSH1 0x40 MLOAD DUP1 PUSH2 0x120 ADD PUSH1 0x40 MSTORE DUP1 PUSH0 PUSH20 0xFFFFFFFFFFFFFFFFFFFFFFFFFFFFFFFFFFFFFFFF AND DUP2 MSTORE PUSH1 0x20 ADD PUSH0 PUSH20 0xFFFFFFFFFFFFFFFFFFFFFFFFFFFFFFFFFFFFFFFF AND DUP2 MSTORE PUSH1 0x20 ADD PUSH0 DUP2 MSTORE PUSH1 0x20 ADD PUSH0 PUSH20 0xFFFFFFFFFFFFFFFFFFFFFFFFFFFFFFFFFFFFFFFF AND DUP2 MSTORE PUSH1 0x20 ADD PUSH0 DUP2 MSTORE PUSH1 0x20 ADD PUSH0 DUP1 NOT AND DUP2 MSTORE PUSH1 0x20 ADD PUSH0 DUP2 MSTORE PUSH1 0x20 ADD PUSH0 DUP2 MSTORE PUSH1 0x20 ADD PUSH0 DUP1 NOT AND DUP2 MSTORE POP SWAP1 JUMP JUMPDEST PUSH2 0x161B DUP1 PUSH2 0x2B77 DUP4 CODECOPY ADD SWAP1 JUMP JUMPDEST PUSH2 0x15A7 DUP1 PUSH2 0x4192 DUP4 CODECOPY ADD SWAP1 JUMP JUMPDEST PUSH0 DUP1 REVERT JUMPDEST PUSH0 DUP1 REVERT JUMPDEST PUSH0 PUSH2 0x120 DUP3 DUP5 SUB SLT ISZERO PUSH2 0x1ED3 JUMPI PUSH2 0x1ED2 PUSH2 0x1EB9 JUMP JUMPDEST JUMPDEST DUP2 SWAP1 POP SWAP3 SWAP2 POP POP JUMP JUMPDEST PUSH0 PUSH2 0x120 DUP3 DUP5 SUB SLT ISZERO PUSH2 0x1EF2 JUMPI PUSH2 0x1EF1 PUSH2 0x1EB5 JUMP JUMPDEST JUMPDEST PUSH0 PUSH2 0x1EFF DUP5 DUP3 DUP6 ADD PUSH2 0x1EBD JUMP JUMPDEST SWAP2 POP POP SWAP3 SWAP2 POP POP JUMP JUMPDEST PUSH0 DUP2 SWAP1 POP SWAP2 SWAP1 POP JUMP JUMPDEST PUSH2 0x1F1A DUP2 PUSH2 0x1F08 JUMP JUMPDEST DUP3 MSTORE POP POP JUMP JUMPDEST PUSH0 PUSH20 0xFFFFFFFFFFFFFFFFFFFFFFFFFFFFFFFFFFFFFFFF DUP3 AND SWAP1 POP SWAP2 SWAP1 POP JUMP JUMPDEST PUSH0 PUSH2 0x1F49 DUP3 PUSH2 0x1F20 JUMP JUMPDEST SWAP1 POP SWAP2 SWAP1 POP JUMP JUMPDEST PUSH2 0x1F59 DUP2 PUSH2 0x1F3F JUMP JUMPDEST DUP3 MSTORE POP POP JUMP JUMPDEST PUSH0 PUSH1 0x60 DUP3 ADD SWAP1 POP PUSH2 0x1F72 PUSH0 DUP4 ADD DUP7 PUSH2 0x1F11 JUMP JUMPDEST PUSH2 0x1F7F PUSH1 0x20 DUP4 ADD DUP6 PUSH2 0x1F50 JUMP JUMPDEST PUSH2 0x1F8C PUSH1 0x40 DUP4 ADD DUP5 PUSH2 0x1F50 JUMP JUMPDEST SWAP5 SWAP4 POP POP POP POP JUMP JUMPDEST PUSH2 0x1F9D DUP2 PUSH2 0x1F3F JUMP JUMPDEST DUP2 EQ PUSH2 0x1FA7 JUMPI PUSH0 DUP1 REVERT JUMPDEST POP JUMP JUMPDEST PUSH0 DUP2 CALLDATALOAD SWAP1 POP PUSH2 0x1FB8 DUP2 PUSH2 0x1F94 JUMP JUMPDEST SWAP3 SWAP2 POP POP JUMP JUMPDEST PUSH0 PUSH1 0x20 DUP3 DUP5 SUB SLT ISZERO PUSH2 0x1FD3 JUMPI PUSH2 0x1FD2 PUSH2 0x1EB5 JUMP JUMPDEST JUMPDEST PUSH0 PUSH2 0x1FE0 DUP5 DUP3 DUP6 ADD PUSH2 0x1FAA JUMP JUMPDEST SWAP2 POP POP SWAP3 SWAP2 POP POP JUMP JUMPDEST PUSH0 DUP2 SWAP1 POP SWAP2 SWAP1 POP JUMP JUMPDEST PUSH2 0x1FFB DUP2 PUSH2 0x1FE9 JUMP JUMPDEST DUP3 MSTORE POP POP JUMP JUMPDEST PUSH0 PUSH1 0x20 DUP3 ADD SWAP1 POP PUSH2 0x2014 PUSH0 DUP4 ADD DUP5 PUSH2 0x1FF2 JUMP JUMPDEST SWAP3 SWAP2 POP POP JUMP JUMPDEST PUSH2 0x2023 DUP2 PUSH2 0x1F08 JUMP JUMPDEST DUP2 EQ PUSH2 0x202D JUMPI PUSH0 DUP1 REVERT JUMPDEST POP JUMP JUMPDEST PUSH0 DUP2 CALLDATALOAD SWAP1 POP PUSH2 0x203E DUP2 PUSH2 0x201A JUMP JUMPDEST SWAP3 SWAP2 POP POP JUMP JUMPDEST PUSH0 PUSH1 0x20 DUP3 DUP5 SUB SLT ISZERO PUSH2 0x2059 JUMPI PUSH2 0x2058 PUSH2 0x1EB5 JUMP JUMPDEST JUMPDEST PUSH0 PUSH2 0x2066 DUP5 DUP3 DUP6 ADD PUSH2 0x2030 JUMP JUMPDEST SWAP2 POP POP SWAP3 SWAP2 POP POP JUMP JUMPDEST PUSH0 DUP2 ISZERO ISZERO SWAP1 POP SWAP2 SWAP1 POP JUMP JUMPDEST PUSH2 0x2083 DUP2 PUSH2 0x206F JUMP JUMPDEST DUP3 MSTORE POP POP JUMP JUMPDEST PUSH2 0x2092 DUP2 PUSH2 0x1F3F JUMP JUMPDEST DUP3 MSTORE POP POP JUMP JUMPDEST PUSH2 0x20A1 DUP2 PUSH2 0x1FE9 JUMP JUMPDEST DUP3 MSTORE POP POP JUMP JUMPDEST PUSH2 0x100 DUP3 ADD PUSH0 DUP3 ADD MLOAD PUSH2 0x20BC PUSH0 DUP6 ADD DUP3 PUSH2 0x207A JUMP JUMPDEST POP PUSH1 0x20 DUP3 ADD MLOAD PUSH2 0x20CF PUSH1 0x20 DUP6 ADD DUP3 PUSH2 0x207A JUMP JUMPDEST POP PUSH1 0x40 DUP3 ADD MLOAD PUSH2 0x20E2 PUSH1 0x40 DUP6 ADD DUP3 PUSH2 0x207A JUMP JUMPDEST POP PUSH1 0x60 DUP3 ADD MLOAD PUSH2 0x20F5 PUSH1 0x60 DUP6 ADD DUP3 PUSH2 0x207A JUMP JUMPDEST POP PUSH1 0x80 DUP3 ADD MLOAD PUSH2 0x2108 PUSH1 0x80 DUP6 ADD DUP3 PUSH2 0x2089 JUMP JUMPDEST POP PUSH1 0xA0 DUP3 ADD MLOAD PUSH2 0x211B PUSH1 0xA0 DUP6 ADD DUP3 PUSH2 0x2089 JUMP JUMPDEST POP PUSH1 0xC0 DUP3 ADD MLOAD PUSH2 0x212E PUSH1 0xC0 DUP6 ADD DUP3 PUSH2 0x2089 JUMP JUMPDEST POP PUSH1 0xE0 DUP3 ADD MLOAD PUSH2 0x2141 PUSH1 0xE0 DUP6 ADD DUP3 PUSH2 0x2098 JUMP JUMPDEST POP POP POP POP JUMP JUMPDEST PUSH0 PUSH2 0x100 DUP3 ADD SWAP1 POP PUSH2 0x215B PUSH0 DUP4 ADD DUP5 PUSH2 0x20A7 JUMP JUMPDEST SWAP3 SWAP2 POP POP JUMP JUMPDEST PUSH2 0x216A DUP2 PUSH2 0x1F08 JUMP JUMPDEST DUP3 MSTORE POP POP JUMP JUMPDEST PUSH2 0x120 DUP3 ADD PUSH0 DUP3 ADD MLOAD PUSH2 0x2185 PUSH0 DUP6 ADD DUP3 PUSH2 0x2089 JUMP JUMPDEST POP PUSH1 0x20 DUP3 ADD MLOAD PUSH2 0x2198 PUSH1 0x20 DUP6 ADD DUP3 PUSH2 0x2089 JUMP JUMPDEST POP PUSH1 0x40 DUP3 ADD MLOAD PUSH2 0x21AB PUSH1 0x40 DUP6 ADD DUP3 PUSH2 0x2098 JUMP JUMPDEST POP PUSH1 0x60 DUP3 ADD MLOAD PUSH2 0x21BE PUSH1 0x60 DUP6 ADD DUP3 PUSH2 0x2089 JUMP JUMPDEST POP PUSH1 0x80 DUP3 ADD MLOAD PUSH2 0x21D1 PUSH1 0x80 DUP6 ADD DUP3 PUSH2 0x2098 JUMP JUMPDEST POP PUSH1 0xA0 DUP3 ADD MLOAD PUSH2 0x21E4 PUSH1 0xA0 DUP6 ADD DUP3 PUSH2 0x2161 JUMP JUMPDEST POP PUSH1 0xC0 DUP3 ADD MLOAD PUSH2 0x21F7 PUSH1 0xC0 DUP6 ADD DUP3 PUSH2 0x2098 JUMP JUMPDEST POP PUSH1 0xE0 DUP3 ADD MLOAD PUSH2 0x220A PUSH1 0xE0 DUP6 ADD DUP3 PUSH2 0x2098 JUMP JUMPDEST POP PUSH2 0x100 DUP3 ADD MLOAD PUSH2 0x221F PUSH2 0x100 DUP6 ADD DUP3 PUSH2 0x2161 JUMP JUMPDEST POP POP POP POP JUMP JUMPDEST PUSH0 PUSH2 0x120 DUP3 ADD SWAP1 POP PUSH2 0x2239 PUSH0 DUP4 ADD DUP5 PUSH2 0x2170 JUMP JUMPDEST SWAP3 SWAP2 POP POP JUMP JUMPDEST PUSH0 DUP1 PUSH1 0x40 DUP4 DUP6 SUB SLT ISZERO PUSH2 0x2255 JUMPI PUSH2 0x2254 PUSH2 0x1EB5 JUMP JUMPDEST JUMPDEST PUSH0 PUSH2 0x2262 DUP6 DUP3 DUP7 ADD PUSH2 0x2030 JUMP JUMPDEST SWAP3 POP POP PUSH1 0x20 PUSH2 0x2273 DUP6 DUP3 DUP7 ADD PUSH2 0x2030 JUMP JUMPDEST SWAP2 POP POP SWAP3 POP SWAP3 SWAP1 POP JUMP JUMPDEST PUSH0 PUSH1 0x20 DUP3 ADD SWAP1 POP PUSH2 0x2290 PUSH0 DUP4 ADD DUP5 PUSH2 0x1F50 JUMP JUMPDEST SWAP3 SWAP2 POP POP JUMP JUMPDEST PUSH0 PUSH1 0x40 DUP3 ADD SWAP1 POP PUSH2 0x22A9 PUSH0 DUP4 ADD DUP6 PUSH2 0x1F50 JUMP JUMPDEST PUSH2 0x22B6 PUSH1 0x20 DUP4 ADD DUP5 PUSH2 0x1F50 JUMP JUMPDEST SWAP4 SWAP3 POP POP POP JUMP JUMPDEST PUSH2 0x22C6 DUP2 PUSH2 0x206F JUMP JUMPDEST DUP3 MSTORE POP POP JUMP JUMPDEST PUSH0 PUSH2 0x100 DUP3 ADD SWAP1 POP PUSH2 0x22E0 PUSH0 DUP4 ADD DUP12 PUSH2 0x22BD JUMP JUMPDEST PUSH2 0x22ED PUSH1 0x20 DUP4 ADD DUP11 PUSH2 0x22BD JUMP JUMPDEST PUSH2 0x22FA PUSH1 0x40 DUP4 ADD DUP10 PUSH2 0x22BD JUMP JUMPDEST PUSH2 0x2307 PUSH1 0x60 DUP4 ADD DUP9 PUSH2 0x22BD JUMP JUMPDEST PUSH2 0x2314 PUSH1 0x80 DUP4 ADD DUP8 PUSH2 0x1F50 JUMP JUMPDEST PUSH2 0x2321 PUSH1 0xA0 DUP4 ADD DUP7 PUSH2 0x1F50 JUMP JUMPDEST PUSH2 0x232E PUSH1 0xC0 DUP4 ADD DUP6 PUSH2 0x1F50 JUMP JUMPDEST PUSH2 0x233B PUSH1 0xE0 DUP4 ADD DUP5 PUSH2 0x1FF2 JUMP JUMPDEST SWAP10 SWAP9 POP POP POP POP POP POP POP POP POP JUMP JUMPDEST PUSH0 PUSH2 0x120 DUP3 ADD SWAP1 POP PUSH2 0x235C PUSH0 DUP4 ADD DUP13 PUSH2 0x1F50 JUMP JUMPDEST PUSH2 0x2369 PUSH1 0x20 DUP4 ADD DUP12 PUSH2 0x1F50 JUMP JUMPDEST PUSH2 0x2376 PUSH1 0x40 DUP4 ADD DUP11 PUSH2 0x1FF2 JUMP JUMPDEST PUSH2 0x2383 PUSH1 0x60 DUP4 ADD DUP10 PUSH2 0x1F50 JUMP JUMPDEST PUSH2 0x2390 PUSH1 0x80 DUP4 ADD DUP9 PUSH2 0x1FF2 JUMP JUMPDEST PUSH2 0x239D PUSH1 0xA0 DUP4 ADD DUP8 PUSH2 0x1F11 JUMP JUMPDEST PUSH2 0x23AA PUSH1 0xC0 DUP4 ADD DUP7 PUSH2 0x1FF2 JUMP JUMPDEST PUSH2 0x23B7 PUSH1 0xE0 DUP4 ADD DUP6 PUSH2 0x1FF2 JUMP JUMPDEST PUSH2 0x23C5 PUSH2 0x100 DUP4 ADD DUP5 PUSH2 0x1F11 JUMP JUMPDEST SWAP11 SWAP10 POP POP POP POP POP POP POP POP POP POP JUMP JUMPDEST PUSH0 DUP1 PUSH2 0x140 DUP4 DUP6 SUB SLT ISZERO PUSH2 0x23EA JUMPI PUSH2 0x23E9 PUSH2 0x1EB5 JUMP JUMPDEST JUMPDEST PUSH0 PUSH2 0x23F7 DUP6 DUP3 DUP7 ADD PUSH2 0x2030 JUMP JUMPDEST SWAP3 POP POP PUSH1 0x20 PUSH2 0x2408 DUP6 DUP3 DUP7 ADD PUSH2 0x1EBD JUMP JUMPDEST SWAP2 POP POP SWAP3 POP SWAP3 SWAP1 POP JUMP JUMPDEST PUSH32 0x4E487B7100000000000000000000000000000000000000000000000000000000 PUSH0 MSTORE PUSH1 0x11 PUSH1 0x4 MSTORE PUSH1 0x24 PUSH0 REVERT JUMPDEST PUSH0 PUSH2 0x2449 DUP3 PUSH2 0x1FE9 JUMP JUMPDEST SWAP2 POP PUSH2 0x2454 DUP4 PUSH2 0x1FE9 JUMP JUMPDEST SWAP3 POP DUP3 DUP3 ADD SWAP1 POP DUP1 DUP3 GT ISZERO PUSH2 0x246C JUMPI PUSH2 0x246B PUSH2 0x2412 JUMP JUMPDEST JUMPDEST SWAP3 SWAP2 POP POP JUMP JUMPDEST PUSH0 PUSH1 0xC0 DUP3 ADD SWAP1 POP PUSH2 0x2485 PUSH0 DUP4 ADD DUP10 PUSH2 0x1F11 JUMP JUMPDEST PUSH2 0x2492 PUSH1 0x20 DUP4 ADD DUP9 PUSH2 0x1F50 JUMP JUMPDEST PUSH2 0x249F PUSH1 0x40 DUP4 ADD DUP8 PUSH2 0x1F50 JUMP JUMPDEST PUSH2 0x24AC PUSH1 0x60 DUP4 ADD DUP7 PUSH2 0x1FF2 JUMP JUMPDEST PUSH2 0x24B9 PUSH1 0x80 DUP4 ADD DUP6 PUSH2 0x1F11 JUMP JUMPDEST PUSH2 0x24C6 PUSH1 0xA0 DUP4 ADD DUP5 PUSH2 0x1FF2 JUMP JUMPDEST SWAP8 SWAP7 POP POP POP POP POP POP POP JUMP JUMPDEST PUSH0 DUP2 CALLDATALOAD PUSH2 0x24DD DUP2 PUSH2 0x1F94 JUMP JUMPDEST DUP1 SWAP2 POP POP SWAP2 SWAP1 POP JUMP JUMPDEST PUSH0 DUP2 PUSH0 SHL SWAP1 POP SWAP2 SWAP1 POP JUMP JUMPDEST PUSH0 PUSH20 0xFFFFFFFFFFFFFFFFFFFFFFFFFFFFFFFFFFFFFFFF PUSH2 0x2510 DUP5 PUSH2 0x24E6 JUMP JUMPDEST SWAP4 POP DUP1 NOT DUP4 AND SWAP3 POP DUP1 DUP5 AND DUP4 OR SWAP2 POP POP SWAP3 SWAP2 POP POP JUMP JUMPDEST PUSH0 DUP2 SWAP1 POP SWAP2 SWAP1 POP JUMP JUMPDEST PUSH0 PUSH2 0x2549 PUSH2 0x2544 PUSH2 0x253F DUP5 PUSH2 0x1F20 JUMP JUMPDEST PUSH2 0x2526 JUMP JUMPDEST PUSH2 0x1F20 JUMP JUMPDEST SWAP1 POP SWAP2 SWAP1 POP JUMP JUMPDEST PUSH0 PUSH2 0x255A DUP3 PUSH2 0x252F JUMP JUMPDEST SWAP1 POP SWAP2 SWAP1 POP JUMP JUMPDEST PUSH0 PUSH2 0x256B DUP3 PUSH2 0x2550 JUMP JUMPDEST SWAP1 POP SWAP2 SWAP1 POP JUMP JUMPDEST PUSH0 DUP2 SWAP1 POP SWAP2 SWAP1 POP JUMP JUMPDEST PUSH2 0x2584 DUP3 PUSH2 0x2561 JUMP JUMPDEST PUSH2 0x2597 PUSH2 0x2590 DUP3 PUSH2 0x2572 JUMP JUMPDEST DUP4 SLOAD PUSH2 0x24F1 JUMP JUMPDEST DUP3 SSTORE POP POP POP JUMP JUMPDEST PUSH2 0x25A7 DUP2 PUSH2 0x1FE9 JUMP JUMPDEST DUP2 EQ PUSH2 0x25B1 JUMPI PUSH0 DUP1 REVERT JUMPDEST POP JUMP JUMPDEST PUSH0 DUP2 CALLDATALOAD PUSH2 0x25C0 DUP2 PUSH2 0x259E JUMP JUMPDEST DUP1 SWAP2 POP POP SWAP2 SWAP1 POP JUMP JUMPDEST PUSH0 PUSH32 0xFFFFFFFFFFFFFFFFFFFFFFFFFFFFFFFFFFFFFFFFFFFFFFFFFFFFFFFFFFFFFFFF PUSH2 0x25F4 DUP5 PUSH2 0x24E6 JUMP JUMPDEST SWAP4 POP DUP1 NOT DUP4 AND SWAP3 POP DUP1 DUP5 AND DUP4 OR SWAP2 POP POP SWAP3 SWAP2 POP POP JUMP JUMPDEST PUSH0 PUSH2 0x2624 PUSH2 0x261F PUSH2 0x261A DUP5 PUSH2 0x1FE9 JUMP JUMPDEST PUSH2 0x2526 JUMP JUMPDEST PUSH2 0x1FE9 JUMP JUMPDEST SWAP1 POP SWAP2 SWAP1 POP JUMP JUMPDEST PUSH0 DUP2 SWAP1 POP SWAP2 SWAP1 POP JUMP JUMPDEST PUSH2 0x263D DUP3 PUSH2 0x260A JUMP JUMPDEST PUSH2 0x2650 PUSH2 0x2649 DUP3 PUSH2 0x262B JUMP JUMPDEST DUP4 SLOAD PUSH2 0x25C9 JUMP JUMPDEST DUP3 SSTORE POP POP POP JUMP JUMPDEST PUSH0 DUP2 CALLDATALOAD PUSH2 0x2663 DUP2 PUSH2 0x201A JUMP JUMPDEST DUP1 SWAP2 POP POP SWAP2 SWAP1 POP JUMP JUMPDEST PUSH0 PUSH2 0x2676 DUP3 PUSH2 0x1F08 JUMP JUMPDEST SWAP1 POP SWAP2 SWAP1 POP JUMP JUMPDEST PUSH0 DUP2 PUSH0 SHR SWAP1 POP SWAP2 SWAP1 POP JUMP JUMPDEST PUSH0 PUSH2 0x2692 DUP3 PUSH2 0x267D JUMP JUMPDEST SWAP1 POP SWAP2 SWAP1 POP JUMP JUMPDEST PUSH2 0x26A2 DUP3 PUSH2 0x266C JUMP JUMPDEST PUSH2 0x26B5 PUSH2 0x26AE DUP3 PUSH2 0x2688 JUMP JUMPDEST DUP4 SLOAD PUSH2 0x25C9 JUMP JUMPDEST DUP3 SSTORE POP POP POP JUMP JUMPDEST PUSH0 DUP2 ADD PUSH0 DUP4 ADD DUP1 PUSH2 0x26CC DUP2 PUSH2 0x24D1 JUMP JUMPDEST SWAP1 POP PUSH2 0x26D8 DUP2 DUP5 PUSH2 0x257B JUMP JUMPDEST POP POP POP PUSH1 0x1 DUP2 ADD PUSH1 0x20 DUP4 ADD DUP1 PUSH2 0x26ED DUP2 PUSH2 0x24D1 JUMP JUMPDEST SWAP1 POP PUSH2 0x26F9 DUP2 DUP5 PUSH2 0x257B JUMP JUMPDEST POP POP POP PUSH1 0x2 DUP2 ADD PUSH1 0x40 DUP4 ADD DUP1 PUSH2 0x270E DUP2 PUSH2 0x25B4 JUMP JUMPDEST SWAP1 POP PUSH2 0x271A DUP2 DUP5 PUSH2 0x2634 JUMP JUMPDEST POP POP POP PUSH1 0x3 DUP2 ADD PUSH1 0x60 DUP4 ADD DUP1 PUSH2 0x272F DUP2 PUSH2 0x24D1 JUMP JUMPDEST SWAP1 POP PUSH2 0x273B DUP2 DUP5 PUSH2 0x257B JUMP JUMPDEST POP POP POP PUSH1 0x4 DUP2 ADD PUSH1 0x80 DUP4 ADD DUP1 PUSH2 0x2750 DUP2 PUSH2 0x25B4 JUMP JUMPDEST SWAP1 POP PUSH2 0x275C DUP2 DUP5 PUSH2 0x2634 JUMP JUMPDEST POP POP POP PUSH1 0x5 DUP2 ADD PUSH1 0xA0 DUP4 ADD DUP1 PUSH2 0x2771 DUP2 PUSH2 0x2657 JUMP JUMPDEST SWAP1 POP PUSH2 0x277D DUP2 DUP5 PUSH2 0x2699 JUMP JUMPDEST POP POP POP PUSH1 0x6 DUP2 ADD PUSH1 0xC0 DUP4 ADD DUP1 PUSH2 0x2792 DUP2 PUSH2 0x25B4 JUMP JUMPDEST SWAP1 POP PUSH2 0x279E DUP2 DUP5 PUSH2 0x2634 JUMP JUMPDEST POP POP POP PUSH1 0x7 DUP2 ADD PUSH1 0xE0 DUP4 ADD DUP1 PUSH2 0x27B3 DUP2 PUSH2 0x25B4 JUMP JUMPDEST SWAP1 POP PUSH2 0x27BF DUP2 DUP5 PUSH2 0x2634 JUMP JUMPDEST POP POP POP PUSH1 0x8 DUP2 ADD PUSH2 0x100 DUP4 ADD DUP1 PUSH2 0x27D5 DUP2 PUSH2 0x2657 JUMP JUMPDEST SWAP1 POP PUSH2 0x27E1 DUP2 DUP5 PUSH2 0x2699 JUMP JUMPDEST POP POP POP POP POP JUMP JUMPDEST PUSH2 0x27F2 DUP3 DUP3 PUSH2 0x26BC JUMP JUMPDEST POP POP JUMP JUMPDEST PUSH0 PUSH2 0x2800 DUP3 PUSH2 0x1FE9 JUMP JUMPDEST SWAP2 POP PUSH32 0xFFFFFFFFFFFFFFFFFFFFFFFFFFFFFFFFFFFFFFFFFFFFFFFFFFFFFFFFFFFFFFFF DUP3 SUB PUSH2 0x2832 JUMPI PUSH2 0x2831 PUSH2 0x2412 JUMP JUMPDEST JUMPDEST PUSH1 0x1 DUP3 ADD SWAP1 POP SWAP2 SWAP1 POP JUMP JUMPDEST PUSH0 PUSH2 0x284B PUSH1 0x20 DUP5 ADD DUP5 PUSH2 0x1FAA JUMP JUMPDEST SWAP1 POP SWAP3 SWAP2 POP POP JUMP JUMPDEST PUSH0 DUP2 CALLDATALOAD SWAP1 POP PUSH2 0x2861 DUP2 PUSH2 0x259E JUMP JUMPDEST SWAP3 SWAP2 POP POP JUMP JUMPDEST PUSH0 PUSH2 0x2875 PUSH1 0x20 DUP5 ADD DUP5 PUSH2 0x2853 JUMP JUMPDEST SWAP1 POP SWAP3 SWAP2 POP POP JUMP JUMPDEST PUSH0 PUSH2 0x288B PUSH1 0x20 DUP5 ADD DUP5 PUSH2 0x2030 JUMP JUMPDEST SWAP1 POP SWAP3 SWAP2 POP POP JUMP JUMPDEST PUSH2 0x120 DUP3 ADD PUSH2 0x28A4 PUSH0 DUP4 ADD DUP4 PUSH2 0x283D JUMP JUMPDEST PUSH2 0x28B0 PUSH0 DUP6 ADD DUP3 PUSH2 0x2089 JUMP JUMPDEST POP PUSH2 0x28BE PUSH1 0x20 DUP4 ADD DUP4 PUSH2 0x283D JUMP JUMPDEST PUSH2 0x28CB PUSH1 0x20 DUP6 ADD DUP3 PUSH2 0x2089 JUMP JUMPDEST POP PUSH2 0x28D9 PUSH1 0x40 DUP4 ADD DUP4 PUSH2 0x2867 JUMP JUMPDEST PUSH2 0x28E6 PUSH1 0x40 DUP6 ADD DUP3 PUSH2 0x2098 JUMP JUMPDEST POP PUSH2 0x28F4 PUSH1 0x60 DUP4 ADD DUP4 PUSH2 0x283D JUMP JUMPDEST PUSH2 0x2901 PUSH1 0x60 DUP6 ADD DUP3 PUSH2 0x2089 JUMP JUMPDEST POP PUSH2 0x290F PUSH1 0x80 DUP4 ADD DUP4 PUSH2 0x2867 JUMP JUMPDEST PUSH2 0x291C PUSH1 0x80 DUP6 ADD DUP3 PUSH2 0x2098 JUMP JUMPDEST POP PUSH2 0x292A PUSH1 0xA0 DUP4 ADD DUP4 PUSH2 0x287D JUMP JUMPDEST PUSH2 0x2937 PUSH1 0xA0 DUP6 ADD DUP3 PUSH2 0x2161 JUMP JUMPDEST POP PUSH2 0x2945 PUSH1 0xC0 DUP4 ADD DUP4 PUSH2 0x2867 JUMP JUMPDEST PUSH2 0x2952 PUSH1 0xC0 DUP6 ADD DUP3 PUSH2 0x2098 JUMP JUMPDEST POP PUSH2 0x2960 PUSH1 0xE0 DUP4 ADD DUP4 PUSH2 0x2867 JUMP JUMPDEST PUSH2 0x296D PUSH1 0xE0 DUP6 ADD DUP3 PUSH2 0x2098 JUMP JUMPDEST POP PUSH2 0x297C PUSH2 0x100 DUP4 ADD DUP4 PUSH2 0x287D JUMP JUMPDEST PUSH2 0x298A PUSH2 0x100 DUP6 ADD DUP3 PUSH2 0x2161 JUMP JUMPDEST POP POP POP POP JUMP JUMPDEST PUSH0 PUSH2 0x160 DUP3 ADD SWAP1 POP PUSH2 0x29A4 PUSH0 DUP4 ADD DUP7 PUSH2 0x1F50 JUMP JUMPDEST PUSH2 0x29B1 PUSH1 0x20 DUP4 ADD DUP6 PUSH2 0x1F50 JUMP JUMPDEST PUSH2 0x29BE PUSH1 0x40 DUP4 ADD DUP5 PUSH2 0x2893 JUMP JUMPDEST SWAP5 SWAP4 POP POP POP POP JUMP JUMPDEST PUSH0 PUSH1 0x20 DUP3 ADD SWAP1 POP PUSH2 0x29D9 PUSH0 DUP4 ADD DUP5 PUSH2 0x1F11 JUMP JUMPDEST SWAP3 SWAP2 POP POP JUMP JUMPDEST PUSH0 DUP2 SWAP1 POP SWAP2 SWAP1 POP JUMP JUMPDEST PUSH2 0x29F9 PUSH2 0x29F4 DUP3 PUSH2 0x1F08 JUMP JUMPDEST PUSH2 0x29DF JUMP JUMPDEST DUP3 MSTORE POP POP JUMP JUMPDEST PUSH0 DUP2 SWAP1 POP SWAP3 SWAP2 POP POP JUMP JUMPDEST PUSH32 0x6D616B6572000000000000000000000000000000000000000000000000000000 PUSH0 DUP3 ADD MSTORE POP JUMP JUMPDEST PUSH0 PUSH2 0x2A3D PUSH1 0x5 DUP4 PUSH2 0x29FF JUMP JUMPDEST SWAP2 POP PUSH2 0x2A48 DUP3 PUSH2 0x2A09 JUMP JUMPDEST PUSH1 0x5 DUP3 ADD SWAP1 POP SWAP2 SWAP1 POP JUMP JUMPDEST PUSH0 PUSH2 0x2A5E DUP3 DUP6 PUSH2 0x29E8 JUMP JUMPDEST PUSH1 0x20 DUP3 ADD SWAP2 POP PUSH2 0x2A6E DUP3 DUP5 PUSH2 0x29E8 JUMP JUMPDEST PUSH1 0x20 DUP3 ADD SWAP2 POP PUSH2 0x2A7D DUP3 PUSH2 0x2A31 JUMP JUMPDEST SWAP2 POP DUP2 SWAP1 POP SWAP4 SWAP3 POP POP POP JUMP JUMPDEST PUSH32 0x74616B6572000000000000000000000000000000000000000000000000000000 PUSH0 DUP3 ADD MSTORE POP JUMP JUMPDEST PUSH0 PUSH2 0x2ABD PUSH1 0x5 DUP4 PUSH2 0x29FF JUMP JUMPDEST SWAP2 POP PUSH2 0x2AC8 DUP3 PUSH2 0x2A89 JUMP JUMPDEST PUSH1 0x5 DUP3 ADD SWAP1 POP SWAP2 SWAP1 POP JUMP JUMPDEST PUSH0 PUSH2 0x2ADE DUP3 DUP6 PUSH2 0x29E8 JUMP JUMPDEST PUSH1 0x20 DUP3 ADD SWAP2 POP PUSH2 0x2AEE DUP3 DUP5 PUSH2 0x29E8 JUMP JUMPDEST PUSH1 0x20 DUP3 ADD SWAP2 POP PUSH2 0x2AFD DUP3 PUSH2 0x2AB1 JUMP JUMPDEST SWAP2 POP DUP2 SWAP1 POP SWAP4 SWAP3 POP POP POP JUMP JUMPDEST PUSH0 PUSH1 0xE0 DUP3 ADD SWAP1 POP PUSH2 0x2B1C PUSH0 DUP4 ADD DUP11 PUSH2 0x1F11 JUMP JUMPDEST PUSH2 0x2B29 PUSH1 0x20 DUP4 ADD DUP10 PUSH2 0x1F50 JUMP JUMPDEST PUSH2 0x2B36 PUSH1 0x40 DUP4 ADD DUP9 PUSH2 0x1F50 JUMP JUMPDEST PUSH2 0x2B43 PUSH1 0x60 DUP4 ADD DUP8 PUSH2 0x1FF2 JUMP JUMPDEST PUSH2 0x2B50 PUSH1 0x80 DUP4 ADD DUP7 PUSH2 0x1F11 JUMP JUMPDEST PUSH2 0x2B5D PUSH1 0xA0 DUP4 ADD DUP6 PUSH2 0x1FF2 JUMP JUMPDEST PUSH2 0x2B6A PUSH1 0xC0 DUP4 ADD DUP5 PUSH2 0x1F50 JUMP JUMPDEST SWAP9 SWAP8 POP POP POP POP POP POP POP POP JUMP INVALID PUSH1 0xA0 PUSH1 0x40 MSTORE CALLVALUE DUP1 ISZERO PUSH2 0xF JUMPI PUSH0 DUP1 REVERT JUMPDEST POP PUSH1 0x1 PUSH0 DUP2 SWAP1 SSTORE POP CALLER PUSH20 0xFFFFFFFFFFFFFFFFFFFFFFFFFFFFFFFFFFFFFFFF AND PUSH1 0x80 DUP2 PUSH20 0xFFFFFFFFFFFFFFFFFFFFFFFFFFFFFFFFFFFFFFFF AND DUP2 MSTORE POP POP PUSH1 0x80 MLOAD PUSH2 0x15A3 PUSH2 0x78 PUSH0 CODECOPY PUSH0 DUP2 DUP2 PUSH2 0x16A ADD MSTORE DUP2 DUP2 PUSH2 0x18E ADD MSTORE DUP2 DUP2 PUSH2 0x37D ADD MSTORE PUSH2 0x6DF ADD MSTORE PUSH2 0x15A3 PUSH0 RETURN INVALID PUSH1 0x80 PUSH1 0x40 MSTORE CALLVALUE DUP1 ISZERO PUSH2 0xF JUMPI PUSH0 DUP1 REVERT JUMPDEST POP PUSH1 0x4 CALLDATASIZE LT PUSH2 0x86 JUMPI PUSH0 CALLDATALOAD PUSH1 0xE0 SHR DUP1 PUSH4 0xBA253B4D GT PUSH2 0x59 JUMPI DUP1 PUSH4 0xBA253B4D EQ PUSH2 0x106 JUMPI DUP1 PUSH4 0xCD50CB2C EQ PUSH2 0x124 JUMPI DUP1 PUSH4 0xEA8A1AF0 EQ PUSH2 0x140 JUMPI DUP1 PUSH4 0xF6BBC25D EQ PUSH2 0x14A JUMPI PUSH2 0x86 JUMP JUMPDEST DUP1 PUSH4 0x4F3BCEC EQ PUSH2 0x8A JUMPI DUP1 PUSH4 0x11FCA4B7 EQ PUSH2 0xA8 JUMPI DUP1 PUSH4 0x229E81FB EQ PUSH2 0xC4 JUMPI DUP1 PUSH4 0x6FACD1C0 EQ PUSH2 0xEA JUMPI JUMPDEST PUSH0 DUP1 REVERT JUMPDEST PUSH2 0x92 PUSH2 0x168 JUMP JUMPDEST PUSH1 0x40 MLOAD PUSH2 0x9F SWAP2 SWAP1 PUSH2 0x114B JUMP JUMPDEST PUSH1 0x40 MLOAD DUP1 SWAP2 SUB SWAP1 RETURN JUMPDEST PUSH2 0xC2 PUSH1 0x4 DUP1 CALLDATASIZE SUB DUP2 ADD SWAP1 PUSH2 0xBD SWAP2 SWAP1 PUSH2 0x1192 JUMP JUMPDEST PUSH2 0x18C JUMP JUMPDEST STOP JUMPDEST PUSH2 0xCC PUSH2 0x258 JUMP JUMPDEST PUSH1 0x40 MLOAD PUSH2 0xE1 SWAP10 SWAP9 SWAP8 SWAP7 SWAP6 SWAP5 SWAP4 SWAP3 SWAP2 SWAP1 PUSH2 0x1207 JUMP JUMPDEST PUSH1 0x40 MLOAD DUP1 SWAP2 SUB SWAP1 RETURN JUMPDEST PUSH2 0x104 PUSH1 0x4 DUP1 CALLDATASIZE SUB DUP2 ADD SWAP1 PUSH2 0xFF SWAP2 SWAP1 PUSH2 0x12BC JUMP JUMPDEST PUSH2 0x317 JUMP JUMPDEST STOP JUMPDEST PUSH2 0x10E PUSH2 0x6D7 JUMP JUMPDEST PUSH1 0x40 MLOAD PUSH2 0x11B SWAP2 SWAP1 PUSH2 0x12E7 JUMP JUMPDEST PUSH1 0x40 MLOAD DUP1 SWAP2 SUB SWAP1 RETURN JUMPDEST PUSH2 0x13E PUSH1 0x4 DUP1 CALLDATASIZE SUB DUP2 ADD SWAP1 PUSH2 0x139 SWAP2 SWAP1 PUSH2 0x132A JUMP JUMPDEST PUSH2 0x6DD JUMP JUMPDEST STOP JUMPDEST PUSH2 0x148 PUSH2 0xA56 JUMP JUMPDEST STOP JUMPDEST PUSH2 0x152 PUSH2 0xD0D JUMP JUMPDEST PUSH1 0x40 MLOAD PUSH2 0x15F SWAP2 SWAP1 PUSH2 0x14A4 JUMP JUMPDEST PUSH1 0x40 MLOAD DUP1 SWAP2 SUB SWAP1 RETURN JUMPDEST PUSH32 0x0 DUP2 JUMP JUMPDEST PUSH32 0x0 PUSH20 0xFFFFFFFFFFFFFFFFFFFFFFFFFFFFFFFFFFFFFFFF AND CALLER PUSH20 0xFFFFFFFFFFFFFFFFFFFFFFFFFFFFFFFFFFFFFFFF AND EQ PUSH2 0x211 JUMPI PUSH1 0x40 MLOAD PUSH32 0x5C427CD900000000000000000000000000000000000000000000000000000000 DUP2 MSTORE PUSH1 0x4 ADD PUSH1 0x40 MLOAD DUP1 SWAP2 SUB SWAP1 REVERT JUMPDEST DUP1 PUSH1 0x1 PUSH1 0x5 ADD PUSH1 0x3 PUSH2 0x100 EXP DUP2 SLOAD DUP2 PUSH20 0xFFFFFFFFFFFFFFFFFFFFFFFFFFFFFFFFFFFFFFFF MUL NOT AND SWAP1 DUP4 PUSH20 0xFFFFFFFFFFFFFFFFFFFFFFFFFFFFFFFFFFFFFFFF AND MUL OR SWAP1 SSTORE POP POP JUMP JUMPDEST PUSH1 0x1 DUP1 PUSH0 ADD PUSH0 SWAP1 SLOAD SWAP1 PUSH2 0x100 EXP SWAP1 DIV PUSH20 0xFFFFFFFFFFFFFFFFFFFFFFFFFFFFFFFFFFFFFFFF AND SWAP1 DUP1 PUSH1 0x1 ADD PUSH0 SWAP1 SLOAD SWAP1 PUSH2 0x100 EXP SWAP1 DIV PUSH20 0xFFFFFFFFFFFFFFFFFFFFFFFFFFFFFFFFFFFFFFFF AND SWAP1 DUP1 PUSH1 0x2 ADD SLOAD SWAP1 DUP1 PUSH1 0x3 ADD SLOAD SWAP1 DUP1 PUSH1 0x4 ADD SLOAD SWAP1 DUP1 PUSH1 0x5 ADD PUSH0 SWAP1 SLOAD SWAP1 PUSH2 0x100 EXP SWAP1 DIV PUSH1 0xFF AND SWAP1 DUP1 PUSH1 0x5 ADD PUSH1 0x1 SWAP1 SLOAD SWAP1 PUSH2 0x100 EXP SWAP1 DIV PUSH1 0xFF AND SWAP1 DUP1 PUSH1 0x5 ADD PUSH1 0x2 SWAP1 SLOAD SWAP1 PUSH2 0x100 EXP SWAP1 DIV PUSH1 0xFF AND SWAP1 DUP1 PUSH1 0x5 ADD PUSH1 0x3 SWAP1 SLOAD SWAP1 PUSH2 0x100 EXP SWAP1 DIV PUSH20 0xFFFFFFFFFFFFFFFFFFFFFFFFFFFFFFFFFFFFFFFF AND SWAP1 POP DUP10 JUMP JUMPDEST PUSH2 0x31F PUSH2 0xE95 JUMP JUMPDEST PUSH1 0x1 PUSH1 0x5 ADD PUSH1 0x3 SWAP1 SLOAD SWAP1 PUSH2 0x100 EXP SWAP1 DIV PUSH20 0xFFFFFFFFFFFFFFFFFFFFFFFFFFFFFFFFFFFFFFFF AND PUSH20 0xFFFFFFFFFFFFFFFFFFFFFFFFFFFFFFFFFFFFFFFF AND CALLER PUSH20 0xFFFFFFFFFFFFFFFFFFFFFFFFFFFFFFFFFFFFFFFF AND EQ ISZERO DUP1 ISZERO PUSH2 0x3CC JUMPI POP PUSH32 0x0 PUSH20 0xFFFFFFFFFFFFFFFFFFFFFFFFFFFFFFFFFFFFFFFF AND CALLER PUSH20 0xFFFFFFFFFFFFFFFFFFFFFFFFFFFFFFFFFFFFFFFF AND EQ ISZERO JUMPDEST ISZERO PUSH2 0x403 JUMPI PUSH1 0x40 MLOAD PUSH32 0x5C427CD900000000000000000000000000000000000000000000000000000000 DUP2 MSTORE PUSH1 0x4 ADD PUSH1 0x40 MLOAD DUP1 SWAP2 SUB SWAP1 REVERT JUMPDEST PUSH0 PUSH20 0xFFFFFFFFFFFFFFFFFFFFFFFFFFFFFFFFFFFFFFFF AND PUSH1 0x1 PUSH0 ADD PUSH0 SWAP1 SLOAD SWAP1 PUSH2 0x100 EXP SWAP1 DIV PUSH20 0xFFFFFFFFFFFFFFFFFFFFFFFFFFFFFFFFFFFFFFFF AND PUSH20 0xFFFFFFFFFFFFFFFFFFFFFFFFFFFFFFFFFFFFFFFF AND SUB PUSH2 0x48B JUMPI PUSH1 0x40 MLOAD PUSH32 0x453FFB6000000000000000000000000000000000000000000000000000000000 DUP2 MSTORE PUSH1 0x4 ADD PUSH1 0x40 MLOAD DUP1 SWAP2 SUB SWAP1 REVERT JUMPDEST PUSH1 0x1 PUSH1 0x5 ADD PUSH1 0x1 SWAP1 SLOAD SWAP1 PUSH2 0x100 EXP SWAP1 DIV PUSH1 0xFF AND ISZERO PUSH2 0x4D5 JUMPI PUSH1 0x40 MLOAD PUSH32 0x368368700000000000000000000000000000000000000000000000000000000 DUP2 MSTORE PUSH1 0x4 ADD PUSH1 0x40 MLOAD DUP1 SWAP2 SUB SWAP1 REVERT JUMPDEST PUSH1 0x1 PUSH1 0x5 ADD PUSH1 0x2 SWAP1 SLOAD SWAP1 PUSH2 0x100 EXP SWAP1 DIV PUSH1 0xFF AND ISZERO PUSH2 0x51F JUMPI PUSH1 0x40 MLOAD PUSH32 0x7C87A47200000000000000000000000000000000000000000000000000000000 DUP2 MSTORE PUSH1 0x4 ADD PUSH1 0x40 MLOAD DUP1 SWAP2 SUB SWAP1 REVERT JUMPDEST PUSH1 0x1 PUSH1 0x3 ADD SLOAD DUP2 PUSH1 0x40 MLOAD PUSH1 0x20 ADD PUSH2 0x536 SWAP2 SWAP1 PUSH2 0x14DE JUMP JUMPDEST PUSH1 0x40 MLOAD PUSH1 0x20 DUP2 DUP4 SUB SUB DUP2 MSTORE SWAP1 PUSH1 0x40 MSTORE DUP1 MLOAD SWAP1 PUSH1 0x20 ADD KECCAK256 EQ PUSH2 0x583 JUMPI PUSH1 0x40 MLOAD PUSH32 0xABAB6BD700000000000000000000000000000000000000000000000000000000 DUP2 MSTORE PUSH1 0x4 ADD PUSH1 0x40 MLOAD DUP1 SWAP2 SUB SWAP1 REVERT JUMPDEST PUSH1 0x1 PUSH1 0x4 ADD SLOAD TIMESTAMP LT PUSH2 0x5C1 JUMPI PUSH1 0x40 MLOAD PUSH32 0xC56873BA00000000000000000000000000000000000000000000000000000000 DUP2 MSTORE PUSH1 0x4 ADD PUSH1 0x40 MLOAD DUP1 SWAP2 SUB SWAP1 REVERT JUMPDEST PUSH1 0x1 DUP1 PUSH1 0x5 ADD PUSH1 0x1 PUSH2 0x100 EXP DUP2 SLOAD DUP2 PUSH1 0xFF MUL NOT AND SWAP1 DUP4 ISZERO ISZERO MUL OR SWAP1 SSTORE POP PUSH2 0x656 PUSH1 0x1 PUSH1 0x5 ADD PUSH1 0x3 SWAP1 SLOAD SWAP1 PUSH2 0x100 EXP SWAP1 DIV PUSH20 0xFFFFFFFFFFFFFFFFFFFFFFFFFFFFFFFFFFFFFFFF AND PUSH1 0x1 PUSH1 0x2 ADD SLOAD PUSH1 0x1 DUP1 ADD PUSH0 SWAP1 SLOAD SWAP1 PUSH2 0x100 EXP SWAP1 DIV PUSH20 0xFFFFFFFFFFFFFFFFFFFFFFFFFFFFFFFFFFFFFFFF AND PUSH20 0xFFFFFFFFFFFFFFFFFFFFFFFFFFFFFFFFFFFFFFFF AND PUSH2 0xED9 SWAP1 SWAP3 SWAP2 SWAP1 PUSH4 0xFFFFFFFF AND JUMP JUMPDEST PUSH1 0x1 PUSH1 0x5 ADD PUSH1 0x3 SWAP1 SLOAD SWAP1 PUSH2 0x100 EXP SWAP1 DIV PUSH20 0xFFFFFFFFFFFFFFFFFFFFFFFFFFFFFFFFFFFFFFFF AND PUSH20 0xFFFFFFFFFFFFFFFFFFFFFFFFFFFFFFFFFFFFFFFF AND PUSH1 0x7 SLOAD PUSH32 0xCE4C2FD8ECEFFA201B1AD710862A2B4364ADBF66B5EB1AAD9DABD210C9C34E9A DUP4 PUSH1 0x40 MLOAD PUSH2 0x6C4 SWAP2 SWAP1 PUSH2 0x12E7 JUMP JUMPDEST PUSH1 0x40 MLOAD DUP1 SWAP2 SUB SWAP1 LOG3 PUSH2 0x6D4 PUSH2 0xF58 JUMP JUMPDEST POP JUMP JUMPDEST PUSH1 0x7 SLOAD DUP2 JUMP JUMPDEST PUSH32 0x0 PUSH20 0xFFFFFFFFFFFFFFFFFFFFFFFFFFFFFFFFFFFFFFFF AND CALLER PUSH20 0xFFFFFFFFFFFFFFFFFFFFFFFFFFFFFFFFFFFFFFFF AND EQ PUSH2 0x762 JUMPI PUSH1 0x40 MLOAD PUSH32 0x5C427CD900000000000000000000000000000000000000000000000000000000 DUP2 MSTORE PUSH1 0x4 ADD PUSH1 0x40 MLOAD DUP1 SWAP2 SUB SWAP1 REVERT JUMPDEST PUSH0 PUSH20 0xFFFFFFFFFFFFFFFFFFFFFFFFFFFFFFFFFFFFFFFF AND PUSH1 0x1 PUSH0 ADD PUSH0 SWAP1 SLOAD SWAP1 PUSH2 0x100 EXP SWAP1 DIV PUSH20 0xFFFFFFFFFFFFFFFFFFFFFFFFFFFFFFFFFFFFFFFF AND PUSH20 0xFFFFFFFFFFFFFFFFFFFFFFFFFFFFFFFFFFFFFFFF AND EQ PUSH2 0x7EA JUMPI PUSH1 0x40 MLOAD PUSH32 0x368368700000000000000000000000000000000000000000000000000000000 DUP2 MSTORE PUSH1 0x4 ADD PUSH1 0x40 MLOAD DUP1 SWAP2 SUB SWAP1 REVERT JUMPDEST DUP6 PUSH1 0x7 DUP2 SWAP1 SSTORE POP PUSH1 0x40 MLOAD DUP1 PUSH2 0x120 ADD PUSH1 0x40 MSTORE DUP1 DUP7 PUSH20 0xFFFFFFFFFFFFFFFFFFFFFFFFFFFFFFFFFFFFFFFF AND DUP2 MSTORE PUSH1 0x20 ADD DUP6 PUSH20 0xFFFFFFFFFFFFFFFFFFFFFFFFFFFFFFFFFFFFFFFF AND DUP2 MSTORE PUSH1 0x20 ADD DUP5 DUP2 MSTORE PUSH1 0x20 ADD DUP4 DUP2 MSTORE PUSH1 0x20 ADD DUP3 DUP2 MSTORE PUSH1 0x20 ADD PUSH0 ISZERO ISZERO DUP2 MSTORE PUSH1 0x20 ADD PUSH0 ISZERO ISZERO DUP2 MSTORE PUSH1 0x20 ADD PUSH0 ISZERO ISZERO DUP2 MSTORE PUSH1 0x20 ADD PUSH0 PUSH20 0xFFFFFFFFFFFFFFFFFFFFFFFFFFFFFFFFFFFFFFFF AND DUP2 MSTORE POP PUSH1 0x1 PUSH0 DUP3 ADD MLOAD DUP2 PUSH0 ADD PUSH0 PUSH2 0x100 EXP DUP2 SLOAD DUP2 PUSH20 0xFFFFFFFFFFFFFFFFFFFFFFFFFFFFFFFFFFFFFFFF MUL NOT AND SWAP1 DUP4 PUSH20 0xFFFFFFFFFFFFFFFFFFFFFFFFFFFFFFFFFFFFFFFF AND MUL OR SWAP1 SSTORE POP PUSH1 0x20 DUP3 ADD MLOAD DUP2 PUSH1 0x1 ADD PUSH0 PUSH2 0x100 EXP DUP2 SLOAD DUP2 PUSH20 0xFFFFFFFFFFFFFFFFFFFFFFFFFFFFFFFFFFFFFFFF MUL NOT AND SWAP1 DUP4 PUSH20 0xFFFFFFFFFFFFFFFFFFFFFFFFFFFFFFFFFFFFFFFF AND MUL OR SWAP1 SSTORE POP PUSH1 0x40 DUP3 ADD MLOAD DUP2 PUSH1 0x2 ADD SSTORE PUSH1 0x60 DUP3 ADD MLOAD DUP2 PUSH1 0x3 ADD SSTORE PUSH1 0x80 DUP3 ADD MLOAD DUP2 PUSH1 0x4 ADD SSTORE PUSH1 0xA0 DUP3 ADD MLOAD DUP2 PUSH1 0x5 ADD PUSH0 PUSH2 0x100 EXP DUP2 SLOAD DUP2 PUSH1 0xFF MUL NOT AND SWAP1 DUP4 ISZERO ISZERO MUL OR SWAP1 SSTORE POP PUSH1 0xC0 DUP3 ADD MLOAD DUP2 PUSH1 0x5 ADD PUSH1 0x1 PUSH2 0x100 EXP DUP2 SLOAD DUP2 PUSH1 0xFF MUL NOT AND SWAP1 DUP4 ISZERO ISZERO MUL OR SWAP1 SSTORE POP PUSH1 0xE0 DUP3 ADD MLOAD DUP2 PUSH1 0x5 ADD PUSH1 0x2 PUSH2 0x100 EXP DUP2 SLOAD DUP2 PUSH1 0xFF MUL NOT AND SWAP1 DUP4 ISZERO ISZERO MUL OR SWAP1 SSTORE POP PUSH2 0x100 DUP3 ADD MLOAD DUP2 PUSH1 0x5 ADD PUSH1 0x3 PUSH2 0x100 EXP DUP2 SLOAD DUP2 PUSH20 0xFFFFFFFFFFFFFFFFFFFFFFFFFFFFFFFFFFFFFFFF MUL NOT AND SWAP1 DUP4 PUSH20 0xFFFFFFFFFFFFFFFFFFFFFFFFFFFFFFFFFFFFFFFF AND MUL OR SWAP1 SSTORE POP SWAP1 POP POP PUSH2 0x9FA DUP6 ADDRESS DUP6 DUP8 PUSH20 0xFFFFFFFFFFFFFFFFFFFFFFFFFFFFFFFFFFFFFFFF AND PUSH2 0xF61 SWAP1 SWAP4 SWAP3 SWAP2 SWAP1 PUSH4 0xFFFFFFFF AND JUMP JUMPDEST PUSH1 0x1 DUP1 PUSH1 0x5 ADD PUSH0 PUSH2 0x100 EXP DUP2 SLOAD DUP2 PUSH1 0xFF MUL NOT AND SWAP1 DUP4 ISZERO ISZERO MUL OR SWAP1 SSTORE POP DUP6 PUSH32 0x7EC6F5437727983C2C8E856756F28463FE5EB23D39EC07353C9C6529228F8A29 DUP5 PUSH1 0x40 MLOAD PUSH2 0xA46 SWAP2 SWAP1 PUSH2 0x14F8 JUMP JUMPDEST PUSH1 0x40 MLOAD DUP1 SWAP2 SUB SWAP1 LOG2 POP POP POP POP POP POP JUMP JUMPDEST PUSH1 0x1 PUSH0 ADD PUSH0 SWAP1 SLOAD SWAP1 PUSH2 0x100 EXP SWAP1 DIV PUSH20 0xFFFFFFFFFFFFFFFFFFFFFFFFFFFFFFFFFFFFFFFF AND PUSH20 0xFFFFFFFFFFFFFFFFFFFFFFFFFFFFFFFFFFFFFFFF AND CALLER PUSH20 0xFFFFFFFFFFFFFFFFFFFFFFFFFFFFFFFFFFFFFFFF AND EQ PUSH2 0xADE JUMPI PUSH1 0x40 MLOAD PUSH32 0x5C427CD900000000000000000000000000000000000000000000000000000000 DUP2 MSTORE PUSH1 0x4 ADD PUSH1 0x40 MLOAD DUP1 SWAP2 SUB SWAP1 REVERT JUMPDEST PUSH2 0xAE6 PUSH2 0xE95 JUMP JUMPDEST PUSH0 PUSH20 0xFFFFFFFFFFFFFFFFFFFFFFFFFFFFFFFFFFFFFFFF AND PUSH1 0x1 PUSH0 ADD PUSH0 SWAP1 SLOAD SWAP1 PUSH2 0x100 EXP SWAP1 DIV PUSH20 0xFFFFFFFFFFFFFFFFFFFFFFFFFFFFFFFFFFFFFFFF AND PUSH20 0xFFFFFFFFFFFFFFFFFFFFFFFFFFFFFFFFFFFFFFFF AND SUB PUSH2 0xB6E JUMPI PUSH1 0x40 MLOAD PUSH32 0x453FFB6000000000000000000000000000000000000000000000000000000000 DUP2 MSTORE PUSH1 0x4 ADD PUSH1 0x40 MLOAD DUP1 SWAP2 SUB SWAP1 REVERT JUMPDEST PUSH1 0x1 PUSH1 0x5 ADD PUSH1 0x1 SWAP1 SLOAD SWAP1 PUSH2 0x100 EXP SWAP1 DIV PUSH1 0xFF AND ISZERO PUSH2 0xBB8 JUMPI PUSH1 0x40 MLOAD PUSH32 0x368368700000000000000000000000000000000000000000000000000000000 DUP2 MSTORE PUSH1 0x4 ADD PUSH1 0x40 MLOAD DUP1 SWAP2 SUB SWAP1 REVERT JUMPDEST PUSH1 0x1 PUSH1 0x5 ADD PUSH1 0x2 SWAP1 SLOAD SWAP1 PUSH2 0x100 EXP SWAP1 DIV PUSH1 0xFF AND ISZERO PUSH2 0xC02 JUMPI PUSH1 0x40 MLOAD PUSH32 0x7C87A47200000000000000000000000000000000000000000000000000000000 DUP2 MSTORE PUSH1 0x4 ADD PUSH1 0x40 MLOAD DUP1 SWAP2 SUB SWAP1 REVERT JUMPDEST PUSH1 0x1 PUSH1 0x4 ADD SLOAD TIMESTAMP LT ISZERO PUSH2 0xC41 JUMPI PUSH1 0x40 MLOAD PUSH32 0x796C85F300000000000000000000000000000000000000000000000000000000 DUP2 MSTORE PUSH1 0x4 ADD PUSH1 0x40 MLOAD DUP1 SWAP2 SUB SWAP1 REVERT JUMPDEST PUSH1 0x1 DUP1 PUSH1 0x5 ADD PUSH1 0x2 PUSH2 0x100 EXP DUP2 SLOAD DUP2 PUSH1 0xFF MUL NOT AND SWAP1 DUP4 ISZERO ISZERO MUL OR SWAP1 SSTORE POP PUSH2 0xCD4 PUSH1 0x1 PUSH0 ADD PUSH0 SWAP1 SLOAD SWAP1 PUSH2 0x100 EXP SWAP1 DIV PUSH20 0xFFFFFFFFFFFFFFFFFFFFFFFFFFFFFFFFFFFFFFFF AND PUSH1 0x1 PUSH1 0x2 ADD SLOAD PUSH1 0x1 DUP1 ADD PUSH0 SWAP1 SLOAD SWAP1 PUSH2 0x100 EXP SWAP1 DIV PUSH20 0xFFFFFFFFFFFFFFFFFFFFFFFFFFFFFFFFFFFFFFFF AND PUSH20 0xFFFFFFFFFFFFFFFFFFFFFFFFFFFFFFFFFFFFFFFF AND PUSH2 0xED9 SWAP1 SWAP3 SWAP2 SWAP1 PUSH4 0xFFFFFFFF AND JUMP JUMPDEST PUSH1 0x7 SLOAD PUSH32 0x5152ABF959F6564662358C2E52B702259B78BAC5EE7842A0F01937E670EFCC7D PUSH1 0x40 MLOAD PUSH1 0x40 MLOAD DUP1 SWAP2 SUB SWAP1 LOG2 PUSH2 0xD0B PUSH2 0xF58 JUMP JUMPDEST JUMP JUMPDEST PUSH2 0xD15 PUSH2 0x107E JUMP JUMPDEST PUSH1 0x1 PUSH1 0x40 MLOAD DUP1 PUSH2 0x120 ADD PUSH1 0x40 MSTORE SWAP1 DUP2 PUSH0 DUP3 ADD PUSH0 SWAP1 SLOAD SWAP1 PUSH2 0x100 EXP SWAP1 DIV PUSH20 0xFFFFFFFFFFFFFFFFFFFFFFFFFFFFFFFFFFFFFFFF AND PUSH20 0xFFFFFFFFFFFFFFFFFFFFFFFFFFFFFFFFFFFFFFFF AND PUSH20 0xFFFFFFFFFFFFFFFFFFFFFFFFFFFFFFFFFFFFFFFF AND DUP2 MSTORE PUSH1 0x20 ADD PUSH1 0x1 DUP3 ADD PUSH0 SWAP1 SLOAD SWAP1 PUSH2 0x100 EXP SWAP1 DIV PUSH20 0xFFFFFFFFFFFFFFFFFFFFFFFFFFFFFFFFFFFFFFFF AND PUSH20 0xFFFFFFFFFFFFFFFFFFFFFFFFFFFFFFFFFFFFFFFF AND PUSH20 0xFFFFFFFFFFFFFFFFFFFFFFFFFFFFFFFFFFFFFFFF AND DUP2 MSTORE PUSH1 0x20 ADD PUSH1 0x2 DUP3 ADD SLOAD DUP2 MSTORE PUSH1 0x20 ADD PUSH1 0x3 DUP3 ADD SLOAD DUP2 MSTORE PUSH1 0x20 ADD PUSH1 0x4 DUP3 ADD SLOAD DUP2 MSTORE PUSH1 0x20 ADD PUSH1 0x5 DUP3 ADD PUSH0 SWAP1 SLOAD SWAP1 PUSH2 0x100 EXP SWAP1 DIV PUSH1 0xFF AND ISZERO ISZERO ISZERO ISZERO DUP2 MSTORE PUSH1 0x20 ADD PUSH1 0x5 DUP3 ADD PUSH1 0x1 SWAP1 SLOAD SWAP1 PUSH2 0x100 EXP SWAP1 DIV PUSH1 0xFF AND ISZERO ISZERO ISZERO ISZERO DUP2 MSTORE PUSH1 0x20 ADD PUSH1 0x5 DUP3 ADD PUSH1 0x2 SWAP1 SLOAD SWAP1 PUSH2 0x100 EXP SWAP1 DIV PUSH1 0xFF AND ISZERO ISZERO ISZERO ISZERO DUP2 MSTORE PUSH1 0x20 ADD PUSH1 0x5 DUP3 ADD PUSH1 0x3 SWAP1 SLOAD SWAP1 PUSH2 0x100 EXP SWAP1 DIV PUSH20 0xFFFFFFFFFFFFFFFFFFFFFFFFFFFFFFFFFFFFFFFF AND PUSH20 0xFFFFFFFFFFFFFFFFFFFFFFFFFFFFFFFFFFFFFFFF AND PUSH20 0xFFFFFFFFFFFFFFFFFFFFFFFFFFFFFFFFFFFFFFFF AND DUP2 MSTORE POP POP SWAP1 POP SWAP1 JUMP JUMPDEST PUSH1 0x2 PUSH0 SLOAD SUB PUSH2 0xED0 JUMPI PUSH1 0x40 MLOAD PUSH32 0x3EE5AEB500000000000000000000000000000000000000000000000000000000 DUP2 MSTORE PUSH1 0x4 ADD PUSH1 0x40 MLOAD DUP1 SWAP2 SUB SWAP1 REVERT JUMPDEST PUSH1 0x2 PUSH0 DUP2 SWAP1 SSTORE POP JUMP JUMPDEST PUSH2 0xF53 DUP4 DUP5 PUSH20 0xFFFFFFFFFFFFFFFFFFFFFFFFFFFFFFFFFFFFFFFF AND PUSH4 0xA9059CBB DUP6 DUP6 PUSH1 0x40 MLOAD PUSH1 0x24 ADD PUSH2 0xF0C SWAP3 SWAP2 SWAP1 PUSH2 0x1511 JUMP JUMPDEST PUSH1 0x40 MLOAD PUSH1 0x20 DUP2 DUP4 SUB SUB DUP2 MSTORE SWAP1 PUSH1 0x40 MSTORE SWAP2 POP PUSH1 0xE0 SHL PUSH1 0x20 DUP3 ADD DUP1 MLOAD PUSH28 0xFFFFFFFFFFFFFFFFFFFFFFFFFFFFFFFFFFFFFFFFFFFFFFFFFFFFFFFF DUP4 DUP2 DUP4 AND OR DUP4 MSTORE POP POP POP POP PUSH2 0xFE3 JUMP JUMPDEST POP POP POP JUMP JUMPDEST PUSH1 0x1 PUSH0 DUP2 SWAP1 SSTORE POP JUMP JUMPDEST PUSH2 0xFDD DUP5 DUP6 PUSH20 0xFFFFFFFFFFFFFFFFFFFFFFFFFFFFFFFFFFFFFFFF AND PUSH4 0x23B872DD DUP7 DUP7 DUP7 PUSH1 0x40 MLOAD PUSH1 0x24 ADD PUSH2 0xF96 SWAP4 SWAP3 SWAP2 SWAP1 PUSH2 0x1538 JUMP JUMPDEST PUSH1 0x40 MLOAD PUSH1 0x20 DUP2 DUP4 SUB SUB DUP2 MSTORE SWAP1 PUSH1 0x40 MSTORE SWAP2 POP PUSH1 0xE0 SHL PUSH1 0x20 DUP3 ADD DUP1 MLOAD PUSH28 0xFFFFFFFFFFFFFFFFFFFFFFFFFFFFFFFFFFFFFFFFFFFFFFFFFFFFFFFF DUP4 DUP2 DUP4 AND OR DUP4 MSTORE POP POP POP POP PUSH2 0xFE3 JUMP JUMPDEST POP POP POP POP JUMP JUMPDEST PUSH0 DUP1 PUSH1 0x20 PUSH0 DUP5 MLOAD PUSH1 0x20 DUP7 ADD PUSH0 DUP9 GAS CALL DUP1 PUSH2 0x1002 JUMPI PUSH1 0x40 MLOAD RETURNDATASIZE PUSH0 DUP3 RETURNDATACOPY RETURNDATASIZE DUP2 REVERT JUMPDEST RETURNDATASIZE SWAP3 POP PUSH0 MLOAD SWAP2 POP POP PUSH0 DUP3 EQ PUSH2 0x101B JUMPI PUSH1 0x1 DUP2 EQ ISZERO PUSH2 0x1036 JUMP JUMPDEST PUSH0 DUP5 PUSH20 0xFFFFFFFFFFFFFFFFFFFFFFFFFFFFFFFFFFFFFFFF AND EXTCODESIZE EQ JUMPDEST ISZERO PUSH2 0x1078 JUMPI DUP4 PUSH1 0x40 MLOAD PUSH32 0x5274AFE700000000000000000000000000000000000000000000000000000000 DUP2 MSTORE PUSH1 0x4 ADD PUSH2 0x106F SWAP2 SWAP1 PUSH2 0x114B JUMP JUMPDEST PUSH1 0x40 MLOAD DUP1 SWAP2 SUB SWAP1 REVERT JUMPDEST POP POP POP POP JUMP JUMPDEST PUSH1 0x40 MLOAD DUP1 PUSH2 0x120 ADD PUSH1 0x40 MSTORE DUP1 PUSH0 PUSH20 0xFFFFFFFFFFFFFFFFFFFFFFFFFFFFFFFFFFFFFFFF AND DUP2 MSTORE PUSH1 0x20 ADD PUSH0 PUSH20 0xFFFFFFFFFFFFFFFFFFFFFFFFFFFFFFFFFFFFFFFF AND DUP2 MSTORE PUSH1 0x20 ADD PUSH0 DUP2 MSTORE PUSH1 0x20 ADD PUSH0 DUP1 NOT AND DUP2 MSTORE PUSH1 0x20 ADD PUSH0 DUP2 MSTORE PUSH1 0x20 ADD PUSH0 ISZERO ISZERO DUP2 MSTORE PUSH1 0x20 ADD PUSH0 ISZERO ISZERO DUP2 MSTORE PUSH1 0x20 ADD PUSH0 ISZERO ISZERO DUP2 MSTORE PUSH1 0x20 ADD PUSH0 PUSH20 0xFFFFFFFFFFFFFFFFFFFFFFFFFFFFFFFFFFFFFFFF AND DUP2 MSTORE POP SWAP1 JUMP JUMPDEST PUSH0 PUSH20 0xFFFFFFFFFFFFFFFFFFFFFFFFFFFFFFFFFFFFFFFF DUP3 AND SWAP1 POP SWAP2 SWAP1 POP JUMP JUMPDEST PUSH0 PUSH2 0x1135 DUP3 PUSH2 0x110C JUMP JUMPDEST SWAP1 POP SWAP2 SWAP1 POP JUMP JUMPDEST PUSH2 0x1145 DUP2 PUSH2 0x112B JUMP JUMPDEST DUP3 MSTORE POP POP JUMP JUMPDEST PUSH0 PUSH1 0x20 DUP3 ADD SWAP1 POP PUSH2 0x115E PUSH0 DUP4 ADD DUP5 PUSH2 0x113C JUMP JUMPDEST SWAP3 SWAP2 POP POP JUMP JUMPDEST PUSH0 DUP1 REVERT JUMPDEST PUSH2 0x1171 DUP2 PUSH2 0x112B JUMP JUMPDEST DUP2 EQ PUSH2 0x117B JUMPI PUSH0 DUP1 REVERT JUMPDEST POP JUMP JUMPDEST PUSH0 DUP2 CALLDATALOAD SWAP1 POP PUSH2 0x118C DUP2 PUSH2 0x1168 JUMP JUMPDEST SWAP3 SWAP2 POP POP JUMP JUMPDEST PUSH0 PUSH1 0x20 DUP3 DUP5 SUB SLT ISZERO PUSH2 0x11A7 JUMPI PUSH2 0x11A6 PUSH2 0x1164 JUMP JUMPDEST JUMPDEST PUSH0 PUSH2 0x11B4 DUP5 DUP3 DUP6 ADD PUSH2 0x117E JUMP JUMPDEST SWAP2 POP POP SWAP3 SWAP2 POP POP JUMP JUMPDEST PUSH0 DUP2 SWAP1 POP SWAP2 SWAP1 POP JUMP JUMPDEST PUSH2 0x11CF DUP2 PUSH2 0x11BD JUMP JUMPDEST DUP3 MSTORE POP POP JUMP JUMPDEST PUSH0 DUP2 SWAP1 POP SWAP2 SWAP1 POP JUMP JUMPDEST PUSH2 0x11E7 DUP2 PUSH2 0x11D5 JUMP JUMPDEST DUP3 MSTORE POP POP JUMP JUMPDEST PUSH0 DUP2 ISZERO ISZERO SWAP1 POP SWAP2 SWAP1 POP JUMP JUMPDEST PUSH2 0x1201 DUP2 PUSH2 0x11ED JUMP JUMPDEST DUP3 MSTORE POP POP JUMP JUMPDEST PUSH0 PUSH2 0x120 DUP3 ADD SWAP1 POP PUSH2 0x121B PUSH0 DUP4 ADD DUP13 PUSH2 0x113C JUMP JUMPDEST PUSH2 0x1228 PUSH1 0x20 DUP4 ADD DUP12 PUSH2 0x113C JUMP JUMPDEST PUSH2 0x1235 PUSH1 0x40 DUP4 ADD DUP11 PUSH2 0x11C6 JUMP JUMPDEST PUSH2 0x1242 PUSH1 0x60 DUP4 ADD DUP10 PUSH2 0x11DE JUMP JUMPDEST PUSH2 0x124F PUSH1 0x80 DUP4 ADD DUP9 PUSH2 0x11C6 JUMP JUMPDEST PUSH2 0x125C PUSH1 0xA0 DUP4 ADD DUP8 PUSH2 0x11F8 JUMP JUMPDEST PUSH2 0x1269 PUSH1 0xC0 DUP4 ADD DUP7 PUSH2 0x11F8 JUMP JUMPDEST PUSH2 0x1276 PUSH1 0xE0 DUP4 ADD DUP6 PUSH2 0x11F8 JUMP JUMPDEST PUSH2 0x1284 PUSH2 0x100 DUP4 ADD DUP5 PUSH2 0x113C JUMP JUMPDEST SWAP11 SWAP10 POP POP POP POP POP POP POP POP POP POP JUMP JUMPDEST PUSH2 0x129B DUP2 PUSH2 0x11D5 JUMP JUMPDEST DUP2 EQ PUSH2 0x12A5 JUMPI PUSH0 DUP1 REVERT JUMPDEST POP JUMP JUMPDEST PUSH0 DUP2 CALLDATALOAD SWAP1 POP PUSH2 0x12B6 DUP2 PUSH2 0x1292 JUMP JUMPDEST SWAP3 SWAP2 POP POP JUMP JUMPDEST PUSH0 PUSH1 0x20 DUP3 DUP5 SUB SLT ISZERO PUSH2 0x12D1 JUMPI PUSH2 0x12D0 PUSH2 0x1164 JUMP JUMPDEST JUMPDEST PUSH0 PUSH2 0x12DE DUP5 DUP3 DUP6 ADD PUSH2 0x12A8 JUMP JUMPDEST SWAP2 POP POP SWAP3 SWAP2 POP POP JUMP JUMPDEST PUSH0 PUSH1 0x20 DUP3 ADD SWAP1 POP PUSH2 0x12FA PUSH0 DUP4 ADD DUP5 PUSH2 0x11DE JUMP JUMPDEST SWAP3 SWAP2 POP POP JUMP JUMPDEST PUSH2 0x1309 DUP2 PUSH2 0x11BD JUMP JUMPDEST DUP2 EQ PUSH2 0x1313 JUMPI PUSH0 DUP1 REVERT JUMPDEST POP JUMP JUMPDEST PUSH0 DUP2 CALLDATALOAD SWAP1 POP PUSH2 0x1324 DUP2 PUSH2 0x1300 JUMP JUMPDEST SWAP3 SWAP2 POP POP JUMP JUMPDEST PUSH0 DUP1 PUSH0 DUP1 PUSH0 DUP1 PUSH1 0xC0 DUP8 DUP10 SUB SLT ISZERO PUSH2 0x1344 JUMPI PUSH2 0x1343 PUSH2 0x1164 JUMP JUMPDEST JUMPDEST PUSH0 PUSH2 0x1351 DUP10 DUP3 DUP11 ADD PUSH2 0x12A8 JUMP JUMPDEST SWAP7 POP POP PUSH1 0x20 PUSH2 0x1362 DUP10 DUP3 DUP11 ADD PUSH2 0x117E JUMP JUMPDEST SWAP6 POP POP PUSH1 0x40 PUSH2 0x1373 DUP10 DUP3 DUP11 ADD PUSH2 0x117E JUMP JUMPDEST SWAP5 POP POP PUSH1 0x60 PUSH2 0x1384 DUP10 DUP3 DUP11 ADD PUSH2 0x1316 JUMP JUMPDEST SWAP4 POP POP PUSH1 0x80 PUSH2 0x1395 DUP10 DUP3 DUP11 ADD PUSH2 0x12A8 JUMP JUMPDEST SWAP3 POP POP PUSH1 0xA0 PUSH2 0x13A6 DUP10 DUP3 DUP11 ADD PUSH2 0x1316 JUMP JUMPDEST SWAP2 POP POP SWAP3 SWAP6 POP SWAP3 SWAP6 POP SWAP3 SWAP6 JUMP JUMPDEST PUSH2 0x13BC DUP2 PUSH2 0x112B JUMP JUMPDEST DUP3 MSTORE POP POP JUMP JUMPDEST PUSH2 0x13CB DUP2 PUSH2 0x11BD JUMP JUMPDEST DUP3 MSTORE POP POP JUMP JUMPDEST PUSH2 0x13DA DUP2 PUSH2 0x11D5 JUMP JUMPDEST DUP3 MSTORE POP POP JUMP JUMPDEST PUSH2 0x13E9 DUP2 PUSH2 0x11ED JUMP JUMPDEST DUP3 MSTORE POP POP JUMP JUMPDEST PUSH2 0x120 DUP3 ADD PUSH0 DUP3 ADD MLOAD PUSH2 0x1404 PUSH0 DUP6 ADD DUP3 PUSH2 0x13B3 JUMP JUMPDEST POP PUSH1 0x20 DUP3 ADD MLOAD PUSH2 0x1417 PUSH1 0x20 DUP6 ADD DUP3 PUSH2 0x13B3 JUMP JUMPDEST POP PUSH1 0x40 DUP3 ADD MLOAD PUSH2 0x142A PUSH1 0x40 DUP6 ADD DUP3 PUSH2 0x13C2 JUMP JUMPDEST POP PUSH1 0x60 DUP3 ADD MLOAD PUSH2 0x143D PUSH1 0x60 DUP6 ADD DUP3 PUSH2 0x13D1 JUMP JUMPDEST POP PUSH1 0x80 DUP3 ADD MLOAD PUSH2 0x1450 PUSH1 0x80 DUP6 ADD DUP3 PUSH2 0x13C2 JUMP JUMPDEST POP PUSH1 0xA0 DUP3 ADD MLOAD PUSH2 0x1463 PUSH1 0xA0 DUP6 ADD DUP3 PUSH2 0x13E0 JUMP JUMPDEST POP PUSH1 0xC0 DUP3 ADD MLOAD PUSH2 0x1476 PUSH1 0xC0 DUP6 ADD DUP3 PUSH2 0x13E0 JUMP JUMPDEST POP PUSH1 0xE0 DUP3 ADD MLOAD PUSH2 0x1489 PUSH1 0xE0 DUP6 ADD DUP3 PUSH2 0x13E0 JUMP JUMPDEST POP PUSH2 0x100 DUP3 ADD MLOAD PUSH2 0x149E PUSH2 0x100 DUP6 ADD DUP3 PUSH2 0x13B3 JUMP JUMPDEST POP POP POP POP JUMP JUMPDEST PUSH0 PUSH2 0x120 DUP3 ADD SWAP1 POP PUSH2 0x14B8 PUSH0 DUP4 ADD DUP5 PUSH2 0x13EF JUMP JUMPDEST SWAP3 SWAP2 POP POP JUMP JUMPDEST PUSH0 DUP2 SWAP1 POP SWAP2 SWAP1 POP JUMP JUMPDEST PUSH2 0x14D8 PUSH2 0x14D3 DUP3 PUSH2 0x11D5 JUMP JUMPDEST PUSH2 0x14BE JUMP JUMPDEST DUP3 MSTORE POP POP JUMP JUMPDEST PUSH0 PUSH2 0x14E9 DUP3 DUP5 PUSH2 0x14C7 JUMP JUMPDEST PUSH1 0x20 DUP3 ADD SWAP2 POP DUP2 SWAP1 POP SWAP3 SWAP2 POP POP JUMP JUMPDEST PUSH0 PUSH1 0x20 DUP3 ADD SWAP1 POP PUSH2 0x150B PUSH0 DUP4 ADD DUP5 PUSH2 0x11C6 JUMP JUMPDEST SWAP3 SWAP2 POP POP JUMP JUMPDEST PUSH0 PUSH1 0x40 DUP3 ADD SWAP1 POP PUSH2 0x1524 PUSH0 DUP4 ADD DUP6 PUSH2 0x113C JUMP JUMPDEST PUSH2 0x1531 PUSH1 0x20 DUP4 ADD DUP5 PUSH2 0x11C6 JUMP JUMPDEST SWAP4 SWAP3 POP POP POP JUMP JUMPDEST PUSH0 PUSH1 0x60 DUP3 ADD SWAP1 POP PUSH2 0x154B PUSH0 DUP4 ADD DUP7 PUSH2 0x113C JUMP JUMPDEST PUSH2 0x1558 PUSH1 0x20 DUP4 ADD DUP6 PUSH2 0x113C JUMP JUMPDEST PUSH2 0x1565 PUSH1 0x40 DUP4 ADD DUP5 PUSH2 0x11C6 JUMP JUMPDEST SWAP5 SWAP4 POP POP POP POP JUMP INVALID LOG2 PUSH5 0x6970667358 0x22 SLT KECCAK256 0x29 0xC6 0xC3 DUP5 0xA7 CREATE2 PUSH9 0xEA090DBF94A73F594B JUMP PUSH2 0x7D6B 0xC7 0xAE PUSH5 0xF22298A4D0 EXTCODECOPY PUSH12 0x7D6264736F6C634300081700 CALLER PUSH1 0xA0 PUSH1 0x40 MSTORE CALLVALUE DUP1 ISZERO PUSH2 0xF JUMPI PUSH0 DUP1 REVERT JUMPDEST POP PUSH1 0x1 PUSH0 DUP2 SWAP1 SSTORE POP CALLER PUSH20 0xFFFFFFFFFFFFFFFFFFFFFFFFFFFFFFFFFFFFFFFF AND PUSH1 0x80 DUP2 PUSH20 0xFFFFFFFFFFFFFFFFFFFFFFFFFFFFFFFFFFFFFFFF AND DUP2 MSTORE POP POP PUSH1 0x80 MLOAD PUSH2 0x1536 PUSH2 0x71 PUSH0 CODECOPY PUSH0 DUP2 DUP2 PUSH2 0x16C ADD MSTORE DUP2 DUP2 PUSH2 0x570 ADD MSTORE PUSH2 0x8CC ADD MSTORE PUSH2 0x1536 PUSH0 RETURN INVALID PUSH1 0x80 PUSH1 0x40 MSTORE CALLVALUE DUP1 ISZERO PUSH2 0xF JUMPI PUSH0 DUP1 REVERT JUMPDEST POP PUSH1 0x4 CALLDATASIZE LT PUSH2 0x86 JUMPI PUSH0 CALLDATALOAD PUSH1 0xE0 SHR DUP1 PUSH4 0x6FACD1C0 GT PUSH2 0x59 JUMPI DUP1 PUSH4 0x6FACD1C0 EQ PUSH2 0xF6 JUMPI DUP1 PUSH4 0xA511C195 EQ PUSH2 0x112 JUMPI DUP1 PUSH4 0xBA253B4D EQ PUSH2 0x12E JUMPI DUP1 PUSH4 0xF6BBC25D EQ PUSH2 0x14C JUMPI PUSH2 0x86 JUMP JUMPDEST DUP1 PUSH4 0x4F3BCEC EQ PUSH2 0x8A JUMPI DUP1 PUSH4 0xA73FAF3 EQ PUSH2 0xA8 JUMPI DUP1 PUSH4 0x229E81FB EQ PUSH2 0xC6 JUMPI DUP1 PUSH4 0x590E1AE3 EQ PUSH2 0xEC JUMPI JUMPDEST PUSH0 DUP1 REVERT JUMPDEST PUSH2 0x92 PUSH2 0x16A JUMP JUMPDEST PUSH1 0x40 MLOAD PUSH2 0x9F SWAP2 SWAP1 PUSH2 0x1095 JUMP JUMPDEST PUSH1 0x40 MLOAD DUP1 SWAP2 SUB SWAP1 RETURN JUMPDEST PUSH2 0xB0 PUSH2 0x18E JUMP JUMPDEST PUSH1 0x40 MLOAD PUSH2 0xBD SWAP2 SWAP1 PUSH2 0x10C6 JUMP JUMPDEST PUSH1 0x40 MLOAD DUP1 SWAP2 SUB SWAP1 RETURN JUMPDEST PUSH2 0xCE PUSH2 0x194 JUMP JUMPDEST PUSH1 0x40 MLOAD PUSH2 0xE3 SWAP10 SWAP9 SWAP8 SWAP7 SWAP6 SWAP5 SWAP4 SWAP3 SWAP2 SWAP1 PUSH2 0x1111 JUMP JUMPDEST PUSH1 0x40 MLOAD DUP1 SWAP2 SUB SWAP1 RETURN JUMPDEST PUSH2 0xF4 PUSH2 0x253 JUMP JUMPDEST STOP JUMPDEST PUSH2 0x110 PUSH1 0x4 DUP1 CALLDATASIZE SUB DUP2 ADD SWAP1 PUSH2 0x10B SWAP2 SWAP1 PUSH2 0x11CA JUMP JUMPDEST PUSH2 0x50A JUMP JUMPDEST STOP JUMPDEST PUSH2 0x12C PUSH1 0x4 DUP1 CALLDATASIZE SUB DUP2 ADD SWAP1 PUSH2 0x127 SWAP2 SWAP1 PUSH2 0x1249 JUMP JUMPDEST PUSH2 0x8CA JUMP JUMPDEST STOP JUMPDEST PUSH2 0x136 PUSH2 0xC51 JUMP JUMPDEST PUSH1 0x40 MLOAD PUSH2 0x143 SWAP2 SWAP1 PUSH2 0x12E6 JUMP JUMPDEST PUSH1 0x40 MLOAD DUP1 SWAP2 SUB SWAP1 RETURN JUMPDEST PUSH2 0x154 PUSH2 0xC57 JUMP JUMPDEST PUSH1 0x40 MLOAD PUSH2 0x161 SWAP2 SWAP1 PUSH2 0x13F0 JUMP JUMPDEST PUSH1 0x40 MLOAD DUP1 SWAP2 SUB SWAP1 RETURN JUMPDEST PUSH32 0x0 DUP2 JUMP JUMPDEST PUSH2 0x708 DUP2 JUMP JUMPDEST PUSH1 0x1 DUP1 PUSH0 ADD PUSH0 SWAP1 SLOAD SWAP1 PUSH2 0x100 EXP SWAP1 DIV PUSH20 0xFFFFFFFFFFFFFFFFFFFFFFFFFFFFFFFFFFFFFFFF AND SWAP1 DUP1 PUSH1 0x1 ADD PUSH0 SWAP1 SLOAD SWAP1 PUSH2 0x100 EXP SWAP1 DIV PUSH20 0xFFFFFFFFFFFFFFFFFFFFFFFFFFFFFFFFFFFFFFFF AND SWAP1 DUP1 PUSH1 0x2 ADD SLOAD SWAP1 DUP1 PUSH1 0x3 ADD SLOAD SWAP1 DUP1 PUSH1 0x4 ADD SLOAD SWAP1 DUP1 PUSH1 0x5 ADD PUSH0 SWAP1 SLOAD SWAP1 PUSH2 0x100 EXP SWAP1 DIV PUSH1 0xFF AND SWAP1 DUP1 PUSH1 0x5 ADD PUSH1 0x1 SWAP1 SLOAD SWAP1 PUSH2 0x100 EXP SWAP1 DIV PUSH1 0xFF AND SWAP1 DUP1 PUSH1 0x5 ADD PUSH1 0x2 SWAP1 SLOAD SWAP1 PUSH2 0x100 EXP SWAP1 DIV PUSH1 0xFF AND SWAP1 DUP1 PUSH1 0x5 ADD PUSH1 0x3 SWAP1 SLOAD SWAP1 PUSH2 0x100 EXP SWAP1 DIV PUSH20 0xFFFFFFFFFFFFFFFFFFFFFFFFFFFFFFFFFFFFFFFF AND SWAP1 POP DUP10 JUMP JUMPDEST PUSH1 0x1 PUSH0 ADD PUSH0 SWAP1 SLOAD SWAP1 PUSH2 0x100 EXP SWAP1 DIV PUSH20 0xFFFFFFFFFFFFFFFFFFFFFFFFFFFFFFFFFFFFFFFF AND PUSH20 0xFFFFFFFFFFFFFFFFFFFFFFFFFFFFFFFFFFFFFFFF AND CALLER PUSH20 0xFFFFFFFFFFFFFFFFFFFFFFFFFFFFFFFFFFFFFFFF AND EQ PUSH2 0x2DB JUMPI PUSH1 0x40 MLOAD PUSH32 0x5C427CD900000000000000000000000000000000000000000000000000000000 DUP2 MSTORE PUSH1 0x4 ADD PUSH1 0x40 MLOAD DUP1 SWAP2 SUB SWAP1 REVERT JUMPDEST PUSH2 0x2E3 PUSH2 0xDDF JUMP JUMPDEST PUSH0 PUSH20 0xFFFFFFFFFFFFFFFFFFFFFFFFFFFFFFFFFFFFFFFF AND PUSH1 0x1 PUSH0 ADD PUSH0 SWAP1 SLOAD SWAP1 PUSH2 0x100 EXP SWAP1 DIV PUSH20 0xFFFFFFFFFFFFFFFFFFFFFFFFFFFFFFFFFFFFFFFF AND PUSH20 0xFFFFFFFFFFFFFFFFFFFFFFFFFFFFFFFFFFFFFFFF AND SUB PUSH2 0x36B JUMPI PUSH1 0x40 MLOAD PUSH32 0x453FFB6000000000000000000000000000000000000000000000000000000000 DUP2 MSTORE PUSH1 0x4 ADD PUSH1 0x40 MLOAD DUP1 SWAP2 SUB SWAP1 REVERT JUMPDEST PUSH1 0x1 PUSH1 0x5 ADD PUSH1 0x1 SWAP1 SLOAD SWAP1 PUSH2 0x100 EXP SWAP1 DIV PUSH1 0xFF AND ISZERO PUSH2 0x3B5 JUMPI PUSH1 0x40 MLOAD PUSH32 0x368368700000000000000000000000000000000000000000000000000000000 DUP2 MSTORE PUSH1 0x4 ADD PUSH1 0x40 MLOAD DUP1 SWAP2 SUB SWAP1 REVERT JUMPDEST PUSH1 0x1 PUSH1 0x5 ADD PUSH1 0x2 SWAP1 SLOAD SWAP1 PUSH2 0x100 EXP SWAP1 DIV PUSH1 0xFF AND ISZERO PUSH2 0x3FF JUMPI PUSH1 0x40 MLOAD PUSH32 0x7C87A47200000000000000000000000000000000000000000000000000000000 DUP2 MSTORE PUSH1 0x4 ADD PUSH1 0x40 MLOAD DUP1 SWAP2 SUB SWAP1 REVERT JUMPDEST PUSH1 0x1 PUSH1 0x4 ADD SLOAD TIMESTAMP LT ISZERO PUSH2 0x43E JUMPI PUSH1 0x40 MLOAD PUSH32 0x796C85F300000000000000000000000000000000000000000000000000000000 DUP2 MSTORE PUSH1 0x4 ADD PUSH1 0x40 MLOAD DUP1 SWAP2 SUB SWAP1 REVERT JUMPDEST PUSH1 0x1 DUP1 PUSH1 0x5 ADD PUSH1 0x2 PUSH2 0x100 EXP DUP2 SLOAD DUP2 PUSH1 0xFF MUL NOT AND SWAP1 DUP4 ISZERO ISZERO MUL OR SWAP1 SSTORE POP PUSH2 0x4D1 PUSH1 0x1 PUSH0 ADD PUSH0 SWAP1 SLOAD SWAP1 PUSH2 0x100 EXP SWAP1 DIV PUSH20 0xFFFFFFFFFFFFFFFFFFFFFFFFFFFFFFFFFFFFFFFF AND PUSH1 0x1 PUSH1 0x2 ADD SLOAD PUSH1 0x1 DUP1 ADD PUSH0 SWAP1 SLOAD SWAP1 PUSH2 0x100 EXP SWAP1 DIV PUSH20 0xFFFFFFFFFFFFFFFFFFFFFFFFFFFFFFFFFFFFFFFF AND PUSH20 0xFFFFFFFFFFFFFFFFFFFFFFFFFFFFFFFFFFFFFFFF AND PUSH2 0xE23 SWAP1 SWAP3 SWAP2 SWAP1 PUSH4 0xFFFFFFFF AND JUMP JUMPDEST PUSH1 0x7 SLOAD PUSH32 0x54CF119498426B17166B2137ABCA4BD1847BA18E091AC51D965C0BA843E04FF7 PUSH1 0x40 MLOAD PUSH1 0x40 MLOAD DUP1 SWAP2 SUB SWAP1 LOG2 PUSH2 0x508 PUSH2 0xEA2 JUMP JUMPDEST JUMP JUMPDEST PUSH2 0x512 PUSH2 0xDDF JUMP JUMPDEST PUSH1 0x1 PUSH1 0x5 ADD PUSH1 0x3 SWAP1 SLOAD SWAP1 PUSH2 0x100 EXP SWAP1 DIV PUSH20 0xFFFFFFFFFFFFFFFFFFFFFFFFFFFFFFFFFFFFFFFF AND PUSH20 0xFFFFFFFFFFFFFFFFFFFFFFFFFFFFFFFFFFFFFFFF AND CALLER PUSH20 0xFFFFFFFFFFFFFFFFFFFFFFFFFFFFFFFFFFFFFFFF AND EQ ISZERO DUP1 ISZERO PUSH2 0x5BF JUMPI POP PUSH32 0x0 PUSH20 0xFFFFFFFFFFFFFFFFFFFFFFFFFFFFFFFFFFFFFFFF AND CALLER PUSH20 0xFFFFFFFFFFFFFFFFFFFFFFFFFFFFFFFFFFFFFFFF AND EQ ISZERO JUMPDEST ISZERO PUSH2 0x5F6 JUMPI PUSH1 0x40 MLOAD PUSH32 0x5C427CD900000000000000000000000000000000000000000000000000000000 DUP2 MSTORE PUSH1 0x4 ADD PUSH1 0x40 MLOAD DUP1 SWAP2 SUB SWAP1 REVERT JUMPDEST PUSH0 PUSH20 0xFFFFFFFFFFFFFFFFFFFFFFFFFFFFFFFFFFFFFFFF AND PUSH1 0x1 PUSH0 ADD PUSH0 SWAP1 SLOAD SWAP1 PUSH2 0x100 EXP SWAP1 DIV PUSH20 0xFFFFFFFFFFFFFFFFFFFFFFFFFFFFFFFFFFFFFFFF AND PUSH20 0xFFFFFFFFFFFFFFFFFFFFFFFFFFFFFFFFFFFFFFFF AND SUB PUSH2 0x67E JUMPI PUSH1 0x40 MLOAD PUSH32 0x453FFB6000000000000000000000000000000000000000000000000000000000 DUP2 MSTORE PUSH1 0x4 ADD PUSH1 0x40 MLOAD DUP1 SWAP2 SUB SWAP1 REVERT JUMPDEST PUSH1 0x1 PUSH1 0x5 ADD PUSH1 0x1 SWAP1 SLOAD SWAP1 PUSH2 0x100 EXP SWAP1 DIV PUSH1 0xFF AND ISZERO PUSH2 0x6C8 JUMPI PUSH1 0x40 MLOAD PUSH32 0x368368700000000000000000000000000000000000000000000000000000000 DUP2 MSTORE PUSH1 0x4 ADD PUSH1 0x40 MLOAD DUP1 SWAP2 SUB SWAP1 REVERT JUMPDEST PUSH1 0x1 PUSH1 0x5 ADD PUSH1 0x2 SWAP1 SLOAD SWAP1 PUSH2 0x100 EXP SWAP1 DIV PUSH1 0xFF AND ISZERO PUSH2 0x712 JUMPI PUSH1 0x40 MLOAD PUSH32 0x7C87A47200000000000000000000000000000000000000000000000000000000 DUP2 MSTORE PUSH1 0x4 ADD PUSH1 0x40 MLOAD DUP1 SWAP2 SUB SWAP1 REVERT JUMPDEST PUSH1 0x1 PUSH1 0x3 ADD SLOAD DUP2 PUSH1 0x40 MLOAD PUSH1 0x20 ADD PUSH2 0x729 SWAP2 SWAP1 PUSH2 0x142A JUMP JUMPDEST PUSH1 0x40 MLOAD PUSH1 0x20 DUP2 DUP4 SUB SUB DUP2 MSTORE SWAP1 PUSH1 0x40 MSTORE DUP1 MLOAD SWAP1 PUSH1 0x20 ADD KECCAK256 EQ PUSH2 0x776 JUMPI PUSH1 0x40 MLOAD PUSH32 0xABAB6BD700000000000000000000000000000000000000000000000000000000 DUP2 MSTORE PUSH1 0x4 ADD PUSH1 0x40 MLOAD DUP1 SWAP2 SUB SWAP1 REVERT JUMPDEST PUSH1 0x1 PUSH1 0x4 ADD SLOAD TIMESTAMP LT PUSH2 0x7B4 JUMPI PUSH1 0x40 MLOAD PUSH32 0xC56873BA00000000000000000000000000000000000000000000000000000000 DUP2 MSTORE PUSH1 0x4 ADD PUSH1 0x40 MLOAD DUP1 SWAP2 SUB SWAP1 REVERT JUMPDEST PUSH1 0x1 DUP1 PUSH1 0x5 ADD PUSH1 0x1 PUSH2 0x100 EXP DUP2 SLOAD DUP2 PUSH1 0xFF MUL NOT AND SWAP1 DUP4 ISZERO ISZERO MUL OR SWAP1 SSTORE POP PUSH2 0x849 PUSH1 0x1 PUSH1 0x5 ADD PUSH1 0x3 SWAP1 SLOAD SWAP1 PUSH2 0x100 EXP SWAP1 DIV PUSH20 0xFFFFFFFFFFFFFFFFFFFFFFFFFFFFFFFFFFFFFFFF AND PUSH1 0x1 PUSH1 0x2 ADD SLOAD PUSH1 0x1 DUP1 ADD PUSH0 SWAP1 SLOAD SWAP1 PUSH2 0x100 EXP SWAP1 DIV PUSH20 0xFFFFFFFFFFFFFFFFFFFFFFFFFFFFFFFFFFFFFFFF AND PUSH20 0xFFFFFFFFFFFFFFFFFFFFFFFFFFFFFFFFFFFFFFFF AND PUSH2 0xE23 SWAP1 SWAP3 SWAP2 SWAP1 PUSH4 0xFFFFFFFF AND JUMP JUMPDEST PUSH1 0x1 PUSH1 0x5 ADD PUSH1 0x3 SWAP1 SLOAD SWAP1 PUSH2 0x100 EXP SWAP1 DIV PUSH20 0xFFFFFFFFFFFFFFFFFFFFFFFFFFFFFFFFFFFFFFFF AND PUSH20 0xFFFFFFFFFFFFFFFFFFFFFFFFFFFFFFFFFFFFFFFF AND PUSH1 0x7 SLOAD PUSH32 0xCE4C2FD8ECEFFA201B1AD710862A2B4364ADBF66B5EB1AAD9DABD210C9C34E9A DUP4 PUSH1 0x40 MLOAD PUSH2 0x8B7 SWAP2 SWAP1 PUSH2 0x12E6 JUMP JUMPDEST PUSH1 0x40 MLOAD DUP1 SWAP2 SUB SWAP1 LOG3 PUSH2 0x8C7 PUSH2 0xEA2 JUMP JUMPDEST POP JUMP JUMPDEST PUSH32 0x0 PUSH20 0xFFFFFFFFFFFFFFFFFFFFFFFFFFFFFFFFFFFFFFFF AND CALLER PUSH20 0xFFFFFFFFFFFFFFFFFFFFFFFFFFFFFFFFFFFFFFFF AND EQ PUSH2 0x94F JUMPI PUSH1 0x40 MLOAD PUSH32 0x5C427CD900000000000000000000000000000000000000000000000000000000 DUP2 MSTORE PUSH1 0x4 ADD PUSH1 0x40 MLOAD DUP1 SWAP2 SUB SWAP1 REVERT JUMPDEST PUSH0 PUSH20 0xFFFFFFFFFFFFFFFFFFFFFFFFFFFFFFFFFFFFFFFF AND PUSH1 0x1 PUSH0 ADD PUSH0 SWAP1 SLOAD SWAP1 PUSH2 0x100 EXP SWAP1 DIV PUSH20 0xFFFFFFFFFFFFFFFFFFFFFFFFFFFFFFFFFFFFFFFF AND PUSH20 0xFFFFFFFFFFFFFFFFFFFFFFFFFFFFFFFFFFFFFFFF AND EQ PUSH2 0x9D7 JUMPI PUSH1 0x40 MLOAD PUSH32 0x368368700000000000000000000000000000000000000000000000000000000 DUP2 MSTORE PUSH1 0x4 ADD PUSH1 0x40 MLOAD DUP1 SWAP2 SUB SWAP1 REVERT JUMPDEST DUP7 PUSH1 0x7 DUP2 SWAP1 SSTORE POP PUSH1 0x40 MLOAD DUP1 PUSH2 0x120 ADD PUSH1 0x40 MSTORE DUP1 DUP8 PUSH20 0xFFFFFFFFFFFFFFFFFFFFFFFFFFFFFFFFFFFFFFFF AND DUP2 MSTORE PUSH1 0x20 ADD DUP7 PUSH20 0xFFFFFFFFFFFFFFFFFFFFFFFFFFFFFFFFFFFFFFFF AND DUP2 MSTORE PUSH1 0x20 ADD DUP6 DUP2 MSTORE PUSH1 0x20 ADD DUP5 DUP2 MSTORE PUSH1 0x20 ADD PUSH2 0x708 DUP5 PUSH2 0xA3C SWAP2 SWAP1 PUSH2 0x1471 JUMP JUMPDEST DUP2 MSTORE PUSH1 0x20 ADD PUSH0 ISZERO ISZERO DUP2 MSTORE PUSH1 0x20 ADD PUSH0 ISZERO ISZERO DUP2 MSTORE PUSH1 0x20 ADD PUSH0 ISZERO ISZERO DUP2 MSTORE PUSH1 0x20 ADD DUP3 PUSH20 0xFFFFFFFFFFFFFFFFFFFFFFFFFFFFFFFFFFFFFFFF AND DUP2 MSTORE POP PUSH1 0x1 PUSH0 DUP3 ADD MLOAD DUP2 PUSH0 ADD PUSH0 PUSH2 0x100 EXP DUP2 SLOAD DUP2 PUSH20 0xFFFFFFFFFFFFFFFFFFFFFFFFFFFFFFFFFFFFFFFF MUL NOT AND SWAP1 DUP4 PUSH20 0xFFFFFFFFFFFFFFFFFFFFFFFFFFFFFFFFFFFFFFFF AND MUL OR SWAP1 SSTORE POP PUSH1 0x20 DUP3 ADD MLOAD DUP2 PUSH1 0x1 ADD PUSH0 PUSH2 0x100 EXP DUP2 SLOAD DUP2 PUSH20 0xFFFFFFFFFFFFFFFFFFFFFFFFFFFFFFFFFFFFFFFF MUL NOT AND SWAP1 DUP4 PUSH20 0xFFFFFFFFFFFFFFFFFFFFFFFFFFFFFFFFFFFFFFFF AND MUL OR SWAP1 SSTORE POP PUSH1 0x40 DUP3 ADD MLOAD DUP2 PUSH1 0x2 ADD SSTORE PUSH1 0x60 DUP3 ADD MLOAD DUP2 PUSH1 0x3 ADD SSTORE PUSH1 0x80 DUP3 ADD MLOAD DUP2 PUSH1 0x4 ADD SSTORE PUSH1 0xA0 DUP3 ADD MLOAD DUP2 PUSH1 0x5 ADD PUSH0 PUSH2 0x100 EXP DUP2 SLOAD DUP2 PUSH1 0xFF MUL NOT AND SWAP1 DUP4 ISZERO ISZERO MUL OR SWAP1 SSTORE POP PUSH1 0xC0 DUP3 ADD MLOAD DUP2 PUSH1 0x5 ADD PUSH1 0x1 PUSH2 0x100 EXP DUP2 SLOAD DUP2 PUSH1 0xFF MUL NOT AND SWAP1 DUP4 ISZERO ISZERO MUL OR SWAP1 SSTORE POP PUSH1 0xE0 DUP3 ADD MLOAD DUP2 PUSH1 0x5 ADD PUSH1 0x2 PUSH2 0x100 EXP DUP2 SLOAD DUP2 PUSH1 0xFF MUL NOT AND SWAP1 DUP4 ISZERO ISZERO MUL OR SWAP1 SSTORE POP PUSH2 0x100 DUP3 ADD MLOAD DUP2 PUSH1 0x5 ADD PUSH1 0x3 PUSH2 0x100 EXP DUP2 SLOAD DUP2 PUSH20 0xFFFFFFFFFFFFFFFFFFFFFFFFFFFFFFFFFFFFFFFF MUL NOT AND SWAP1 DUP4 PUSH20 0xFFFFFFFFFFFFFFFFFFFFFFFFFFFFFFFFFFFFFFFF AND MUL OR SWAP1 SSTORE POP SWAP1 POP POP PUSH2 0xBF4 DUP7 ADDRESS DUP7 DUP9 PUSH20 0xFFFFFFFFFFFFFFFFFFFFFFFFFFFFFFFFFFFFFFFF AND PUSH2 0xEAB SWAP1 SWAP4 SWAP3 SWAP2 SWAP1 PUSH4 0xFFFFFFFF AND JUMP JUMPDEST PUSH1 0x1 DUP1 PUSH1 0x5 ADD PUSH0 PUSH2 0x100 EXP DUP2 SLOAD DUP2 PUSH1 0xFF MUL NOT AND SWAP1 DUP4 ISZERO ISZERO MUL OR SWAP1 SSTORE POP DUP7 PUSH32 0x224EC8D6443407A8529637FA2B4E5E9AD882EDE9D1EB6578BC301CF268E9E86F DUP6 PUSH1 0x40 MLOAD PUSH2 0xC40 SWAP2 SWAP1 PUSH2 0x10C6 JUMP JUMPDEST PUSH1 0x40 MLOAD DUP1 SWAP2 SUB SWAP1 LOG2 POP POP POP POP POP POP POP JUMP JUMPDEST PUSH1 0x7 SLOAD DUP2 JUMP JUMPDEST PUSH2 0xC5F PUSH2 0xFC8 JUMP JUMPDEST PUSH1 0x1 PUSH1 0x40 MLOAD DUP1 PUSH2 0x120 ADD PUSH1 0x40 MSTORE SWAP1 DUP2 PUSH0 DUP3 ADD PUSH0 SWAP1 SLOAD SWAP1 PUSH2 0x100 EXP SWAP1 DIV PUSH20 0xFFFFFFFFFFFFFFFFFFFFFFFFFFFFFFFFFFFFFFFF AND PUSH20 0xFFFFFFFFFFFFFFFFFFFFFFFFFFFFFFFFFFFFFFFF AND PUSH20 0xFFFFFFFFFFFFFFFFFFFFFFFFFFFFFFFFFFFFFFFF AND DUP2 MSTORE PUSH1 0x20 ADD PUSH1 0x1 DUP3 ADD PUSH0 SWAP1 SLOAD SWAP1 PUSH2 0x100 EXP SWAP1 DIV PUSH20 0xFFFFFFFFFFFFFFFFFFFFFFFFFFFFFFFFFFFFFFFF AND PUSH20 0xFFFFFFFFFFFFFFFFFFFFFFFFFFFFFFFFFFFFFFFF AND PUSH20 0xFFFFFFFFFFFFFFFFFFFFFFFFFFFFFFFFFFFFFFFF AND DUP2 MSTORE PUSH1 0x20 ADD PUSH1 0x2 DUP3 ADD SLOAD DUP2 MSTORE PUSH1 0x20 ADD PUSH1 0x3 DUP3 ADD SLOAD DUP2 MSTORE PUSH1 0x20 ADD PUSH1 0x4 DUP3 ADD SLOAD DUP2 MSTORE PUSH1 0x20 ADD PUSH1 0x5 DUP3 ADD PUSH0 SWAP1 SLOAD SWAP1 PUSH2 0x100 EXP SWAP1 DIV PUSH1 0xFF AND ISZERO ISZERO ISZERO ISZERO DUP2 MSTORE PUSH1 0x20 ADD PUSH1 0x5 DUP3 ADD PUSH1 0x1 SWAP1 SLOAD SWAP1 PUSH2 0x100 EXP SWAP1 DIV PUSH1 0xFF AND ISZERO ISZERO ISZERO ISZERO DUP2 MSTORE PUSH1 0x20 ADD PUSH1 0x5 DUP3 ADD PUSH1 0x2 SWAP1 SLOAD SWAP1 PUSH2 0x100 EXP SWAP1 DIV PUSH1 0xFF AND ISZERO ISZERO ISZERO ISZERO DUP2 MSTORE PUSH1 0x20 ADD PUSH1 0x5 DUP3 ADD PUSH1 0x3 SWAP1 SLOAD SWAP1 PUSH2 0x100 EXP SWAP1 DIV PUSH20 0xFFFFFFFFFFFFFFFFFFFFFFFFFFFFFFFFFFFFFFFF AND PUSH20 0xFFFFFFFFFFFFFFFFFFFFFFFFFFFFFFFFFFFFFFFF AND PUSH20 0xFFFFFFFFFFFFFFFFFFFFFFFFFFFFFFFFFFFFFFFF AND DUP2 MSTORE POP POP SWAP1 POP SWAP1 JUMP JUMPDEST PUSH1 0x2 PUSH0 SLOAD SUB PUSH2 0xE1A JUMPI PUSH1 0x40 MLOAD PUSH32 0x3EE5AEB500000000000000000000000000000000000000000000000000000000 DUP2 MSTORE PUSH1 0x4 ADD PUSH1 0x40 MLOAD DUP1 SWAP2 SUB SWAP1 REVERT JUMPDEST PUSH1 0x2 PUSH0 DUP2 SWAP1 SSTORE POP JUMP JUMPDEST PUSH2 0xE9D DUP4 DUP5 PUSH20 0xFFFFFFFFFFFFFFFFFFFFFFFFFFFFFFFFFFFFFFFF AND PUSH4 0xA9059CBB DUP6 DUP6 PUSH1 0x40 MLOAD PUSH1 0x24 ADD PUSH2 0xE56 SWAP3 SWAP2 SWAP1 PUSH2 0x14A4 JUMP JUMPDEST PUSH1 0x40 MLOAD PUSH1 0x20 DUP2 DUP4 SUB SUB DUP2 MSTORE SWAP1 PUSH1 0x40 MSTORE SWAP2 POP PUSH1 0xE0 SHL PUSH1 0x20 DUP3 ADD DUP1 MLOAD PUSH28 0xFFFFFFFFFFFFFFFFFFFFFFFFFFFFFFFFFFFFFFFFFFFFFFFFFFFFFFFF DUP4 DUP2 DUP4 AND OR DUP4 MSTORE POP POP POP POP PUSH2 0xF2D JUMP JUMPDEST POP POP POP JUMP JUMPDEST PUSH1 0x1 PUSH0 DUP2 SWAP1 SSTORE POP JUMP JUMPDEST PUSH2 0xF27 DUP5 DUP6 PUSH20 0xFFFFFFFFFFFFFFFFFFFFFFFFFFFFFFFFFFFFFFFF AND PUSH4 0x23B872DD DUP7 DUP7 DUP7 PUSH1 0x40 MLOAD PUSH1 0x24 ADD PUSH2 0xEE0 SWAP4 SWAP3 SWAP2 SWAP1 PUSH2 0x14CB JUMP JUMPDEST PUSH1 0x40 MLOAD PUSH1 0x20 DUP2 DUP4 SUB SUB DUP2 MSTORE SWAP1 PUSH1 0x40 MSTORE SWAP2 POP PUSH1 0xE0 SHL PUSH1 0x20 DUP3 ADD DUP1 MLOAD PUSH28 0xFFFFFFFFFFFFFFFFFFFFFFFFFFFFFFFFFFFFFFFFFFFFFFFFFFFFFFFF DUP4 DUP2 DUP4 AND OR DUP4 MSTORE POP POP POP POP PUSH2 0xF2D JUMP JUMPDEST POP POP POP POP JUMP JUMPDEST PUSH0 DUP1 PUSH1 0x20 PUSH0 DUP5 MLOAD PUSH1 0x20 DUP7 ADD PUSH0 DUP9 GAS CALL DUP1 PUSH2 0xF4C JUMPI PUSH1 0x40 MLOAD RETURNDATASIZE PUSH0 DUP3 RETURNDATACOPY RETURNDATASIZE DUP2 REVERT JUMPDEST RETURNDATASIZE SWAP3 POP PUSH0 MLOAD SWAP2 POP POP PUSH0 DUP3 EQ PUSH2 0xF65 JUMPI PUSH1 0x1 DUP2 EQ ISZERO PUSH2 0xF80 JUMP JUMPDEST PUSH0 DUP5 PUSH20 0xFFFFFFFFFFFFFFFFFFFFFFFFFFFFFFFFFFFFFFFF AND EXTCODESIZE EQ JUMPDEST ISZERO PUSH2 0xFC2 JUMPI DUP4 PUSH1 0x40 MLOAD PUSH32 0x5274AFE700000000000000000000000000000000000000000000000000000000 DUP2 MSTORE PUSH1 0x4 ADD PUSH2 0xFB9 SWAP2 SWAP1 PUSH2 0x1095 JUMP JUMPDEST PUSH1 0x40 MLOAD DUP1 SWAP2 SUB SWAP1 REVERT JUMPDEST POP POP POP POP JUMP JUMPDEST PUSH1 0x40 MLOAD DUP1 PUSH2 0x120 ADD PUSH1 0x40 MSTORE DUP1 PUSH0 PUSH20 0xFFFFFFFFFFFFFFFFFFFFFFFFFFFFFFFFFFFFFFFF AND DUP2 MSTORE PUSH1 0x20 ADD PUSH0 PUSH20 0xFFFFFFFFFFFFFFFFFFFFFFFFFFFFFFFFFFFFFFFF AND DUP2 MSTORE PUSH1 0x20 ADD PUSH0 DUP2 MSTORE PUSH1 0x20 ADD PUSH0 DUP1 NOT AND DUP2 MSTORE PUSH1 0x20 ADD PUSH0 DUP2 MSTORE PUSH1 0x20 ADD PUSH0 ISZERO ISZERO DUP2 MSTORE PUSH1 0x20 ADD PUSH0 ISZERO ISZERO DUP2 MSTORE PUSH1 0x20 ADD PUSH0 ISZERO ISZERO DUP2 MSTORE PUSH1 0x20 ADD PUSH0 PUSH20 0xFFFFFFFFFFFFFFFFFFFFFFFFFFFFFFFFFFFFFFFF AND DUP2 MSTORE POP SWAP1 JUMP JUMPDEST PUSH0 PUSH20 0xFFFFFFFFFFFFFFFFFFFFFFFFFFFFFFFFFFFFFFFF DUP3 AND SWAP1 POP SWAP2 SWAP1 POP JUMP JUMPDEST PUSH0 PUSH2 0x107F DUP3 PUSH2 0x1056 JUMP JUMPDEST SWAP1 POP SWAP2 SWAP1 POP JUMP JUMPDEST PUSH2 0x108F DUP2 PUSH2 0x1075 JUMP JUMPDEST DUP3 MSTORE POP POP JUMP JUMPDEST PUSH0 PUSH1 0x20 DUP3 ADD SWAP1 POP PUSH2 0x10A8 PUSH0 DUP4 ADD DUP5 PUSH2 0x1086 JUMP JUMPDEST SWAP3 SWAP2 POP POP JUMP JUMPDEST PUSH0 DUP2 SWAP1 POP SWAP2 SWAP1 POP JUMP JUMPDEST PUSH2 0x10C0 DUP2 PUSH2 0x10AE JUMP JUMPDEST DUP3 MSTORE POP POP JUMP JUMPDEST PUSH0 PUSH1 0x20 DUP3 ADD SWAP1 POP PUSH2 0x10D9 PUSH0 DUP4 ADD DUP5 PUSH2 0x10B7 JUMP JUMPDEST SWAP3 SWAP2 POP POP JUMP JUMPDEST PUSH0 DUP2 SWAP1 POP SWAP2 SWAP1 POP JUMP JUMPDEST PUSH2 0x10F1 DUP2 PUSH2 0x10DF JUMP JUMPDEST DUP3 MSTORE POP POP JUMP JUMPDEST PUSH0 DUP2 ISZERO ISZERO SWAP1 POP SWAP2 SWAP1 POP JUMP JUMPDEST PUSH2 0x110B DUP2 PUSH2 0x10F7 JUMP JUMPDEST DUP3 MSTORE POP POP JUMP JUMPDEST PUSH0 PUSH2 0x120 DUP3 ADD SWAP1 POP PUSH2 0x1125 PUSH0 DUP4 ADD DUP13 PUSH2 0x1086 JUMP JUMPDEST PUSH2 0x1132 PUSH1 0x20 DUP4 ADD DUP12 PUSH2 0x1086 JUMP JUMPDEST PUSH2 0x113F PUSH1 0x40 DUP4 ADD DUP11 PUSH2 0x10B7 JUMP JUMPDEST PUSH2 0x114C PUSH1 0x60 DUP4 ADD DUP10 PUSH2 0x10E8 JUMP JUMPDEST PUSH2 0x1159 PUSH1 0x80 DUP4 ADD DUP9 PUSH2 0x10B7 JUMP JUMPDEST PUSH2 0x1166 PUSH1 0xA0 DUP4 ADD DUP8 PUSH2 0x1102 JUMP JUMPDEST PUSH2 0x1173 PUSH1 0xC0 DUP4 ADD DUP7 PUSH2 0x1102 JUMP JUMPDEST PUSH2 0x1180 PUSH1 0xE0 DUP4 ADD DUP6 PUSH2 0x1102 JUMP JUMPDEST PUSH2 0x118E PUSH2 0x100 DUP4 ADD DUP5 PUSH2 0x1086 JUMP JUMPDEST SWAP11 SWAP10 POP POP POP POP POP POP POP POP POP POP JUMP JUMPDEST PUSH0 DUP1 REVERT JUMPDEST PUSH2 0x11A9 DUP2 PUSH2 0x10DF JUMP JUMPDEST DUP2 EQ PUSH2 0x11B3 JUMPI PUSH0 DUP1 REVERT JUMPDEST POP JUMP JUMPDEST PUSH0 DUP2 CALLDATALOAD SWAP1 POP PUSH2 0x11C4 DUP2 PUSH2 0x11A0 JUMP JUMPDEST SWAP3 SWAP2 POP POP JUMP JUMPDEST PUSH0 PUSH1 0x20 DUP3 DUP5 SUB SLT ISZERO PUSH2 0x11DF JUMPI PUSH2 0x11DE PUSH2 0x119C JUMP JUMPDEST JUMPDEST PUSH0 PUSH2 0x11EC DUP5 DUP3 DUP6 ADD PUSH2 0x11B6 JUMP JUMPDEST SWAP2 POP POP SWAP3 SWAP2 POP POP JUMP JUMPDEST PUSH2 0x11FE DUP2 PUSH2 0x1075 JUMP JUMPDEST DUP2 EQ PUSH2 0x1208 JUMPI PUSH0 DUP1 REVERT JUMPDEST POP JUMP JUMPDEST PUSH0 DUP2 CALLDATALOAD SWAP1 POP PUSH2 0x1219 DUP2 PUSH2 0x11F5 JUMP JUMPDEST SWAP3 SWAP2 POP POP JUMP JUMPDEST PUSH2 0x1228 DUP2 PUSH2 0x10AE JUMP JUMPDEST DUP2 EQ PUSH2 0x1232 JUMPI PUSH0 DUP1 REVERT JUMPDEST POP JUMP JUMPDEST PUSH0 DUP2 CALLDATALOAD SWAP1 POP PUSH2 0x1243 DUP2 PUSH2 0x121F JUMP JUMPDEST SWAP3 SWAP2 POP POP JUMP JUMPDEST PUSH0 DUP1 PUSH0 DUP1 PUSH0 DUP1 PUSH0 PUSH1 0xE0 DUP9 DUP11 SUB SLT ISZERO PUSH2 0x1264 JUMPI PUSH2 0x1263 PUSH2 0x119C JUMP JUMPDEST JUMPDEST PUSH0 PUSH2 0x1271 DUP11 DUP3 DUP12 ADD PUSH2 0x11B6 JUMP JUMPDEST SWAP8 POP POP PUSH1 0x20 PUSH2 0x1282 DUP11 DUP3 DUP12 ADD PUSH2 0x120B JUMP JUMPDEST SWAP7 POP POP PUSH1 0x40 PUSH2 0x1293 DUP11 DUP3 DUP12 ADD PUSH2 0x120B JUMP JUMPDEST SWAP6 POP POP PUSH1 0x60 PUSH2 0x12A4 DUP11 DUP3 DUP12 ADD PUSH2 0x1235 JUMP JUMPDEST SWAP5 POP POP PUSH1 0x80 PUSH2 0x12B5 DUP11 DUP3 DUP12 ADD PUSH2 0x11B6 JUMP JUMPDEST SWAP4 POP POP PUSH1 0xA0 PUSH2 0x12C6 DUP11 DUP3 DUP12 ADD PUSH2 0x1235 JUMP JUMPDEST SWAP3 POP POP PUSH1 0xC0 PUSH2 0x12D7 DUP11 DUP3 DUP12 ADD PUSH2 0x120B JUMP JUMPDEST SWAP2 POP POP SWAP3 SWAP6 SWAP9 SWAP2 SWAP5 SWAP8 POP SWAP3 SWAP6 POP JUMP JUMPDEST PUSH0 PUSH1 0x20 DUP3 ADD SWAP1 POP PUSH2 0x12F9 PUSH0 DUP4 ADD DUP5 PUSH2 0x10E8 JUMP JUMPDEST SWAP3 SWAP2 POP POP JUMP JUMPDEST PUSH2 0x1308 DUP2 PUSH2 0x1075 JUMP JUMPDEST DUP3 MSTORE POP POP JUMP JUMPDEST PUSH2 0x1317 DUP2 PUSH2 0x10AE JUMP JUMPDEST DUP3 MSTORE POP POP JUMP JUMPDEST PUSH2 0x1326 DUP2 PUSH2 0x10DF JUMP JUMPDEST DUP3 MSTORE POP POP JUMP JUMPDEST PUSH2 0x1335 DUP2 PUSH2 0x10F7 JUMP JUMPDEST DUP3 MSTORE POP POP JUMP JUMPDEST PUSH2 0x120 DUP3 ADD PUSH0 DUP3 ADD MLOAD PUSH2 0x1350 PUSH0 DUP6 ADD DUP3 PUSH2 0x12FF JUMP JUMPDEST POP PUSH1 0x20 DUP3 ADD MLOAD PUSH2 0x1363 PUSH1 0x20 DUP6 ADD DUP3 PUSH2 0x12FF JUMP JUMPDEST POP PUSH1 0x40 DUP3 ADD MLOAD PUSH2 0x1376 PUSH1 0x40 DUP6 ADD DUP3 PUSH2 0x130E JUMP JUMPDEST POP PUSH1 0x60 DUP3 ADD MLOAD PUSH2 0x1389 PUSH1 0x60 DUP6 ADD DUP3 PUSH2 0x131D JUMP JUMPDEST POP PUSH1 0x80 DUP3 ADD MLOAD PUSH2 0x139C PUSH1 0x80 DUP6 ADD DUP3 PUSH2 0x130E JUMP JUMPDEST POP PUSH1 0xA0 DUP3 ADD MLOAD PUSH2 0x13AF PUSH1 0xA0 DUP6 ADD DUP3 PUSH2 0x132C JUMP JUMPDEST POP PUSH1 0xC0 DUP3 ADD MLOAD PUSH2 0x13C2 PUSH1 0xC0 DUP6 ADD DUP3 PUSH2 0x132C JUMP JUMPDEST POP PUSH1 0xE0 DUP3 ADD MLOAD PUSH2 0x13D5 PUSH1 0xE0 DUP6 ADD DUP3 PUSH2 0x132C JUMP JUMPDEST POP PUSH2 0x100 DUP3 ADD MLOAD PUSH2 0x13EA PUSH2 0x100 DUP6 ADD DUP3 PUSH2 0x12FF JUMP JUMPDEST POP POP POP POP JUMP JUMPDEST PUSH0 PUSH2 0x120 DUP3 ADD SWAP1 POP PUSH2 0x1404 PUSH0 DUP4 ADD DUP5 PUSH2 0x133B JUMP JUMPDEST SWAP3 SWAP2 POP POP JUMP JUMPDEST PUSH0 DUP2 SWAP1 POP SWAP2 SWAP1 POP JUMP JUMPDEST PUSH2 0x1424 PUSH2 0x141F DUP3 PUSH2 0x10DF JUMP JUMPDEST PUSH2 0x140A JUMP JUMPDEST DUP3 MSTORE POP POP JUMP JUMPDEST PUSH0 PUSH2 0x1435 DUP3 DUP5 PUSH2 0x1413 JUMP JUMPDEST PUSH1 0x20 DUP3 ADD SWAP2 POP DUP2 SWAP1 POP SWAP3 SWAP2 POP POP JUMP JUMPDEST PUSH32 0x4E487B7100000000000000000000000000000000000000000000000000000000 PUSH0 MSTORE PUSH1 0x11 PUSH1 0x4 MSTORE PUSH1 0x24 PUSH0 REVERT JUMPDEST PUSH0 PUSH2 0x147B DUP3 PUSH2 0x10AE JUMP JUMPDEST SWAP2 POP PUSH2 0x1486 DUP4 PUSH2 0x10AE JUMP JUMPDEST SWAP3 POP DUP3 DUP3 SUB SWAP1 POP DUP2 DUP2 GT ISZERO PUSH2 0x149E JUMPI PUSH2 0x149D PUSH2 0x1444 JUMP JUMPDEST JUMPDEST SWAP3 SWAP2 POP POP JUMP JUMPDEST PUSH0 PUSH1 0x40 DUP3 ADD SWAP1 POP PUSH2 0x14B7 PUSH0 DUP4 ADD DUP6 PUSH2 0x1086 JUMP JUMPDEST PUSH2 0x14C4 PUSH1 0x20 DUP4 ADD DUP5 PUSH2 0x10B7 JUMP JUMPDEST SWAP4 SWAP3 POP POP POP JUMP JUMPDEST PUSH0 PUSH1 0x60 DUP3 ADD SWAP1 POP PUSH2 0x14DE PUSH0 DUP4 ADD DUP7 PUSH2 0x1086 JUMP JUMPDEST PUSH2 0x14EB PUSH1 0x20 DUP4 ADD DUP6 PUSH2 0x1086 JUMP JUMPDEST PUSH2 0x14F8 PUSH1 0x40 DUP4 ADD DUP5 PUSH2 0x10B7 JUMP JUMPDEST SWAP5 SWAP4 POP POP POP POP JUMP INVALID LOG2 PUSH5 0x6970667358 0x22 SLT KECCAK256 PC DUP4 CODESIZE 0xC3 SWAP11 PUSH6 0xCFE360C7E7B 0xED NUMBER PUSH28 0x6F2FB59B8F89847AB4A9F94A19820C091064736F6C63430008170033 LOG2 PUSH5 0x6970667358 0x22 SLT KECCAK256 0xED PUSH0 0xC7 SAR 0xC7 0xBB KECCAK256 0xF XOR SWAP16 STOP SWAP2 EQ PC PUSH28 0xCBB0410B3FDADA44B8891EBB8B325ADF0464736F6C63430008170033 "
		},
		"gasEstimates": {
			"creation": {
				"codeDepositCost": "4476400",
				"executionCost": "infinite",
				"totalCost": "infinite"
			},
			"external": {
				"CREATION_FEE()": "infinite",
				"MIN_TIMELOCK()": "413",
				"cancelOrder(bytes32,(address,address,uint256,address,uint256,bytes32,uint256,uint256,bytes32))": "infinite",
				"completeSwap(bytes32,bytes32)": "infinite",
				"computeEscrowAddresses(bytes32,bytes32)": "infinite",
				"createOrder((address,address,uint256,address,uint256,bytes32,uint256,uint256,bytes32))": "infinite",
				"fillOrder(bytes32,(address,address,uint256,address,uint256,bytes32,uint256,uint256,bytes32))": "infinite",
				"getOrder(bytes32)": "infinite",
				"getOrderStatus(bytes32)": "infinite",
				"orderDetails(bytes32)": "infinite",
				"orders(bytes32)": "infinite",
				"owner()": "2538",
				"renounceOwnership()": "infinite",
				"transferOwnership(address)": "infinite",
				"userNonces(address)": "2848",
				"withdrawFees()": "infinite"
			},
			"internal": {
				"_deployDualEscrows(bytes32,bytes32)": "infinite",
				"_generateOrderHash(struct Resolver.Order calldata)": "infinite"
			}
		},
		"methodIdentifiers": {
			"CREATION_FEE()": "49a2104d",
			"MIN_TIMELOCK()": "fb0c7549",
			"cancelOrder(bytes32,(address,address,uint256,address,uint256,bytes32,uint256,uint256,bytes32))": "dae80ab8",
			"completeSwap(bytes32,bytes32)": "78dc3356",
			"computeEscrowAddresses(bytes32,bytes32)": "9016c4ef",
			"createOrder((address,address,uint256,address,uint256,bytes32,uint256,uint256,bytes32))": "2372a880",
			"fillOrder(bytes32,(address,address,uint256,address,uint256,bytes32,uint256,uint256,bytes32))": "db24fbb4",
			"getOrder(bytes32)": "5778472a",
			"getOrderStatus(bytes32)": "46423aa7",
			"orderDetails(bytes32)": "a3c50b32",
			"orders(bytes32)": "9c3f1e90",
			"owner()": "8da5cb5b",
			"renounceOwnership()": "715018a6",
			"transferOwnership(address)": "f2fde38b",
			"userNonces(address)": "2f7801f4",
			"withdrawFees()": "476343ee"
		}
	},
	"abi": [
		{
			"inputs": [
				{
					"internalType": "address",
					"name": "initialOwner",
					"type": "address"
				},
				{
					"internalType": "uint256",
					"name": "creationFee",
					"type": "uint256"
				}
			],
			"stateMutability": "nonpayable",
			"type": "constructor"
		},
		{
			"inputs": [],
			"name": "InsufficientFee",
			"type": "error"
		},
		{
			"inputs": [],
			"name": "InvalidParameters",
			"type": "error"
		},
		{
			"inputs": [],
			"name": "InvalidTimelock",
			"type": "error"
		},
		{
			"inputs": [],
			"name": "OrderAlreadyCancelled",
			"type": "error"
		},
		{
			"inputs": [],
			"name": "OrderAlreadyCompleted",
			"type": "error"
		},
		{
			"inputs": [],
			"name": "OrderAlreadyExists",
			"type": "error"
		},
		{
			"inputs": [],
			"name": "OrderAlreadyFilled",
			"type": "error"
		},
		{
			"inputs": [],
			"name": "OrderNotFilled",
			"type": "error"
		},
		{
			"inputs": [],
			"name": "OrderNotFound",
			"type": "error"
		},
		{
			"inputs": [
				{
					"internalType": "address",
					"name": "owner",
					"type": "address"
				}
			],
			"name": "OwnableInvalidOwner",
			"type": "error"
		},
		{
			"inputs": [
				{
					"internalType": "address",
					"name": "account",
					"type": "address"
				}
			],
			"name": "OwnableUnauthorizedAccount",
			"type": "error"
		},
		{
			"inputs": [],
			"name": "ReentrancyGuardReentrantCall",
			"type": "error"
		},
		{
			"inputs": [],
			"name": "UnauthorizedCaller",
			"type": "error"
		},
		{
			"anonymous": false,
			"inputs": [
				{
					"indexed": true,
					"internalType": "bytes32",
					"name": "orderHash",
					"type": "bytes32"
				}
			],
			"name": "OrderCancelled",
			"type": "event"
		},
		{
			"anonymous": false,
			"inputs": [
				{
					"indexed": true,
					"internalType": "bytes32",
					"name": "orderHash",
					"type": "bytes32"
				},
				{
					"indexed": true,
					"internalType": "address",
					"name": "maker",
					"type": "address"
				},
				{
					"indexed": false,
					"internalType": "address",
					"name": "makerEscrow",
					"type": "address"
				},
				{
					"indexed": false,
					"internalType": "address",
					"name": "takerEscrow",
					"type": "address"
				},
				{
					"components": [
						{
							"internalType": "address",
							"name": "maker",
							"type": "address"
						},
						{
							"internalType": "address",
							"name": "makerToken",
							"type": "address"
						},
						{
							"internalType": "uint256",
							"name": "makerAmount",
							"type": "uint256"
						},
						{
							"internalType": "address",
							"name": "takerToken",
							"type": "address"
						},
						{
							"internalType": "uint256",
							"name": "takerAmount",
							"type": "uint256"
						},
						{
							"internalType": "bytes32",
							"name": "hashLock",
							"type": "bytes32"
						},
						{
							"internalType": "uint256",
							"name": "timelock",
							"type": "uint256"
						},
						{
							"internalType": "uint256",
							"name": "nonce",
							"type": "uint256"
						},
						{
							"internalType": "bytes32",
							"name": "salt",
							"type": "bytes32"
						}
					],
					"indexed": false,
					"internalType": "struct Resolver.Order",
					"name": "order",
					"type": "tuple"
				}
			],
			"name": "OrderCreated",
			"type": "event"
		},
		{
			"anonymous": false,
			"inputs": [
				{
					"indexed": true,
					"internalType": "bytes32",
					"name": "orderHash",
					"type": "bytes32"
				},
				{
					"indexed": true,
					"internalType": "address",
					"name": "taker",
					"type": "address"
				}
			],
			"name": "OrderFilled",
			"type": "event"
		},
		{
			"anonymous": false,
			"inputs": [
				{
					"indexed": true,
					"internalType": "address",
					"name": "previousOwner",
					"type": "address"
				},
				{
					"indexed": true,
					"internalType": "address",
					"name": "newOwner",
					"type": "address"
				}
			],
			"name": "OwnershipTransferred",
			"type": "event"
		},
		{
			"anonymous": false,
			"inputs": [
				{
					"indexed": true,
					"internalType": "bytes32",
					"name": "orderHash",
					"type": "bytes32"
				},
				{
					"indexed": false,
					"internalType": "bytes32",
					"name": "secret",
					"type": "bytes32"
				}
			],
			"name": "SwapCompleted",
			"type": "event"
		},
		{
			"inputs": [],
			"name": "CREATION_FEE",
			"outputs": [
				{
					"internalType": "uint256",
					"name": "",
					"type": "uint256"
				}
			],
			"stateMutability": "view",
			"type": "function"
		},
		{
			"inputs": [],
			"name": "MIN_TIMELOCK",
			"outputs": [
				{
					"internalType": "uint256",
					"name": "",
					"type": "uint256"
				}
			],
			"stateMutability": "view",
			"type": "function"
		},
		{
			"inputs": [
				{
					"internalType": "bytes32",
					"name": "orderHash",
					"type": "bytes32"
				},
				{
					"components": [
						{
							"internalType": "address",
							"name": "maker",
							"type": "address"
						},
						{
							"internalType": "address",
							"name": "makerToken",
							"type": "address"
						},
						{
							"internalType": "uint256",
							"name": "makerAmount",
							"type": "uint256"
						},
						{
							"internalType": "address",
							"name": "takerToken",
							"type": "address"
						},
						{
							"internalType": "uint256",
							"name": "takerAmount",
							"type": "uint256"
						},
						{
							"internalType": "bytes32",
							"name": "hashLock",
							"type": "bytes32"
						},
						{
							"internalType": "uint256",
							"name": "timelock",
							"type": "uint256"
						},
						{
							"internalType": "uint256",
							"name": "nonce",
							"type": "uint256"
						},
						{
							"internalType": "bytes32",
							"name": "salt",
							"type": "bytes32"
						}
					],
					"internalType": "struct Resolver.Order",
					"name": "order",
					"type": "tuple"
				}
			],
			"name": "cancelOrder",
			"outputs": [],
			"stateMutability": "nonpayable",
			"type": "function"
		},
		{
			"inputs": [
				{
					"internalType": "bytes32",
					"name": "orderHash",
					"type": "bytes32"
				},
				{
					"internalType": "bytes32",
					"name": "secret",
					"type": "bytes32"
				}
			],
			"name": "completeSwap",
			"outputs": [],
			"stateMutability": "nonpayable",
			"type": "function"
		},
		{
			"inputs": [
				{
					"internalType": "bytes32",
					"name": "orderHash",
					"type": "bytes32"
				},
				{
					"internalType": "bytes32",
					"name": "salt",
					"type": "bytes32"
				}
			],
			"name": "computeEscrowAddresses",
			"outputs": [
				{
					"internalType": "address",
					"name": "makerEscrow",
					"type": "address"
				},
				{
					"internalType": "address",
					"name": "takerEscrow",
					"type": "address"
				}
			],
			"stateMutability": "view",
			"type": "function"
		},
		{
			"inputs": [
				{
					"components": [
						{
							"internalType": "address",
							"name": "maker",
							"type": "address"
						},
						{
							"internalType": "address",
							"name": "makerToken",
							"type": "address"
						},
						{
							"internalType": "uint256",
							"name": "makerAmount",
							"type": "uint256"
						},
						{
							"internalType": "address",
							"name": "takerToken",
							"type": "address"
						},
						{
							"internalType": "uint256",
							"name": "takerAmount",
							"type": "uint256"
						},
						{
							"internalType": "bytes32",
							"name": "hashLock",
							"type": "bytes32"
						},
						{
							"internalType": "uint256",
							"name": "timelock",
							"type": "uint256"
						},
						{
							"internalType": "uint256",
							"name": "nonce",
							"type": "uint256"
						},
						{
							"internalType": "bytes32",
							"name": "salt",
							"type": "bytes32"
						}
					],
					"internalType": "struct Resolver.Order",
					"name": "order",
					"type": "tuple"
				}
			],
			"name": "createOrder",
			"outputs": [
				{
					"internalType": "bytes32",
					"name": "orderHash",
					"type": "bytes32"
				},
				{
					"internalType": "address",
					"name": "makerEscrow",
					"type": "address"
				},
				{
					"internalType": "address",
					"name": "takerEscrow",
					"type": "address"
				}
			],
			"stateMutability": "payable",
			"type": "function"
		},
		{
			"inputs": [
				{
					"internalType": "bytes32",
					"name": "orderHash",
					"type": "bytes32"
				},
				{
					"components": [
						{
							"internalType": "address",
							"name": "maker",
							"type": "address"
						},
						{
							"internalType": "address",
							"name": "makerToken",
							"type": "address"
						},
						{
							"internalType": "uint256",
							"name": "makerAmount",
							"type": "uint256"
						},
						{
							"internalType": "address",
							"name": "takerToken",
							"type": "address"
						},
						{
							"internalType": "uint256",
							"name": "takerAmount",
							"type": "uint256"
						},
						{
							"internalType": "bytes32",
							"name": "hashLock",
							"type": "bytes32"
						},
						{
							"internalType": "uint256",
							"name": "timelock",
							"type": "uint256"
						},
						{
							"internalType": "uint256",
							"name": "nonce",
							"type": "uint256"
						},
						{
							"internalType": "bytes32",
							"name": "salt",
							"type": "bytes32"
						}
					],
					"internalType": "struct Resolver.Order",
					"name": "order",
					"type": "tuple"
				}
			],
			"name": "fillOrder",
			"outputs": [],
			"stateMutability": "nonpayable",
			"type": "function"
		},
		{
			"inputs": [
				{
					"internalType": "bytes32",
					"name": "orderHash",
					"type": "bytes32"
				}
			],
			"name": "getOrder",
			"outputs": [
				{
					"components": [
						{
							"internalType": "address",
							"name": "maker",
							"type": "address"
						},
						{
							"internalType": "address",
							"name": "makerToken",
							"type": "address"
						},
						{
							"internalType": "uint256",
							"name": "makerAmount",
							"type": "uint256"
						},
						{
							"internalType": "address",
							"name": "takerToken",
							"type": "address"
						},
						{
							"internalType": "uint256",
							"name": "takerAmount",
							"type": "uint256"
						},
						{
							"internalType": "bytes32",
							"name": "hashLock",
							"type": "bytes32"
						},
						{
							"internalType": "uint256",
							"name": "timelock",
							"type": "uint256"
						},
						{
							"internalType": "uint256",
							"name": "nonce",
							"type": "uint256"
						},
						{
							"internalType": "bytes32",
							"name": "salt",
							"type": "bytes32"
						}
					],
					"internalType": "struct Resolver.Order",
					"name": "order",
					"type": "tuple"
				}
			],
			"stateMutability": "view",
			"type": "function"
		},
		{
			"inputs": [
				{
					"internalType": "bytes32",
					"name": "orderHash",
					"type": "bytes32"
				}
			],
			"name": "getOrderStatus",
			"outputs": [
				{
					"components": [
						{
							"internalType": "bool",
							"name": "exists",
							"type": "bool"
						},
						{
							"internalType": "bool",
							"name": "filled",
							"type": "bool"
						},
						{
							"internalType": "bool",
							"name": "completed",
							"type": "bool"
						},
						{
							"internalType": "bool",
							"name": "cancelled",
							"type": "bool"
						},
						{
							"internalType": "address",
							"name": "makerEscrow",
							"type": "address"
						},
						{
							"internalType": "address",
							"name": "takerEscrow",
							"type": "address"
						},
						{
							"internalType": "address",
							"name": "taker",
							"type": "address"
						},
						{
							"internalType": "uint256",
							"name": "createdAt",
							"type": "uint256"
						}
					],
					"internalType": "struct Resolver.OrderStatus",
					"name": "status",
					"type": "tuple"
				}
			],
			"stateMutability": "view",
			"type": "function"
		},
		{
			"inputs": [
				{
					"internalType": "bytes32",
					"name": "",
					"type": "bytes32"
				}
			],
			"name": "orderDetails",
			"outputs": [
				{
					"internalType": "address",
					"name": "maker",
					"type": "address"
				},
				{
					"internalType": "address",
					"name": "makerToken",
					"type": "address"
				},
				{
					"internalType": "uint256",
					"name": "makerAmount",
					"type": "uint256"
				},
				{
					"internalType": "address",
					"name": "takerToken",
					"type": "address"
				},
				{
					"internalType": "uint256",
					"name": "takerAmount",
					"type": "uint256"
				},
				{
					"internalType": "bytes32",
					"name": "hashLock",
					"type": "bytes32"
				},
				{
					"internalType": "uint256",
					"name": "timelock",
					"type": "uint256"
				},
				{
					"internalType": "uint256",
					"name": "nonce",
					"type": "uint256"
				},
				{
					"internalType": "bytes32",
					"name": "salt",
					"type": "bytes32"
				}
			],
			"stateMutability": "view",
			"type": "function"
		},
		{
			"inputs": [
				{
					"internalType": "bytes32",
					"name": "",
					"type": "bytes32"
				}
			],
			"name": "orders",
			"outputs": [
				{
					"internalType": "bool",
					"name": "exists",
					"type": "bool"
				},
				{
					"internalType": "bool",
					"name": "filled",
					"type": "bool"
				},
				{
					"internalType": "bool",
					"name": "completed",
					"type": "bool"
				},
				{
					"internalType": "bool",
					"name": "cancelled",
					"type": "bool"
				},
				{
					"internalType": "address",
					"name": "makerEscrow",
					"type": "address"
				},
				{
					"internalType": "address",
					"name": "takerEscrow",
					"type": "address"
				},
				{
					"internalType": "address",
					"name": "taker",
					"type": "address"
				},
				{
					"internalType": "uint256",
					"name": "createdAt",
					"type": "uint256"
				}
			],
			"stateMutability": "view",
			"type": "function"
		},
		{
			"inputs": [],
			"name": "owner",
			"outputs": [
				{
					"internalType": "address",
					"name": "",
					"type": "address"
				}
			],
			"stateMutability": "view",
			"type": "function"
		},
		{
			"inputs": [],
			"name": "renounceOwnership",
			"outputs": [],
			"stateMutability": "nonpayable",
			"type": "function"
		},
		{
			"inputs": [
				{
					"internalType": "address",
					"name": "newOwner",
					"type": "address"
				}
			],
			"name": "transferOwnership",
			"outputs": [],
			"stateMutability": "nonpayable",
			"type": "function"
		},
		{
			"inputs": [
				{
					"internalType": "address",
					"name": "",
					"type": "address"
				}
			],
			"name": "userNonces",
			"outputs": [
				{
					"internalType": "uint256",
					"name": "",
					"type": "uint256"
				}
			],
			"stateMutability": "view",
			"type": "function"
		},
		{
			"inputs": [],
			"name": "withdrawFees",
			"outputs": [],
			"stateMutability": "nonpayable",
			"type": "function"
		}
	]
}